{
  "contracts/mocks/MockContract3.sol": {
    "Mock3": {
      "abi": [
        {
          "inputs": [
            {
              "internalType": "address",
              "name": "factory_",
              "type": "address"
            },
            {
              "internalType": "uint256",
              "name": "version_",
              "type": "uint256"
            },
            {
              "internalType": "address",
              "name": "anotherMock_",
              "type": "address"
            }
          ],
          "stateMutability": "nonpayable",
          "type": "constructor"
        },
        {
          "inputs": [],
          "name": "_a",
          "outputs": [
            {
              "internalType": "uint256",
              "name": "",
              "type": "uint256"
            }
          ],
          "stateMutability": "view",
          "type": "function"
        },
        {
          "inputs": [],
          "name": "_name",
          "outputs": [
            {
              "internalType": "string",
              "name": "",
              "type": "string"
            }
          ],
          "stateMutability": "view",
          "type": "function"
        },
        {
          "inputs": [
            {
              "internalType": "uint256",
              "name": "a_",
              "type": "uint256"
            }
          ],
          "name": "setA",
          "outputs": [],
          "stateMutability": "nonpayable",
          "type": "function"
        },
        {
          "inputs": [
            {
              "internalType": "string",
              "name": "name_",
              "type": "string"
            }
          ],
          "name": "setMsg",
          "outputs": [],
          "stateMutability": "nonpayable",
          "type": "function"
        }
      ],
      "devdoc": {
        "details": "This mock does not inheirt the ProxyChild contract and no initalize function",
        "kind": "dev",
        "methods": {},
        "version": 1
      },
      "evm": {
        "bytecode": {
          "linkReferences": {},
          "object": "60e060405234801561001057600080fd5b5060405161045238038061045283398101604081905261002f91610068565b6001600160a01b0392831660c0526080919091521660a0526100a4565b80516001600160a01b038116811461006357600080fd5b919050565b60008060006060848603121561007d57600080fd5b6100868461004c565b92506020840151915061009b6040850161004c565b90509250925092565b60805160a05160c0516103886100ca6000396000505060005050600050506103886000f3fe608060405234801561001057600080fd5b506004361061004c5760003560e01c8063c4784fd414610051578063ced7b2e314610066578063d28d885214610082578063ee919d5014610097575b600080fd5b61006461005f366004610200565b6100aa565b005b61006f60015481565b6040519081526020015b60405180910390f35b61008a6100bb565b6040516100799190610272565b6100646100a53660046102e5565b600155565b6100b660008383610149565b505050565b600080546100c8906102fe565b80601f01602080910402602001604051908101604052809291908181526020018280546100f4906102fe565b80156101415780601f1061011657610100808354040283529160200191610141565b820191906000526020600020905b81548152906001019060200180831161012457829003601f168201915b505050505081565b828054610155906102fe565b90600052602060002090601f01602090048101928261017757600085556101db565b82601f106101ae578280017fffffffffffffffffffffffffffffffffffffffffffffffffffffffffffffff008235161785556101db565b828001600101855582156101db579182015b828111156101db5782358255916020019190600101906101c0565b506101e79291506101eb565b5090565b5b808211156101e757600081556001016101ec565b6000806020838503121561021357600080fd5b823567ffffffffffffffff8082111561022b57600080fd5b818501915085601f83011261023f57600080fd5b81358181111561024e57600080fd5b86602082850101111561026057600080fd5b60209290920196919550909350505050565b600060208083528351808285015260005b8181101561029f57858101830151858201604001528201610283565b818111156102b1576000604083870101525b50601f017fffffffffffffffffffffffffffffffffffffffffffffffffffffffffffffffe016929092016040019392505050565b6000602082840312156102f757600080fd5b5035919050565b600181811c9082168061031257607f821691505b6020821081141561034c577f4e487b7100000000000000000000000000000000000000000000000000000000600052602260045260246000fd5b5091905056fea2646970667358221220fd48285b74185c9cdd3913373b26d4ec687837e861074dce289bd26439af9cdc64736f6c634300080b0033",
          "opcodes": "PUSH1 0xE0 PUSH1 0x40 MSTORE CALLVALUE DUP1 ISZERO PUSH2 0x10 JUMPI PUSH1 0x0 DUP1 REVERT JUMPDEST POP PUSH1 0x40 MLOAD PUSH2 0x452 CODESIZE SUB DUP1 PUSH2 0x452 DUP4 CODECOPY DUP2 ADD PUSH1 0x40 DUP2 SWAP1 MSTORE PUSH2 0x2F SWAP2 PUSH2 0x68 JUMP JUMPDEST PUSH1 0x1 PUSH1 0x1 PUSH1 0xA0 SHL SUB SWAP3 DUP4 AND PUSH1 0xC0 MSTORE PUSH1 0x80 SWAP2 SWAP1 SWAP2 MSTORE AND PUSH1 0xA0 MSTORE PUSH2 0xA4 JUMP JUMPDEST DUP1 MLOAD PUSH1 0x1 PUSH1 0x1 PUSH1 0xA0 SHL SUB DUP2 AND DUP2 EQ PUSH2 0x63 JUMPI PUSH1 0x0 DUP1 REVERT JUMPDEST SWAP2 SWAP1 POP JUMP JUMPDEST PUSH1 0x0 DUP1 PUSH1 0x0 PUSH1 0x60 DUP5 DUP7 SUB SLT ISZERO PUSH2 0x7D JUMPI PUSH1 0x0 DUP1 REVERT JUMPDEST PUSH2 0x86 DUP5 PUSH2 0x4C JUMP JUMPDEST SWAP3 POP PUSH1 0x20 DUP5 ADD MLOAD SWAP2 POP PUSH2 0x9B PUSH1 0x40 DUP6 ADD PUSH2 0x4C JUMP JUMPDEST SWAP1 POP SWAP3 POP SWAP3 POP SWAP3 JUMP JUMPDEST PUSH1 0x80 MLOAD PUSH1 0xA0 MLOAD PUSH1 0xC0 MLOAD PUSH2 0x388 PUSH2 0xCA PUSH1 0x0 CODECOPY PUSH1 0x0 POP POP PUSH1 0x0 POP POP PUSH1 0x0 POP POP PUSH2 0x388 PUSH1 0x0 RETURN INVALID PUSH1 0x80 PUSH1 0x40 MSTORE CALLVALUE DUP1 ISZERO PUSH2 0x10 JUMPI PUSH1 0x0 DUP1 REVERT JUMPDEST POP PUSH1 0x4 CALLDATASIZE LT PUSH2 0x4C JUMPI PUSH1 0x0 CALLDATALOAD PUSH1 0xE0 SHR DUP1 PUSH4 0xC4784FD4 EQ PUSH2 0x51 JUMPI DUP1 PUSH4 0xCED7B2E3 EQ PUSH2 0x66 JUMPI DUP1 PUSH4 0xD28D8852 EQ PUSH2 0x82 JUMPI DUP1 PUSH4 0xEE919D50 EQ PUSH2 0x97 JUMPI JUMPDEST PUSH1 0x0 DUP1 REVERT JUMPDEST PUSH2 0x64 PUSH2 0x5F CALLDATASIZE PUSH1 0x4 PUSH2 0x200 JUMP JUMPDEST PUSH2 0xAA JUMP JUMPDEST STOP JUMPDEST PUSH2 0x6F PUSH1 0x1 SLOAD DUP2 JUMP JUMPDEST PUSH1 0x40 MLOAD SWAP1 DUP2 MSTORE PUSH1 0x20 ADD JUMPDEST PUSH1 0x40 MLOAD DUP1 SWAP2 SUB SWAP1 RETURN JUMPDEST PUSH2 0x8A PUSH2 0xBB JUMP JUMPDEST PUSH1 0x40 MLOAD PUSH2 0x79 SWAP2 SWAP1 PUSH2 0x272 JUMP JUMPDEST PUSH2 0x64 PUSH2 0xA5 CALLDATASIZE PUSH1 0x4 PUSH2 0x2E5 JUMP JUMPDEST PUSH1 0x1 SSTORE JUMP JUMPDEST PUSH2 0xB6 PUSH1 0x0 DUP4 DUP4 PUSH2 0x149 JUMP JUMPDEST POP POP POP JUMP JUMPDEST PUSH1 0x0 DUP1 SLOAD PUSH2 0xC8 SWAP1 PUSH2 0x2FE JUMP JUMPDEST DUP1 PUSH1 0x1F ADD PUSH1 0x20 DUP1 SWAP2 DIV MUL PUSH1 0x20 ADD PUSH1 0x40 MLOAD SWAP1 DUP2 ADD PUSH1 0x40 MSTORE DUP1 SWAP3 SWAP2 SWAP1 DUP2 DUP2 MSTORE PUSH1 0x20 ADD DUP3 DUP1 SLOAD PUSH2 0xF4 SWAP1 PUSH2 0x2FE JUMP JUMPDEST DUP1 ISZERO PUSH2 0x141 JUMPI DUP1 PUSH1 0x1F LT PUSH2 0x116 JUMPI PUSH2 0x100 DUP1 DUP4 SLOAD DIV MUL DUP4 MSTORE SWAP2 PUSH1 0x20 ADD SWAP2 PUSH2 0x141 JUMP JUMPDEST DUP3 ADD SWAP2 SWAP1 PUSH1 0x0 MSTORE PUSH1 0x20 PUSH1 0x0 KECCAK256 SWAP1 JUMPDEST DUP2 SLOAD DUP2 MSTORE SWAP1 PUSH1 0x1 ADD SWAP1 PUSH1 0x20 ADD DUP1 DUP4 GT PUSH2 0x124 JUMPI DUP3 SWAP1 SUB PUSH1 0x1F AND DUP3 ADD SWAP2 JUMPDEST POP POP POP POP POP DUP2 JUMP JUMPDEST DUP3 DUP1 SLOAD PUSH2 0x155 SWAP1 PUSH2 0x2FE JUMP JUMPDEST SWAP1 PUSH1 0x0 MSTORE PUSH1 0x20 PUSH1 0x0 KECCAK256 SWAP1 PUSH1 0x1F ADD PUSH1 0x20 SWAP1 DIV DUP2 ADD SWAP3 DUP3 PUSH2 0x177 JUMPI PUSH1 0x0 DUP6 SSTORE PUSH2 0x1DB JUMP JUMPDEST DUP3 PUSH1 0x1F LT PUSH2 0x1AE JUMPI DUP3 DUP1 ADD PUSH32 0xFFFFFFFFFFFFFFFFFFFFFFFFFFFFFFFFFFFFFFFFFFFFFFFFFFFFFFFFFFFFFF00 DUP3 CALLDATALOAD AND OR DUP6 SSTORE PUSH2 0x1DB JUMP JUMPDEST DUP3 DUP1 ADD PUSH1 0x1 ADD DUP6 SSTORE DUP3 ISZERO PUSH2 0x1DB JUMPI SWAP2 DUP3 ADD JUMPDEST DUP3 DUP2 GT ISZERO PUSH2 0x1DB JUMPI DUP3 CALLDATALOAD DUP3 SSTORE SWAP2 PUSH1 0x20 ADD SWAP2 SWAP1 PUSH1 0x1 ADD SWAP1 PUSH2 0x1C0 JUMP JUMPDEST POP PUSH2 0x1E7 SWAP3 SWAP2 POP PUSH2 0x1EB JUMP JUMPDEST POP SWAP1 JUMP JUMPDEST JUMPDEST DUP1 DUP3 GT ISZERO PUSH2 0x1E7 JUMPI PUSH1 0x0 DUP2 SSTORE PUSH1 0x1 ADD PUSH2 0x1EC JUMP JUMPDEST PUSH1 0x0 DUP1 PUSH1 0x20 DUP4 DUP6 SUB SLT ISZERO PUSH2 0x213 JUMPI PUSH1 0x0 DUP1 REVERT JUMPDEST DUP3 CALLDATALOAD PUSH8 0xFFFFFFFFFFFFFFFF DUP1 DUP3 GT ISZERO PUSH2 0x22B JUMPI PUSH1 0x0 DUP1 REVERT JUMPDEST DUP2 DUP6 ADD SWAP2 POP DUP6 PUSH1 0x1F DUP4 ADD SLT PUSH2 0x23F JUMPI PUSH1 0x0 DUP1 REVERT JUMPDEST DUP2 CALLDATALOAD DUP2 DUP2 GT ISZERO PUSH2 0x24E JUMPI PUSH1 0x0 DUP1 REVERT JUMPDEST DUP7 PUSH1 0x20 DUP3 DUP6 ADD ADD GT ISZERO PUSH2 0x260 JUMPI PUSH1 0x0 DUP1 REVERT JUMPDEST PUSH1 0x20 SWAP3 SWAP1 SWAP3 ADD SWAP7 SWAP2 SWAP6 POP SWAP1 SWAP4 POP POP POP POP JUMP JUMPDEST PUSH1 0x0 PUSH1 0x20 DUP1 DUP4 MSTORE DUP4 MLOAD DUP1 DUP3 DUP6 ADD MSTORE PUSH1 0x0 JUMPDEST DUP2 DUP2 LT ISZERO PUSH2 0x29F JUMPI DUP6 DUP2 ADD DUP4 ADD MLOAD DUP6 DUP3 ADD PUSH1 0x40 ADD MSTORE DUP3 ADD PUSH2 0x283 JUMP JUMPDEST DUP2 DUP2 GT ISZERO PUSH2 0x2B1 JUMPI PUSH1 0x0 PUSH1 0x40 DUP4 DUP8 ADD ADD MSTORE JUMPDEST POP PUSH1 0x1F ADD PUSH32 0xFFFFFFFFFFFFFFFFFFFFFFFFFFFFFFFFFFFFFFFFFFFFFFFFFFFFFFFFFFFFFFE0 AND SWAP3 SWAP1 SWAP3 ADD PUSH1 0x40 ADD SWAP4 SWAP3 POP POP POP JUMP JUMPDEST PUSH1 0x0 PUSH1 0x20 DUP3 DUP5 SUB SLT ISZERO PUSH2 0x2F7 JUMPI PUSH1 0x0 DUP1 REVERT JUMPDEST POP CALLDATALOAD SWAP2 SWAP1 POP JUMP JUMPDEST PUSH1 0x1 DUP2 DUP2 SHR SWAP1 DUP3 AND DUP1 PUSH2 0x312 JUMPI PUSH1 0x7F DUP3 AND SWAP2 POP JUMPDEST PUSH1 0x20 DUP3 LT DUP2 EQ ISZERO PUSH2 0x34C JUMPI PUSH32 0x4E487B7100000000000000000000000000000000000000000000000000000000 PUSH1 0x0 MSTORE PUSH1 0x22 PUSH1 0x4 MSTORE PUSH1 0x24 PUSH1 0x0 REVERT JUMPDEST POP SWAP2 SWAP1 POP JUMP INVALID LOG2 PUSH5 0x6970667358 0x22 SLT KECCAK256 REVERT BASEFEE 0x28 JUMPDEST PUSH21 0x185C9CDD3913373B26D4EC687837E861074DCE289B 0xD2 PUSH5 0x39AF9CDC64 PUSH20 0x6F6C634300080B00330000000000000000000000 "
        },
        "gasEstimates": {
          "creation": {
            "codeDepositCost": "180800",
            "executionCost": "infinite",
            "totalCost": "infinite"
          },
          "external": {
            "_a()": "2284",
            "_name()": "infinite",
            "setA(uint256)": "22356",
            "setMsg(string)": "infinite"
          }
        },
        "methodIdentifiers": {
          "_a()": "ced7b2e3",
          "_name()": "d28d8852",
          "setA(uint256)": "ee919d50",
          "setMsg(string)": "c4784fd4"
        }
      },
      "storageLayout": {
        "storage": [
          {
            "astId": 10,
            "contract": "contracts/mocks/MockContract3.sol:Mock3",
            "label": "_name",
            "offset": 0,
            "slot": "0",
            "type": "t_string_storage"
          },
          {
            "astId": 12,
            "contract": "contracts/mocks/MockContract3.sol:Mock3",
            "label": "_a",
            "offset": 0,
            "slot": "1",
            "type": "t_uint256"
          }
        ],
        "types": {
          "t_string_storage": {
            "encoding": "bytes",
            "label": "string",
            "numberOfBytes": "32"
          },
          "t_uint256": {
            "encoding": "inplace",
            "label": "uint256",
            "numberOfBytes": "32"
          }
        }
      },
      "userdoc": {
        "kind": "user",
        "methods": {},
        "version": 1
      }
    }
  }
}