{"contracts/ProxyChild.sol":{"ProxyChild":{"abi":[{"inputs":[],"stateMutability":"nonpayable","type":"constructor"},{"inputs":[],"name":"getFactory","outputs":[{"internalType":"address","name":"","type":"address"}],"stateMutability":"view","type":"function"}],"devdoc":{"author":"Hunter Prendergast (et3p), ZJ Lin, Troy Salem (Cr0wn_Gh0ul)","kind":"dev","methods":{},"title":"ProxyChild","version":1},"evm":{"bytecode":{"linkReferences":{},"object":"60a0604052348015600f57600080fd5b503360805260805160ad61002c6000396000602f015260ad6000f3fe6080604052348015600f57600080fd5b506004361060285760003560e01c806388cc58e414602d575b600080fd5b7f000000000000000000000000000000000000000000000000000000000000000060405173ffffffffffffffffffffffffffffffffffffffff909116815260200160405180910390f3fea2646970667358221220359cbeffa54b36a57428e9617df498e7e123b4584b8b18637d8f38a121ca793e64736f6c63430008110033","opcodes":"PUSH1 0xA0 PUSH1 0x40 MSTORE CALLVALUE DUP1 ISZERO PUSH1 0xF JUMPI PUSH1 0x0 DUP1 REVERT JUMPDEST POP CALLER PUSH1 0x80 MSTORE PUSH1 0x80 MLOAD PUSH1 0xAD PUSH2 0x2C PUSH1 0x0 CODECOPY PUSH1 0x0 PUSH1 0x2F ADD MSTORE PUSH1 0xAD PUSH1 0x0 RETURN INVALID PUSH1 0x80 PUSH1 0x40 MSTORE CALLVALUE DUP1 ISZERO PUSH1 0xF JUMPI PUSH1 0x0 DUP1 REVERT JUMPDEST POP PUSH1 0x4 CALLDATASIZE LT PUSH1 0x28 JUMPI PUSH1 0x0 CALLDATALOAD PUSH1 0xE0 SHR DUP1 PUSH4 0x88CC58E4 EQ PUSH1 0x2D JUMPI JUMPDEST PUSH1 0x0 DUP1 REVERT JUMPDEST PUSH32 0x0 PUSH1 0x40 MLOAD PUSH20 0xFFFFFFFFFFFFFFFFFFFFFFFFFFFFFFFFFFFFFFFF SWAP1 SWAP2 AND DUP2 MSTORE PUSH1 0x20 ADD PUSH1 0x40 MLOAD DUP1 SWAP2 SUB SWAP1 RETURN INVALID LOG2 PUSH5 0x6970667358 0x22 SLT KECCAK256 CALLDATALOAD SWAP13 0xBE SELFDESTRUCT 0xA5 0x4B CALLDATASIZE 0xA5 PUSH21 0x28E9617DF498E7E123B4584B8B18637D8F38A121CA PUSH26 0x3E64736F6C634300081100330000000000000000000000000000 "},"gasEstimates":{"creation":{"codeDepositCost":"34600","executionCost":"infinite","totalCost":"infinite"},"external":{"getFactory()":"infinite"},"internal":{"senderIsFactory()":"infinite"}},"methodIdentifiers":{"getFactory()":"88cc58e4"}},"storageLayout":{"storage":[{"astId":389,"contract":"contracts/ProxyChild.sol:ProxyChild","label":"_locked","offset":0,"slot":"0","type":"t_bool"}],"types":{"t_bool":{"encoding":"inplace","label":"bool","numberOfBytes":"1"}}},"userdoc":{"kind":"user","methods":{},"version":1}}}}