{"contracts/ProxyFactory.sol":{"ProxyFactory":{"abi":[{"inputs":[],"stateMutability":"nonpayable","type":"constructor"},{"inputs":[],"name":"CodeSizeZero","type":"error"},{"inputs":[{"internalType":"address","name":"current","type":"address"},{"internalType":"address","name":"expected","type":"address"}],"name":"IncorrectProxyImplementation","type":"error"},{"inputs":[{"internalType":"bytes32","name":"salt","type":"bytes32"}],"name":"SaltAlreadyInUse","type":"error"},{"anonymous":false,"inputs":[{"indexed":false,"internalType":"bytes32","name":"salt","type":"bytes32"},{"indexed":false,"internalType":"address","name":"contractAddr","type":"address"}],"name":"Deployed","type":"event"},{"anonymous":false,"inputs":[{"indexed":false,"internalType":"address","name":"contractAddr","type":"address"}],"name":"DeployedProxy","type":"event"},{"anonymous":false,"inputs":[{"indexed":false,"internalType":"address","name":"contractAddr","type":"address"}],"name":"DeployedRaw","type":"event"},{"anonymous":false,"inputs":[{"indexed":false,"internalType":"address","name":"contractAddr","type":"address"}],"name":"DeployedStatic","type":"event"},{"anonymous":false,"inputs":[{"indexed":false,"internalType":"address","name":"contractAddr","type":"address"}],"name":"DeployedTemplate","type":"event"},{"anonymous":false,"inputs":[{"indexed":false,"internalType":"bytes32","name":"salt","type":"bytes32"},{"indexed":false,"internalType":"address","name":"proxyAddr","type":"address"},{"indexed":false,"internalType":"address","name":"newlogicAddr","type":"address"}],"name":"UpgradedProxy","type":"event"},{"stateMutability":"nonpayable","type":"fallback"},{"inputs":[{"internalType":"address","name":"target_","type":"address"},{"internalType":"uint256","name":"value_","type":"uint256"},{"internalType":"bytes","name":"cdata_","type":"bytes"}],"name":"callAny","outputs":[{"internalType":"bytes","name":"","type":"bytes"}],"stateMutability":"payable","type":"function"},{"inputs":[],"name":"contracts","outputs":[{"internalType":"bytes32[]","name":"contracts_","type":"bytes32[]"}],"stateMutability":"view","type":"function"},{"inputs":[{"internalType":"bytes","name":"deployCode_","type":"bytes"}],"name":"deployCreate","outputs":[{"internalType":"address","name":"contractAddr","type":"address"}],"stateMutability":"nonpayable","type":"function"},{"inputs":[{"internalType":"uint256","name":"value_","type":"uint256"},{"internalType":"bytes32","name":"salt_","type":"bytes32"},{"internalType":"bytes","name":"deployCode_","type":"bytes"}],"name":"deployCreate2","outputs":[{"internalType":"address","name":"contractAddr","type":"address"}],"stateMutability":"payable","type":"function"},{"inputs":[{"internalType":"bytes","name":"deployCode_","type":"bytes"},{"internalType":"bytes32","name":"salt_","type":"bytes32"}],"name":"deployCreateAndRegister","outputs":[{"internalType":"address","name":"contractAddr","type":"address"}],"stateMutability":"nonpayable","type":"function"},{"inputs":[{"internalType":"bytes32","name":"salt_","type":"bytes32"}],"name":"deployProxy","outputs":[{"internalType":"address","name":"contractAddr","type":"address"}],"stateMutability":"nonpayable","type":"function"},{"inputs":[],"name":"getImplementation","outputs":[{"internalType":"address","name":"","type":"address"}],"stateMutability":"view","type":"function"},{"inputs":[{"internalType":"bytes32","name":"_salt","type":"bytes32"},{"internalType":"address","name":"_factory","type":"address"}],"name":"getMetamorphicContractAddress","outputs":[{"internalType":"address","name":"","type":"address"}],"stateMutability":"pure","type":"function"},{"inputs":[],"name":"getNumContracts","outputs":[{"internalType":"uint256","name":"","type":"uint256"}],"stateMutability":"view","type":"function"},{"inputs":[{"internalType":"address","name":"proxyAddress_","type":"address"}],"name":"getProxyImplementation","outputs":[{"internalType":"address","name":"","type":"address"}],"stateMutability":"view","type":"function"},{"inputs":[{"internalType":"address","name":"contract_","type":"address"},{"internalType":"bytes","name":"initCallData_","type":"bytes"}],"name":"initializeContract","outputs":[],"stateMutability":"nonpayable","type":"function"},{"inputs":[{"internalType":"bytes32","name":"salt_","type":"bytes32"}],"name":"lookup","outputs":[{"internalType":"address","name":"","type":"address"}],"stateMutability":"view","type":"function"},{"inputs":[{"components":[{"internalType":"address","name":"target","type":"address"},{"internalType":"uint256","name":"value","type":"uint256"},{"internalType":"bytes","name":"data","type":"bytes"}],"internalType":"struct ProxyFactoryBase.MultiCallArgs[]","name":"cdata_","type":"tuple[]"}],"name":"multiCall","outputs":[{"internalType":"bytes[]","name":"","type":"bytes[]"}],"stateMutability":"nonpayable","type":"function"},{"inputs":[],"name":"owner","outputs":[{"internalType":"address","name":"owner_","type":"address"}],"stateMutability":"view","type":"function"},{"inputs":[{"internalType":"address","name":"newOwner_","type":"address"}],"name":"setOwner","outputs":[],"stateMutability":"nonpayable","type":"function"},{"inputs":[{"internalType":"bytes32","name":"salt_","type":"bytes32"},{"internalType":"address","name":"newImpl_","type":"address"},{"internalType":"bytes","name":"initCallData_","type":"bytes"}],"name":"upgradeProxy","outputs":[],"stateMutability":"nonpayable","type":"function"}],"devdoc":{"custom:salt":"ProxyFactory","kind":"dev","methods":{"callAny(address,uint256,bytes)":{"params":{"cdata_":": Hex encoded state with function signature + arguments of the target function to be called","target_":": the address of the contract to be called","value_":": value in WEIs to send together the call"},"returns":{"_0":"the return of the calls as a byte array"}},"constructor":{"details":"The constructor encodes the proxy deploy byte code with the _UNIVERSAL_DEPLOY_CODE at the head and the factory address at the tail, and deploys the proxy byte code using create OpCode. The result of this deployment will be a contract with the proxy contract deployment bytecode with its constructor at the head, runtime code in the body and constructor args at the tail. The constructor then sets proxyTemplate_ state var to the deployed proxy template address the deploy account will be set as the first owner of the factory."},"contracts()":{"details":"contracts is public getter that gets the array of salts associated with all the contracts deployed with this factory","returns":{"contracts_":"the array of salts associated with all the contracts deployed with this factory"}},"deployCreate(bytes)":{"params":{"deployCode_":"Hex encoded state with the deployment code of the contract to be deployed + constructors' args (if any)"},"returns":{"contractAddr":"the deployed contract address"}},"deployCreate2(uint256,bytes32,bytes)":{"details":"deployCreate2 allows the owner to deploy contracts with deterministic address through the factory","params":{"deployCode_":"Hex encoded state with the deployment code of the contract to be deployed + constructors' args (if any)","salt_":"salt used to determine the final determinist address for the deployed contract","value_":"endowment value in WEIS for the created contract"},"returns":{"contractAddr":"the deployed contract address"}},"deployCreateAndRegister(bytes,bytes32)":{"params":{"deployCode_":"Hex encoded state with the deployment code of the contract to be deployed + constructors' args (if any)","salt_":"salt used to determine the final determinist address for the deployed contract"},"returns":{"contractAddr":"the deployed contract address"}},"deployProxy(bytes32)":{"details":"deployProxy deploys a proxy contract with upgradable logic. See Proxy.sol contract.","params":{"salt_":"salt used to determine the final determinist address for the deployed contract"}},"getImplementation()":{"details":"getImplementation is public getter function for the _owner account address"},"getNumContracts()":{"details":"getNumContracts getter function for retrieving the total number of contracts deployed with this factory","returns":{"_0":"the length of the contract array"}},"getProxyImplementation(address)":{"params":{"proxyAddress_":"the address of the proxy"},"returns":{"_0":"the address of implementation/logic contract used by the proxy"}},"initializeContract(address,bytes)":{"details":"initializeContract allows the owner/delegator to initialize contracts deployed via factory","params":{"contract_":"address of the contract that will be initialized","initCallData_":"Hex encoded initialization function signature + parameters to initialize the deployed contract"}},"lookup(bytes32)":{"params":{"salt_":": Custom NatSpec tag @custom:salt at the top of the contract solidity file"}},"multiCall((address,uint256,bytes)[])":{"details":"multiCall allows EOA to make multiple function calls within a single transaction impersonating the factory","params":{"cdata_":": array of hex encoded state with the function calls (function signature + arguments)"}},"owner()":{"details":"owner is public getter function for the _owner account address","returns":{"owner_":"address of the owner account"}},"setOwner(address)":{"details":"Sets the new owner","params":{"newOwner_":": address of the new owner"}},"upgradeProxy(bytes32,address,bytes)":{"details":"upgradeProxy updates the implementation/logic address of an already deployed proxy contract.","params":{"initCallData_":"Hex encoded initialization function signature + parameters to initialize the new implementation contract","newImpl_":"address of the new contract that contains the new implementation logic","salt_":"salt used to determine the final determinist address for the deployed proxy contract"}}},"version":1},"evm":{"bytecode":{"linkReferences":{},"object":"60a060405234801561001057600080fd5b506040516000906738585839386009f360c01b90610030602082016100a6565b601f1982820381018352601f90910116604081905261005592919030906020016100b4565b604051602081830303815290604052905060008151602083016000f0905080610082573d6000803e3d6000fd5b6001600160a01b031660805250600080546001600160a01b031916331790556100fb565b6102db80620017f383390190565b6001600160c01b0319841681528251600090815b818110156100e557602081870181015160088684010152016100c8565b5060089201918201929092526028019392505050565b6080516116dc620001176000396000610b7001526116dc6000f3fe6080604052600436106100f35760003560e01c80636c0f79b61161008a578063c56ca9ed11610059578063c56ca9ed14610395578063cfe10b30146103b5578063e1d7a8e4146103d3578063f39ec1f7146103f3576100f3565b80636c0f79b61461023a5780638653a4651461025c5780638da5cb5b1461033f578063aaf10f421461036a576100f3565b8063248b1701116100c6578063248b1701146101ba57806327fe1822146101e757806339cab4721461020757806356f2a76114610227576100f3565b8063043c94141461010a57806312e6bf6a1461012c57806313af403514610155578063204e1c7a14610175575b3480156100ff57600080fd5b506002543d5260203df35b34801561011657600080fd5b5061012a610125366004611139565b610413565b005b61013f61013a366004611193565b610453565b60405161014c9190611243565b60405180910390f35b34801561016157600080fd5b5061012a610170366004611256565b6104d8565b34801561018157600080fd5b50610195610190366004611256565b61054d565b60405173ffffffffffffffffffffffffffffffffffffffff909116815260200161014c565b3480156101c657600080fd5b506101da6101d5366004611271565b61055e565b60405161014c91906112e6565b3480156101f357600080fd5b50610195610202366004611366565b61059f565b34801561021357600080fd5b506101956102223660046113a8565b6105d9565b6101956102353660046113c1565b610612565b34801561024657600080fd5b5061024f610657565b60405161014c91906113fc565b34801561026857600080fd5b50610195610277366004611440565b6040517fff0000000000000000000000000000000000000000000000000000000000000060208201527fffffffffffffffffffffffffffffffffffffffff000000000000000000000000606083901b166021820152603581018390527f1c0bf703a3415cada9785e89e9d70314c3111ae7d8e04f33bb42eb1d264088be60558201819052600091607501604080517fffffffffffffffffffffffffffffffffffffffffffffffffffffffffffffffe08184030181529190528051602090910120949350505050565b34801561034b57600080fd5b5060005473ffffffffffffffffffffffffffffffffffffffff16610195565b34801561037657600080fd5b5060025473ffffffffffffffffffffffffffffffffffffffff16610195565b3480156103a157600080fd5b506101956103b036600461146c565b6106af565b3480156103c157600080fd5b5060015460405190815260200161014c565b3480156103df57600080fd5b5061012a6103ee3660046114b8565b6106f7565b3480156103ff57600080fd5b5061019561040e3660046113a8565b610735565b33301480610438575060005473ffffffffffffffffffffffffffffffffffffffff1633145b61044157600080fd5b61044d8484848461075f565b50505050565b60603330148061047a575060005473ffffffffffffffffffffffffffffffffffffffff1633145b61048357600080fd5b600083838080601f0160208091040260200160405190810160405280939291908181526020018383808284376000920191909152509293506104cc92508891508790508361090a565b9150505b949350505050565b333014806104fd575060005473ffffffffffffffffffffffffffffffffffffffff1633145b61050657600080fd5b600080547fffffffffffffffffffffffff00000000000000000000000000000000000000001673ffffffffffffffffffffffffffffffffffffffff92909216919091179055565b60006105588261092d565b92915050565b606033301480610585575060005473ffffffffffffffffffffffffffffffffffffffff1633145b61058e57600080fd5b6105988383610997565b9392505050565b6000333014806105c6575060005473ffffffffffffffffffffffffffffffffffffffff1633145b6105cf57600080fd5b6105988383610af3565b600033301480610600575060005473ffffffffffffffffffffffffffffffffffffffff1633145b61060957600080fd5b61055882610b6b565b600033301480610639575060005473ffffffffffffffffffffffffffffffffffffffff1633145b61064257600080fd5b61064e85858585610c2a565b95945050505050565b606060018054806020026020016040519081016040528092919081815260200182805480156106a557602002820191906000526020600020905b815481526020019060010190808311610691575b5050505050905090565b6000333014806106d6575060005473ffffffffffffffffffffffffffffffffffffffff1633145b6106df57600080fd5b60006106eb8585610af3565b90506104d08382610cd1565b3330148061071c575060005473ffffffffffffffffffffffffffffffffffffffff1633145b61072557600080fd5b610730838383610db2565b505050565b60008181526003602052604081205473ffffffffffffffffffffffffffffffffffffffff16610558565b604080517fff000000000000000000000000000000000000000000000000000000000000006020808301919091523060601b7fffffffffffffffffffffffffffffffffffffffff000000000000000000000000166021830152603582018790527f1c0bf703a3415cada9785e89e9d70314c3111ae7d8e04f33bb42eb1d264088be605580840191909152835180840390910181526075909201909252805191012061080a8185610de7565b60006108158261092d565b90508473ffffffffffffffffffffffffffffffffffffffff168173ffffffffffffffffffffffffffffffffffffffff16146108a1576040517f35da668500000000000000000000000000000000000000000000000000000000815273ffffffffffffffffffffffffffffffffffffffff8083166004830152861660248201526044015b60405180910390fd5b6108ac828585610db2565b6040805187815273ffffffffffffffffffffffffffffffffffffffff848116602083015287168183015290517f430fbfc2698f4e110d994ecf59c30881703dc7b8cd50bc5f12e4e48d21e144a39181900360600190a1505050505050565b60606104d073ffffffffffffffffffffffffffffffffffffffff85168385610e6f565b6000806040518060400160405280600581526020017f0cbcae703c0000000000000000000000000000000000000000000000000000008152509050600080825160208401865afa6040513d81016040523d6000823e8161098b573d81fd5b5160601c949350505050565b60608167ffffffffffffffff8111156109b2576109b261150b565b6040519080825280602002602001820160405280156109e557816020015b60608152602001906001900390816109d05790505b50905060005b82811015610aec57610abc848483818110610a0857610a0861153a565b9050602002810190610a1a9190611569565b610a28906020810190611256565b858584818110610a3a57610a3a61153a565b9050602002810190610a4c9190611569565b60200135868685818110610a6257610a6261153a565b9050602002810190610a749190611569565b610a829060408101906115a7565b8080601f01602080910402602001604051908101604052809392919081815260200183838082843760009201919091525061090a92505050565b828281518110610ace57610ace61153a565b60200260200101819052508080610ae49061160c565b9150506109eb565b5092915050565b600060405180838582378301818103826000f092505050610b1c610b15823b90565b1515610e95565b60405173ffffffffffffffffffffffffffffffffffffffff821681527fd3acf0da590cfcd8f020afd7f40b7e6e4c8bd2fc9eb7aec9836837b667685b3a9060200160405180910390a192915050565b6000807f000000000000000000000000000000000000000000000000000000000000000090508060025560405160208101604052766020363636335afa1536363636515af43d36363e3d36f360481b8152836017826000f5925050610bd1610b15833b90565b610bdb8383610cd1565b60405173ffffffffffffffffffffffffffffffffffffffff831681527f06690e5b52be10a3d5820ec875c3dd3327f3077954a09f104201e40e5f7082c69060200160405180910390a150919050565b600060405180838582378301858282038389f592505050610c4c610b15823b90565b6001805480820182556000919091527fb10e2d527612073b26eecdfd717e6a320cf44b4afac2b0732d9fcbe2b7fa0cf60184905560405173ffffffffffffffffffffffffffffffffffffffff821681527fd3acf0da590cfcd8f020afd7f40b7e6e4c8bd2fc9eb7aec9836837b667685b3a9060200160405180910390a1949350505050565b60008281526003602052604090205473ffffffffffffffffffffffffffffffffffffffff1615610d30576040517fcd3b7fe100000000000000000000000000000000000000000000000000000000815260048101839052602401610898565b600180548082019091557fb10e2d527612073b26eecdfd717e6a320cf44b4afac2b0732d9fcbe2b7fa0cf60182905560009182526003602052604090912080547fffffffffffffffffffffffff00000000000000000000000000000000000000001673ffffffffffffffffffffffffffffffffffffffff909216919091179055565b8015610730576040518082016040528183823760008083836000885af161044d576040519050803d016040523d6000823e3d81fd5b6040517fca11c0de11000000000000000000000000000000000000000000000000000000602082015273ffffffffffffffffffffffffffffffffffffffff8216602582015260009060450160405160208183030381529060405290506000808251602084016000875af16040513d81016040523d6000823e81610e68573d81fd5b5050505050565b60606104d084848460405180606001604052806029815260200161167e60299139610ecf565b80610ecc576040517f5e393b2600000000000000000000000000000000000000000000000000000000815260040160405180910390fd5b50565b606082471015610f61576040517f08c379a000000000000000000000000000000000000000000000000000000000815260206004820152602660248201527f416464726573733a20696e73756666696369656e742062616c616e636520666f60448201527f722063616c6c00000000000000000000000000000000000000000000000000006064820152608401610898565b6000808673ffffffffffffffffffffffffffffffffffffffff168587604051610f8a919061166b565b60006040518083038185875af1925050503d8060008114610fc7576040519150601f19603f3d011682016040523d82523d6000602084013e610fcc565b606091505b5091509150610fdd87838387610fe8565b979650505050505050565b6060831561107e5782516000036110775773ffffffffffffffffffffffffffffffffffffffff85163b611077576040517f08c379a000000000000000000000000000000000000000000000000000000000815260206004820152601d60248201527f416464726573733a2063616c6c20746f206e6f6e2d636f6e74726163740000006044820152606401610898565b50816104d0565b6104d083838151156110935781518083602001fd5b806040517f08c379a00000000000000000000000000000000000000000000000000000000081526004016108989190611243565b803573ffffffffffffffffffffffffffffffffffffffff811681146110eb57600080fd5b919050565b60008083601f84011261110257600080fd5b50813567ffffffffffffffff81111561111a57600080fd5b60208301915083602082850101111561113257600080fd5b9250929050565b6000806000806060858703121561114f57600080fd5b8435935061115f602086016110c7565b9250604085013567ffffffffffffffff81111561117b57600080fd5b611187878288016110f0565b95989497509550505050565b600080600080606085870312156111a957600080fd5b6111b2856110c7565b935060208501359250604085013567ffffffffffffffff81111561117b57600080fd5b60005b838110156111f05781810151838201526020016111d8565b50506000910152565b600081518084526112118160208601602086016111d5565b601f017fffffffffffffffffffffffffffffffffffffffffffffffffffffffffffffffe0169290920160200192915050565b60208152600061059860208301846111f9565b60006020828403121561126857600080fd5b610598826110c7565b6000806020838503121561128457600080fd5b823567ffffffffffffffff8082111561129c57600080fd5b818501915085601f8301126112b057600080fd5b8135818111156112bf57600080fd5b8660208260051b85010111156112d457600080fd5b60209290920196919550909350505050565b6000602080830181845280855180835260408601915060408160051b870101925083870160005b82811015611359577fffffffffffffffffffffffffffffffffffffffffffffffffffffffffffffffc08886030184526113478583516111f9565b9450928501929085019060010161130d565b5092979650505050505050565b6000806020838503121561137957600080fd5b823567ffffffffffffffff81111561139057600080fd5b61139c858286016110f0565b90969095509350505050565b6000602082840312156113ba57600080fd5b5035919050565b600080600080606085870312156113d757600080fd5b8435935060208501359250604085013567ffffffffffffffff81111561117b57600080fd5b6020808252825182820181905260009190848201906040850190845b8181101561143457835183529284019291840191600101611418565b50909695505050505050565b6000806040838503121561145357600080fd5b82359150611463602084016110c7565b90509250929050565b60008060006040848603121561148157600080fd5b833567ffffffffffffffff81111561149857600080fd5b6114a4868287016110f0565b909790965060209590950135949350505050565b6000806000604084860312156114cd57600080fd5b6114d6846110c7565b9250602084013567ffffffffffffffff8111156114f257600080fd5b6114fe868287016110f0565b9497909650939450505050565b7f4e487b7100000000000000000000000000000000000000000000000000000000600052604160045260246000fd5b7f4e487b7100000000000000000000000000000000000000000000000000000000600052603260045260246000fd5b600082357fffffffffffffffffffffffffffffffffffffffffffffffffffffffffffffffa183360301811261159d57600080fd5b9190910192915050565b60008083357fffffffffffffffffffffffffffffffffffffffffffffffffffffffffffffffe18436030181126115dc57600080fd5b83018035915067ffffffffffffffff8211156115f757600080fd5b60200191503681900382131561113257600080fd5b60007fffffffffffffffffffffffffffffffffffffffffffffffffffffffffffffffff8203611664577f4e487b7100000000000000000000000000000000000000000000000000000000600052601160045260246000fd5b5060010190565b6000825161159d8184602087016111d556fe416464726573733a206c6f772d6c6576656c2063616c6c20776974682076616c7565206661696c6564a2646970667358221220003c5fe50a6476c15b68466b33e357aeec3b96721a66a5ef3f2f2608ed4a303a64736f6c6343000811003360a060405234801561001057600080fd5b50336080526080516102ac61002f6000396000601b01526102ac6000f3fe60806040523661001357610011610017565b005b6100115b60007f00000000000000000000000000000000000000000000000000000000000000009050600536146025361417156101275760003560d81c80640cbcae703c81146100995764ca11c0de1181146100ea5761009460127f66756e6374696f6e206e6f7420666f756e640000000000000000000000000000610132565b610124565b6040517fffffffffffffffffffffffffffffffffffffffffffffffffffffffffffffffff5460601b7fffffffffffffffffffffffffffffffffffffffff000000000000000000000000168152601481f35b82331461011c5761011c600c7f756e617574686f72697a65640000000000000000000000000000000000000000610132565b610124610177565b50505b61012f6101fa565b50565b6040517f08c379a00000000000000000000000000000000000000000000000000000000081526020600482015260248101839052604481018290526064808201919081fd5b6bca11c0de15dead10deadc0de6000195460a01c036101bb576101bb600d7f757064617465206c6f636b656400000000000000000000000000000000000000610132565b73ffffffffffffffffffffffffffffffffffffffff600535167fffffffffffffffffffffffffffffffffffffffffffffffffffffffffffffffff819055005b7fffffffffffffffffffffffffffffffffffffffffffffffffffffffffffffffff548061024c5761024c600d7f6c6f676963206e6f742073657400000000000000000000000000000000000000610132565b60405136810160405236600082376000803683855af491503d6000823e81610272573d81fd5b3d81f3fea264697066735822122008cba2e77d14c8cdbf42884951755adca3df49c0b7f5dbf6714f8ff7438492a564736f6c63430008110033","opcodes":"PUSH1 0xA0 PUSH1 0x40 MSTORE CALLVALUE DUP1 ISZERO PUSH2 0x10 JUMPI PUSH1 0x0 DUP1 REVERT JUMPDEST POP PUSH1 0x40 MLOAD PUSH1 0x0 SWAP1 PUSH8 0x38585839386009F3 PUSH1 0xC0 SHL SWAP1 PUSH2 0x30 PUSH1 0x20 DUP3 ADD PUSH2 0xA6 JUMP JUMPDEST PUSH1 0x1F NOT DUP3 DUP3 SUB DUP2 ADD DUP4 MSTORE PUSH1 0x1F SWAP1 SWAP2 ADD AND PUSH1 0x40 DUP2 SWAP1 MSTORE PUSH2 0x55 SWAP3 SWAP2 SWAP1 ADDRESS SWAP1 PUSH1 0x20 ADD PUSH2 0xB4 JUMP JUMPDEST PUSH1 0x40 MLOAD PUSH1 0x20 DUP2 DUP4 SUB SUB DUP2 MSTORE SWAP1 PUSH1 0x40 MSTORE SWAP1 POP PUSH1 0x0 DUP2 MLOAD PUSH1 0x20 DUP4 ADD PUSH1 0x0 CREATE SWAP1 POP DUP1 PUSH2 0x82 JUMPI RETURNDATASIZE PUSH1 0x0 DUP1 RETURNDATACOPY RETURNDATASIZE PUSH1 0x0 REVERT JUMPDEST PUSH1 0x1 PUSH1 0x1 PUSH1 0xA0 SHL SUB AND PUSH1 0x80 MSTORE POP PUSH1 0x0 DUP1 SLOAD PUSH1 0x1 PUSH1 0x1 PUSH1 0xA0 SHL SUB NOT AND CALLER OR SWAP1 SSTORE PUSH2 0xFB JUMP JUMPDEST PUSH2 0x2DB DUP1 PUSH3 0x17F3 DUP4 CODECOPY ADD SWAP1 JUMP JUMPDEST PUSH1 0x1 PUSH1 0x1 PUSH1 0xC0 SHL SUB NOT DUP5 AND DUP2 MSTORE DUP3 MLOAD PUSH1 0x0 SWAP1 DUP2 JUMPDEST DUP2 DUP2 LT ISZERO PUSH2 0xE5 JUMPI PUSH1 0x20 DUP2 DUP8 ADD DUP2 ADD MLOAD PUSH1 0x8 DUP7 DUP5 ADD ADD MSTORE ADD PUSH2 0xC8 JUMP JUMPDEST POP PUSH1 0x8 SWAP3 ADD SWAP2 DUP3 ADD SWAP3 SWAP1 SWAP3 MSTORE PUSH1 0x28 ADD SWAP4 SWAP3 POP POP POP JUMP JUMPDEST PUSH1 0x80 MLOAD PUSH2 0x16DC PUSH3 0x117 PUSH1 0x0 CODECOPY PUSH1 0x0 PUSH2 0xB70 ADD MSTORE PUSH2 0x16DC PUSH1 0x0 RETURN INVALID PUSH1 0x80 PUSH1 0x40 MSTORE PUSH1 0x4 CALLDATASIZE LT PUSH2 0xF3 JUMPI PUSH1 0x0 CALLDATALOAD PUSH1 0xE0 SHR DUP1 PUSH4 0x6C0F79B6 GT PUSH2 0x8A JUMPI DUP1 PUSH4 0xC56CA9ED GT PUSH2 0x59 JUMPI DUP1 PUSH4 0xC56CA9ED EQ PUSH2 0x395 JUMPI DUP1 PUSH4 0xCFE10B30 EQ PUSH2 0x3B5 JUMPI DUP1 PUSH4 0xE1D7A8E4 EQ PUSH2 0x3D3 JUMPI DUP1 PUSH4 0xF39EC1F7 EQ PUSH2 0x3F3 JUMPI PUSH2 0xF3 JUMP JUMPDEST DUP1 PUSH4 0x6C0F79B6 EQ PUSH2 0x23A JUMPI DUP1 PUSH4 0x8653A465 EQ PUSH2 0x25C JUMPI DUP1 PUSH4 0x8DA5CB5B EQ PUSH2 0x33F JUMPI DUP1 PUSH4 0xAAF10F42 EQ PUSH2 0x36A JUMPI PUSH2 0xF3 JUMP JUMPDEST DUP1 PUSH4 0x248B1701 GT PUSH2 0xC6 JUMPI DUP1 PUSH4 0x248B1701 EQ PUSH2 0x1BA JUMPI DUP1 PUSH4 0x27FE1822 EQ PUSH2 0x1E7 JUMPI DUP1 PUSH4 0x39CAB472 EQ PUSH2 0x207 JUMPI DUP1 PUSH4 0x56F2A761 EQ PUSH2 0x227 JUMPI PUSH2 0xF3 JUMP JUMPDEST DUP1 PUSH4 0x43C9414 EQ PUSH2 0x10A JUMPI DUP1 PUSH4 0x12E6BF6A EQ PUSH2 0x12C JUMPI DUP1 PUSH4 0x13AF4035 EQ PUSH2 0x155 JUMPI DUP1 PUSH4 0x204E1C7A EQ PUSH2 0x175 JUMPI JUMPDEST CALLVALUE DUP1 ISZERO PUSH2 0xFF JUMPI PUSH1 0x0 DUP1 REVERT JUMPDEST POP PUSH1 0x2 SLOAD RETURNDATASIZE MSTORE PUSH1 0x20 RETURNDATASIZE RETURN JUMPDEST CALLVALUE DUP1 ISZERO PUSH2 0x116 JUMPI PUSH1 0x0 DUP1 REVERT JUMPDEST POP PUSH2 0x12A PUSH2 0x125 CALLDATASIZE PUSH1 0x4 PUSH2 0x1139 JUMP JUMPDEST PUSH2 0x413 JUMP JUMPDEST STOP JUMPDEST PUSH2 0x13F PUSH2 0x13A CALLDATASIZE PUSH1 0x4 PUSH2 0x1193 JUMP JUMPDEST PUSH2 0x453 JUMP JUMPDEST PUSH1 0x40 MLOAD PUSH2 0x14C SWAP2 SWAP1 PUSH2 0x1243 JUMP JUMPDEST PUSH1 0x40 MLOAD DUP1 SWAP2 SUB SWAP1 RETURN JUMPDEST CALLVALUE DUP1 ISZERO PUSH2 0x161 JUMPI PUSH1 0x0 DUP1 REVERT JUMPDEST POP PUSH2 0x12A PUSH2 0x170 CALLDATASIZE PUSH1 0x4 PUSH2 0x1256 JUMP JUMPDEST PUSH2 0x4D8 JUMP JUMPDEST CALLVALUE DUP1 ISZERO PUSH2 0x181 JUMPI PUSH1 0x0 DUP1 REVERT JUMPDEST POP PUSH2 0x195 PUSH2 0x190 CALLDATASIZE PUSH1 0x4 PUSH2 0x1256 JUMP JUMPDEST PUSH2 0x54D JUMP JUMPDEST PUSH1 0x40 MLOAD PUSH20 0xFFFFFFFFFFFFFFFFFFFFFFFFFFFFFFFFFFFFFFFF SWAP1 SWAP2 AND DUP2 MSTORE PUSH1 0x20 ADD PUSH2 0x14C JUMP JUMPDEST CALLVALUE DUP1 ISZERO PUSH2 0x1C6 JUMPI PUSH1 0x0 DUP1 REVERT JUMPDEST POP PUSH2 0x1DA PUSH2 0x1D5 CALLDATASIZE PUSH1 0x4 PUSH2 0x1271 JUMP JUMPDEST PUSH2 0x55E JUMP JUMPDEST PUSH1 0x40 MLOAD PUSH2 0x14C SWAP2 SWAP1 PUSH2 0x12E6 JUMP JUMPDEST CALLVALUE DUP1 ISZERO PUSH2 0x1F3 JUMPI PUSH1 0x0 DUP1 REVERT JUMPDEST POP PUSH2 0x195 PUSH2 0x202 CALLDATASIZE PUSH1 0x4 PUSH2 0x1366 JUMP JUMPDEST PUSH2 0x59F JUMP JUMPDEST CALLVALUE DUP1 ISZERO PUSH2 0x213 JUMPI PUSH1 0x0 DUP1 REVERT JUMPDEST POP PUSH2 0x195 PUSH2 0x222 CALLDATASIZE PUSH1 0x4 PUSH2 0x13A8 JUMP JUMPDEST PUSH2 0x5D9 JUMP JUMPDEST PUSH2 0x195 PUSH2 0x235 CALLDATASIZE PUSH1 0x4 PUSH2 0x13C1 JUMP JUMPDEST PUSH2 0x612 JUMP JUMPDEST CALLVALUE DUP1 ISZERO PUSH2 0x246 JUMPI PUSH1 0x0 DUP1 REVERT JUMPDEST POP PUSH2 0x24F PUSH2 0x657 JUMP JUMPDEST PUSH1 0x40 MLOAD PUSH2 0x14C SWAP2 SWAP1 PUSH2 0x13FC JUMP JUMPDEST CALLVALUE DUP1 ISZERO PUSH2 0x268 JUMPI PUSH1 0x0 DUP1 REVERT JUMPDEST POP PUSH2 0x195 PUSH2 0x277 CALLDATASIZE PUSH1 0x4 PUSH2 0x1440 JUMP JUMPDEST PUSH1 0x40 MLOAD PUSH32 0xFF00000000000000000000000000000000000000000000000000000000000000 PUSH1 0x20 DUP3 ADD MSTORE PUSH32 0xFFFFFFFFFFFFFFFFFFFFFFFFFFFFFFFFFFFFFFFF000000000000000000000000 PUSH1 0x60 DUP4 SWAP1 SHL AND PUSH1 0x21 DUP3 ADD MSTORE PUSH1 0x35 DUP2 ADD DUP4 SWAP1 MSTORE PUSH32 0x1C0BF703A3415CADA9785E89E9D70314C3111AE7D8E04F33BB42EB1D264088BE PUSH1 0x55 DUP3 ADD DUP2 SWAP1 MSTORE PUSH1 0x0 SWAP2 PUSH1 0x75 ADD PUSH1 0x40 DUP1 MLOAD PUSH32 0xFFFFFFFFFFFFFFFFFFFFFFFFFFFFFFFFFFFFFFFFFFFFFFFFFFFFFFFFFFFFFFE0 DUP2 DUP5 SUB ADD DUP2 MSTORE SWAP2 SWAP1 MSTORE DUP1 MLOAD PUSH1 0x20 SWAP1 SWAP2 ADD KECCAK256 SWAP5 SWAP4 POP POP POP POP JUMP JUMPDEST CALLVALUE DUP1 ISZERO PUSH2 0x34B JUMPI PUSH1 0x0 DUP1 REVERT JUMPDEST POP PUSH1 0x0 SLOAD PUSH20 0xFFFFFFFFFFFFFFFFFFFFFFFFFFFFFFFFFFFFFFFF AND PUSH2 0x195 JUMP JUMPDEST CALLVALUE DUP1 ISZERO PUSH2 0x376 JUMPI PUSH1 0x0 DUP1 REVERT JUMPDEST POP PUSH1 0x2 SLOAD PUSH20 0xFFFFFFFFFFFFFFFFFFFFFFFFFFFFFFFFFFFFFFFF AND PUSH2 0x195 JUMP JUMPDEST CALLVALUE DUP1 ISZERO PUSH2 0x3A1 JUMPI PUSH1 0x0 DUP1 REVERT JUMPDEST POP PUSH2 0x195 PUSH2 0x3B0 CALLDATASIZE PUSH1 0x4 PUSH2 0x146C JUMP JUMPDEST PUSH2 0x6AF JUMP JUMPDEST CALLVALUE DUP1 ISZERO PUSH2 0x3C1 JUMPI PUSH1 0x0 DUP1 REVERT JUMPDEST POP PUSH1 0x1 SLOAD PUSH1 0x40 MLOAD SWAP1 DUP2 MSTORE PUSH1 0x20 ADD PUSH2 0x14C JUMP JUMPDEST CALLVALUE DUP1 ISZERO PUSH2 0x3DF JUMPI PUSH1 0x0 DUP1 REVERT JUMPDEST POP PUSH2 0x12A PUSH2 0x3EE CALLDATASIZE PUSH1 0x4 PUSH2 0x14B8 JUMP JUMPDEST PUSH2 0x6F7 JUMP JUMPDEST CALLVALUE DUP1 ISZERO PUSH2 0x3FF JUMPI PUSH1 0x0 DUP1 REVERT JUMPDEST POP PUSH2 0x195 PUSH2 0x40E CALLDATASIZE PUSH1 0x4 PUSH2 0x13A8 JUMP JUMPDEST PUSH2 0x735 JUMP JUMPDEST CALLER ADDRESS EQ DUP1 PUSH2 0x438 JUMPI POP PUSH1 0x0 SLOAD PUSH20 0xFFFFFFFFFFFFFFFFFFFFFFFFFFFFFFFFFFFFFFFF AND CALLER EQ JUMPDEST PUSH2 0x441 JUMPI PUSH1 0x0 DUP1 REVERT JUMPDEST PUSH2 0x44D DUP5 DUP5 DUP5 DUP5 PUSH2 0x75F JUMP JUMPDEST POP POP POP POP JUMP JUMPDEST PUSH1 0x60 CALLER ADDRESS EQ DUP1 PUSH2 0x47A JUMPI POP PUSH1 0x0 SLOAD PUSH20 0xFFFFFFFFFFFFFFFFFFFFFFFFFFFFFFFFFFFFFFFF AND CALLER EQ JUMPDEST PUSH2 0x483 JUMPI PUSH1 0x0 DUP1 REVERT JUMPDEST PUSH1 0x0 DUP4 DUP4 DUP1 DUP1 PUSH1 0x1F ADD PUSH1 0x20 DUP1 SWAP2 DIV MUL PUSH1 0x20 ADD PUSH1 0x40 MLOAD SWAP1 DUP2 ADD PUSH1 0x40 MSTORE DUP1 SWAP4 SWAP3 SWAP2 SWAP1 DUP2 DUP2 MSTORE PUSH1 0x20 ADD DUP4 DUP4 DUP1 DUP3 DUP5 CALLDATACOPY PUSH1 0x0 SWAP3 ADD SWAP2 SWAP1 SWAP2 MSTORE POP SWAP3 SWAP4 POP PUSH2 0x4CC SWAP3 POP DUP9 SWAP2 POP DUP8 SWAP1 POP DUP4 PUSH2 0x90A JUMP JUMPDEST SWAP2 POP POP JUMPDEST SWAP5 SWAP4 POP POP POP POP JUMP JUMPDEST CALLER ADDRESS EQ DUP1 PUSH2 0x4FD JUMPI POP PUSH1 0x0 SLOAD PUSH20 0xFFFFFFFFFFFFFFFFFFFFFFFFFFFFFFFFFFFFFFFF AND CALLER EQ JUMPDEST PUSH2 0x506 JUMPI PUSH1 0x0 DUP1 REVERT JUMPDEST PUSH1 0x0 DUP1 SLOAD PUSH32 0xFFFFFFFFFFFFFFFFFFFFFFFF0000000000000000000000000000000000000000 AND PUSH20 0xFFFFFFFFFFFFFFFFFFFFFFFFFFFFFFFFFFFFFFFF SWAP3 SWAP1 SWAP3 AND SWAP2 SWAP1 SWAP2 OR SWAP1 SSTORE JUMP JUMPDEST PUSH1 0x0 PUSH2 0x558 DUP3 PUSH2 0x92D JUMP JUMPDEST SWAP3 SWAP2 POP POP JUMP JUMPDEST PUSH1 0x60 CALLER ADDRESS EQ DUP1 PUSH2 0x585 JUMPI POP PUSH1 0x0 SLOAD PUSH20 0xFFFFFFFFFFFFFFFFFFFFFFFFFFFFFFFFFFFFFFFF AND CALLER EQ JUMPDEST PUSH2 0x58E JUMPI PUSH1 0x0 DUP1 REVERT JUMPDEST PUSH2 0x598 DUP4 DUP4 PUSH2 0x997 JUMP JUMPDEST SWAP4 SWAP3 POP POP POP JUMP JUMPDEST PUSH1 0x0 CALLER ADDRESS EQ DUP1 PUSH2 0x5C6 JUMPI POP PUSH1 0x0 SLOAD PUSH20 0xFFFFFFFFFFFFFFFFFFFFFFFFFFFFFFFFFFFFFFFF AND CALLER EQ JUMPDEST PUSH2 0x5CF JUMPI PUSH1 0x0 DUP1 REVERT JUMPDEST PUSH2 0x598 DUP4 DUP4 PUSH2 0xAF3 JUMP JUMPDEST PUSH1 0x0 CALLER ADDRESS EQ DUP1 PUSH2 0x600 JUMPI POP PUSH1 0x0 SLOAD PUSH20 0xFFFFFFFFFFFFFFFFFFFFFFFFFFFFFFFFFFFFFFFF AND CALLER EQ JUMPDEST PUSH2 0x609 JUMPI PUSH1 0x0 DUP1 REVERT JUMPDEST PUSH2 0x558 DUP3 PUSH2 0xB6B JUMP JUMPDEST PUSH1 0x0 CALLER ADDRESS EQ DUP1 PUSH2 0x639 JUMPI POP PUSH1 0x0 SLOAD PUSH20 0xFFFFFFFFFFFFFFFFFFFFFFFFFFFFFFFFFFFFFFFF AND CALLER EQ JUMPDEST PUSH2 0x642 JUMPI PUSH1 0x0 DUP1 REVERT JUMPDEST PUSH2 0x64E DUP6 DUP6 DUP6 DUP6 PUSH2 0xC2A JUMP JUMPDEST SWAP6 SWAP5 POP POP POP POP POP JUMP JUMPDEST PUSH1 0x60 PUSH1 0x1 DUP1 SLOAD DUP1 PUSH1 0x20 MUL PUSH1 0x20 ADD PUSH1 0x40 MLOAD SWAP1 DUP2 ADD PUSH1 0x40 MSTORE DUP1 SWAP3 SWAP2 SWAP1 DUP2 DUP2 MSTORE PUSH1 0x20 ADD DUP3 DUP1 SLOAD DUP1 ISZERO PUSH2 0x6A5 JUMPI PUSH1 0x20 MUL DUP3 ADD SWAP2 SWAP1 PUSH1 0x0 MSTORE PUSH1 0x20 PUSH1 0x0 KECCAK256 SWAP1 JUMPDEST DUP2 SLOAD DUP2 MSTORE PUSH1 0x20 ADD SWAP1 PUSH1 0x1 ADD SWAP1 DUP1 DUP4 GT PUSH2 0x691 JUMPI JUMPDEST POP POP POP POP POP SWAP1 POP SWAP1 JUMP JUMPDEST PUSH1 0x0 CALLER ADDRESS EQ DUP1 PUSH2 0x6D6 JUMPI POP PUSH1 0x0 SLOAD PUSH20 0xFFFFFFFFFFFFFFFFFFFFFFFFFFFFFFFFFFFFFFFF AND CALLER EQ JUMPDEST PUSH2 0x6DF JUMPI PUSH1 0x0 DUP1 REVERT JUMPDEST PUSH1 0x0 PUSH2 0x6EB DUP6 DUP6 PUSH2 0xAF3 JUMP JUMPDEST SWAP1 POP PUSH2 0x4D0 DUP4 DUP3 PUSH2 0xCD1 JUMP JUMPDEST CALLER ADDRESS EQ DUP1 PUSH2 0x71C JUMPI POP PUSH1 0x0 SLOAD PUSH20 0xFFFFFFFFFFFFFFFFFFFFFFFFFFFFFFFFFFFFFFFF AND CALLER EQ JUMPDEST PUSH2 0x725 JUMPI PUSH1 0x0 DUP1 REVERT JUMPDEST PUSH2 0x730 DUP4 DUP4 DUP4 PUSH2 0xDB2 JUMP JUMPDEST POP POP POP JUMP JUMPDEST PUSH1 0x0 DUP2 DUP2 MSTORE PUSH1 0x3 PUSH1 0x20 MSTORE PUSH1 0x40 DUP2 KECCAK256 SLOAD PUSH20 0xFFFFFFFFFFFFFFFFFFFFFFFFFFFFFFFFFFFFFFFF AND PUSH2 0x558 JUMP JUMPDEST PUSH1 0x40 DUP1 MLOAD PUSH32 0xFF00000000000000000000000000000000000000000000000000000000000000 PUSH1 0x20 DUP1 DUP4 ADD SWAP2 SWAP1 SWAP2 MSTORE ADDRESS PUSH1 0x60 SHL PUSH32 0xFFFFFFFFFFFFFFFFFFFFFFFFFFFFFFFFFFFFFFFF000000000000000000000000 AND PUSH1 0x21 DUP4 ADD MSTORE PUSH1 0x35 DUP3 ADD DUP8 SWAP1 MSTORE PUSH32 0x1C0BF703A3415CADA9785E89E9D70314C3111AE7D8E04F33BB42EB1D264088BE PUSH1 0x55 DUP1 DUP5 ADD SWAP2 SWAP1 SWAP2 MSTORE DUP4 MLOAD DUP1 DUP5 SUB SWAP1 SWAP2 ADD DUP2 MSTORE PUSH1 0x75 SWAP1 SWAP3 ADD SWAP1 SWAP3 MSTORE DUP1 MLOAD SWAP2 ADD KECCAK256 PUSH2 0x80A DUP2 DUP6 PUSH2 0xDE7 JUMP JUMPDEST PUSH1 0x0 PUSH2 0x815 DUP3 PUSH2 0x92D JUMP JUMPDEST SWAP1 POP DUP5 PUSH20 0xFFFFFFFFFFFFFFFFFFFFFFFFFFFFFFFFFFFFFFFF AND DUP2 PUSH20 0xFFFFFFFFFFFFFFFFFFFFFFFFFFFFFFFFFFFFFFFF AND EQ PUSH2 0x8A1 JUMPI PUSH1 0x40 MLOAD PUSH32 0x35DA668500000000000000000000000000000000000000000000000000000000 DUP2 MSTORE PUSH20 0xFFFFFFFFFFFFFFFFFFFFFFFFFFFFFFFFFFFFFFFF DUP1 DUP4 AND PUSH1 0x4 DUP4 ADD MSTORE DUP7 AND PUSH1 0x24 DUP3 ADD MSTORE PUSH1 0x44 ADD JUMPDEST PUSH1 0x40 MLOAD DUP1 SWAP2 SUB SWAP1 REVERT JUMPDEST PUSH2 0x8AC DUP3 DUP6 DUP6 PUSH2 0xDB2 JUMP JUMPDEST PUSH1 0x40 DUP1 MLOAD DUP8 DUP2 MSTORE PUSH20 0xFFFFFFFFFFFFFFFFFFFFFFFFFFFFFFFFFFFFFFFF DUP5 DUP2 AND PUSH1 0x20 DUP4 ADD MSTORE DUP8 AND DUP2 DUP4 ADD MSTORE SWAP1 MLOAD PUSH32 0x430FBFC2698F4E110D994ECF59C30881703DC7B8CD50BC5F12E4E48D21E144A3 SWAP2 DUP2 SWAP1 SUB PUSH1 0x60 ADD SWAP1 LOG1 POP POP POP POP POP POP JUMP JUMPDEST PUSH1 0x60 PUSH2 0x4D0 PUSH20 0xFFFFFFFFFFFFFFFFFFFFFFFFFFFFFFFFFFFFFFFF DUP6 AND DUP4 DUP6 PUSH2 0xE6F JUMP JUMPDEST PUSH1 0x0 DUP1 PUSH1 0x40 MLOAD DUP1 PUSH1 0x40 ADD PUSH1 0x40 MSTORE DUP1 PUSH1 0x5 DUP2 MSTORE PUSH1 0x20 ADD PUSH32 0xCBCAE703C000000000000000000000000000000000000000000000000000000 DUP2 MSTORE POP SWAP1 POP PUSH1 0x0 DUP1 DUP3 MLOAD PUSH1 0x20 DUP5 ADD DUP7 GAS STATICCALL PUSH1 0x40 MLOAD RETURNDATASIZE DUP2 ADD PUSH1 0x40 MSTORE RETURNDATASIZE PUSH1 0x0 DUP3 RETURNDATACOPY DUP2 PUSH2 0x98B JUMPI RETURNDATASIZE DUP2 REVERT JUMPDEST MLOAD PUSH1 0x60 SHR SWAP5 SWAP4 POP POP POP POP JUMP JUMPDEST PUSH1 0x60 DUP2 PUSH8 0xFFFFFFFFFFFFFFFF DUP2 GT ISZERO PUSH2 0x9B2 JUMPI PUSH2 0x9B2 PUSH2 0x150B JUMP JUMPDEST PUSH1 0x40 MLOAD SWAP1 DUP1 DUP3 MSTORE DUP1 PUSH1 0x20 MUL PUSH1 0x20 ADD DUP3 ADD PUSH1 0x40 MSTORE DUP1 ISZERO PUSH2 0x9E5 JUMPI DUP2 PUSH1 0x20 ADD JUMPDEST PUSH1 0x60 DUP2 MSTORE PUSH1 0x20 ADD SWAP1 PUSH1 0x1 SWAP1 SUB SWAP1 DUP2 PUSH2 0x9D0 JUMPI SWAP1 POP JUMPDEST POP SWAP1 POP PUSH1 0x0 JUMPDEST DUP3 DUP2 LT ISZERO PUSH2 0xAEC JUMPI PUSH2 0xABC DUP5 DUP5 DUP4 DUP2 DUP2 LT PUSH2 0xA08 JUMPI PUSH2 0xA08 PUSH2 0x153A JUMP JUMPDEST SWAP1 POP PUSH1 0x20 MUL DUP2 ADD SWAP1 PUSH2 0xA1A SWAP2 SWAP1 PUSH2 0x1569 JUMP JUMPDEST PUSH2 0xA28 SWAP1 PUSH1 0x20 DUP2 ADD SWAP1 PUSH2 0x1256 JUMP JUMPDEST DUP6 DUP6 DUP5 DUP2 DUP2 LT PUSH2 0xA3A JUMPI PUSH2 0xA3A PUSH2 0x153A JUMP JUMPDEST SWAP1 POP PUSH1 0x20 MUL DUP2 ADD SWAP1 PUSH2 0xA4C SWAP2 SWAP1 PUSH2 0x1569 JUMP JUMPDEST PUSH1 0x20 ADD CALLDATALOAD DUP7 DUP7 DUP6 DUP2 DUP2 LT PUSH2 0xA62 JUMPI PUSH2 0xA62 PUSH2 0x153A JUMP JUMPDEST SWAP1 POP PUSH1 0x20 MUL DUP2 ADD SWAP1 PUSH2 0xA74 SWAP2 SWAP1 PUSH2 0x1569 JUMP JUMPDEST PUSH2 0xA82 SWAP1 PUSH1 0x40 DUP2 ADD SWAP1 PUSH2 0x15A7 JUMP JUMPDEST DUP1 DUP1 PUSH1 0x1F ADD PUSH1 0x20 DUP1 SWAP2 DIV MUL PUSH1 0x20 ADD PUSH1 0x40 MLOAD SWAP1 DUP2 ADD PUSH1 0x40 MSTORE DUP1 SWAP4 SWAP3 SWAP2 SWAP1 DUP2 DUP2 MSTORE PUSH1 0x20 ADD DUP4 DUP4 DUP1 DUP3 DUP5 CALLDATACOPY PUSH1 0x0 SWAP3 ADD SWAP2 SWAP1 SWAP2 MSTORE POP PUSH2 0x90A SWAP3 POP POP POP JUMP JUMPDEST DUP3 DUP3 DUP2 MLOAD DUP2 LT PUSH2 0xACE JUMPI PUSH2 0xACE PUSH2 0x153A JUMP JUMPDEST PUSH1 0x20 MUL PUSH1 0x20 ADD ADD DUP2 SWAP1 MSTORE POP DUP1 DUP1 PUSH2 0xAE4 SWAP1 PUSH2 0x160C JUMP JUMPDEST SWAP2 POP POP PUSH2 0x9EB JUMP JUMPDEST POP SWAP3 SWAP2 POP POP JUMP JUMPDEST PUSH1 0x0 PUSH1 0x40 MLOAD DUP1 DUP4 DUP6 DUP3 CALLDATACOPY DUP4 ADD DUP2 DUP2 SUB DUP3 PUSH1 0x0 CREATE SWAP3 POP POP POP PUSH2 0xB1C PUSH2 0xB15 DUP3 EXTCODESIZE SWAP1 JUMP JUMPDEST ISZERO ISZERO PUSH2 0xE95 JUMP JUMPDEST PUSH1 0x40 MLOAD PUSH20 0xFFFFFFFFFFFFFFFFFFFFFFFFFFFFFFFFFFFFFFFF DUP3 AND DUP2 MSTORE PUSH32 0xD3ACF0DA590CFCD8F020AFD7F40B7E6E4C8BD2FC9EB7AEC9836837B667685B3A SWAP1 PUSH1 0x20 ADD PUSH1 0x40 MLOAD DUP1 SWAP2 SUB SWAP1 LOG1 SWAP3 SWAP2 POP POP JUMP JUMPDEST PUSH1 0x0 DUP1 PUSH32 0x0 SWAP1 POP DUP1 PUSH1 0x2 SSTORE PUSH1 0x40 MLOAD PUSH1 0x20 DUP2 ADD PUSH1 0x40 MSTORE PUSH23 0x6020363636335AFA1536363636515AF43D36363E3D36F3 PUSH1 0x48 SHL DUP2 MSTORE DUP4 PUSH1 0x17 DUP3 PUSH1 0x0 CREATE2 SWAP3 POP POP PUSH2 0xBD1 PUSH2 0xB15 DUP4 EXTCODESIZE SWAP1 JUMP JUMPDEST PUSH2 0xBDB DUP4 DUP4 PUSH2 0xCD1 JUMP JUMPDEST PUSH1 0x40 MLOAD PUSH20 0xFFFFFFFFFFFFFFFFFFFFFFFFFFFFFFFFFFFFFFFF DUP4 AND DUP2 MSTORE PUSH32 0x6690E5B52BE10A3D5820EC875C3DD3327F3077954A09F104201E40E5F7082C6 SWAP1 PUSH1 0x20 ADD PUSH1 0x40 MLOAD DUP1 SWAP2 SUB SWAP1 LOG1 POP SWAP2 SWAP1 POP JUMP JUMPDEST PUSH1 0x0 PUSH1 0x40 MLOAD DUP1 DUP4 DUP6 DUP3 CALLDATACOPY DUP4 ADD DUP6 DUP3 DUP3 SUB DUP4 DUP10 CREATE2 SWAP3 POP POP POP PUSH2 0xC4C PUSH2 0xB15 DUP3 EXTCODESIZE SWAP1 JUMP JUMPDEST PUSH1 0x1 DUP1 SLOAD DUP1 DUP3 ADD DUP3 SSTORE PUSH1 0x0 SWAP2 SWAP1 SWAP2 MSTORE PUSH32 0xB10E2D527612073B26EECDFD717E6A320CF44B4AFAC2B0732D9FCBE2B7FA0CF6 ADD DUP5 SWAP1 SSTORE PUSH1 0x40 MLOAD PUSH20 0xFFFFFFFFFFFFFFFFFFFFFFFFFFFFFFFFFFFFFFFF DUP3 AND DUP2 MSTORE PUSH32 0xD3ACF0DA590CFCD8F020AFD7F40B7E6E4C8BD2FC9EB7AEC9836837B667685B3A SWAP1 PUSH1 0x20 ADD PUSH1 0x40 MLOAD DUP1 SWAP2 SUB SWAP1 LOG1 SWAP5 SWAP4 POP POP POP POP JUMP JUMPDEST PUSH1 0x0 DUP3 DUP2 MSTORE PUSH1 0x3 PUSH1 0x20 MSTORE PUSH1 0x40 SWAP1 KECCAK256 SLOAD PUSH20 0xFFFFFFFFFFFFFFFFFFFFFFFFFFFFFFFFFFFFFFFF AND ISZERO PUSH2 0xD30 JUMPI PUSH1 0x40 MLOAD PUSH32 0xCD3B7FE100000000000000000000000000000000000000000000000000000000 DUP2 MSTORE PUSH1 0x4 DUP2 ADD DUP4 SWAP1 MSTORE PUSH1 0x24 ADD PUSH2 0x898 JUMP JUMPDEST PUSH1 0x1 DUP1 SLOAD DUP1 DUP3 ADD SWAP1 SWAP2 SSTORE PUSH32 0xB10E2D527612073B26EECDFD717E6A320CF44B4AFAC2B0732D9FCBE2B7FA0CF6 ADD DUP3 SWAP1 SSTORE PUSH1 0x0 SWAP2 DUP3 MSTORE PUSH1 0x3 PUSH1 0x20 MSTORE PUSH1 0x40 SWAP1 SWAP2 KECCAK256 DUP1 SLOAD PUSH32 0xFFFFFFFFFFFFFFFFFFFFFFFF0000000000000000000000000000000000000000 AND PUSH20 0xFFFFFFFFFFFFFFFFFFFFFFFFFFFFFFFFFFFFFFFF SWAP1 SWAP3 AND SWAP2 SWAP1 SWAP2 OR SWAP1 SSTORE JUMP JUMPDEST DUP1 ISZERO PUSH2 0x730 JUMPI PUSH1 0x40 MLOAD DUP1 DUP3 ADD PUSH1 0x40 MSTORE DUP2 DUP4 DUP3 CALLDATACOPY PUSH1 0x0 DUP1 DUP4 DUP4 PUSH1 0x0 DUP9 GAS CALL PUSH2 0x44D JUMPI PUSH1 0x40 MLOAD SWAP1 POP DUP1 RETURNDATASIZE ADD PUSH1 0x40 MSTORE RETURNDATASIZE PUSH1 0x0 DUP3 RETURNDATACOPY RETURNDATASIZE DUP2 REVERT JUMPDEST PUSH1 0x40 MLOAD PUSH32 0xCA11C0DE11000000000000000000000000000000000000000000000000000000 PUSH1 0x20 DUP3 ADD MSTORE PUSH20 0xFFFFFFFFFFFFFFFFFFFFFFFFFFFFFFFFFFFFFFFF DUP3 AND PUSH1 0x25 DUP3 ADD MSTORE PUSH1 0x0 SWAP1 PUSH1 0x45 ADD PUSH1 0x40 MLOAD PUSH1 0x20 DUP2 DUP4 SUB SUB DUP2 MSTORE SWAP1 PUSH1 0x40 MSTORE SWAP1 POP PUSH1 0x0 DUP1 DUP3 MLOAD PUSH1 0x20 DUP5 ADD PUSH1 0x0 DUP8 GAS CALL PUSH1 0x40 MLOAD RETURNDATASIZE DUP2 ADD PUSH1 0x40 MSTORE RETURNDATASIZE PUSH1 0x0 DUP3 RETURNDATACOPY DUP2 PUSH2 0xE68 JUMPI RETURNDATASIZE DUP2 REVERT JUMPDEST POP POP POP POP POP JUMP JUMPDEST PUSH1 0x60 PUSH2 0x4D0 DUP5 DUP5 DUP5 PUSH1 0x40 MLOAD DUP1 PUSH1 0x60 ADD PUSH1 0x40 MSTORE DUP1 PUSH1 0x29 DUP2 MSTORE PUSH1 0x20 ADD PUSH2 0x167E PUSH1 0x29 SWAP2 CODECOPY PUSH2 0xECF JUMP JUMPDEST DUP1 PUSH2 0xECC JUMPI PUSH1 0x40 MLOAD PUSH32 0x5E393B2600000000000000000000000000000000000000000000000000000000 DUP2 MSTORE PUSH1 0x4 ADD PUSH1 0x40 MLOAD DUP1 SWAP2 SUB SWAP1 REVERT JUMPDEST POP JUMP JUMPDEST PUSH1 0x60 DUP3 SELFBALANCE LT ISZERO PUSH2 0xF61 JUMPI PUSH1 0x40 MLOAD PUSH32 0x8C379A000000000000000000000000000000000000000000000000000000000 DUP2 MSTORE PUSH1 0x20 PUSH1 0x4 DUP3 ADD MSTORE PUSH1 0x26 PUSH1 0x24 DUP3 ADD MSTORE PUSH32 0x416464726573733A20696E73756666696369656E742062616C616E636520666F PUSH1 0x44 DUP3 ADD MSTORE PUSH32 0x722063616C6C0000000000000000000000000000000000000000000000000000 PUSH1 0x64 DUP3 ADD MSTORE PUSH1 0x84 ADD PUSH2 0x898 JUMP JUMPDEST PUSH1 0x0 DUP1 DUP7 PUSH20 0xFFFFFFFFFFFFFFFFFFFFFFFFFFFFFFFFFFFFFFFF AND DUP6 DUP8 PUSH1 0x40 MLOAD PUSH2 0xF8A SWAP2 SWAP1 PUSH2 0x166B JUMP JUMPDEST PUSH1 0x0 PUSH1 0x40 MLOAD DUP1 DUP4 SUB DUP2 DUP6 DUP8 GAS CALL SWAP3 POP POP POP RETURNDATASIZE DUP1 PUSH1 0x0 DUP2 EQ PUSH2 0xFC7 JUMPI PUSH1 0x40 MLOAD SWAP2 POP PUSH1 0x1F NOT PUSH1 0x3F RETURNDATASIZE ADD AND DUP3 ADD PUSH1 0x40 MSTORE RETURNDATASIZE DUP3 MSTORE RETURNDATASIZE PUSH1 0x0 PUSH1 0x20 DUP5 ADD RETURNDATACOPY PUSH2 0xFCC JUMP JUMPDEST PUSH1 0x60 SWAP2 POP JUMPDEST POP SWAP2 POP SWAP2 POP PUSH2 0xFDD DUP8 DUP4 DUP4 DUP8 PUSH2 0xFE8 JUMP JUMPDEST SWAP8 SWAP7 POP POP POP POP POP POP POP JUMP JUMPDEST PUSH1 0x60 DUP4 ISZERO PUSH2 0x107E JUMPI DUP3 MLOAD PUSH1 0x0 SUB PUSH2 0x1077 JUMPI PUSH20 0xFFFFFFFFFFFFFFFFFFFFFFFFFFFFFFFFFFFFFFFF DUP6 AND EXTCODESIZE PUSH2 0x1077 JUMPI PUSH1 0x40 MLOAD PUSH32 0x8C379A000000000000000000000000000000000000000000000000000000000 DUP2 MSTORE PUSH1 0x20 PUSH1 0x4 DUP3 ADD MSTORE PUSH1 0x1D PUSH1 0x24 DUP3 ADD MSTORE PUSH32 0x416464726573733A2063616C6C20746F206E6F6E2D636F6E7472616374000000 PUSH1 0x44 DUP3 ADD MSTORE PUSH1 0x64 ADD PUSH2 0x898 JUMP JUMPDEST POP DUP2 PUSH2 0x4D0 JUMP JUMPDEST PUSH2 0x4D0 DUP4 DUP4 DUP2 MLOAD ISZERO PUSH2 0x1093 JUMPI DUP2 MLOAD DUP1 DUP4 PUSH1 0x20 ADD REVERT JUMPDEST DUP1 PUSH1 0x40 MLOAD PUSH32 0x8C379A000000000000000000000000000000000000000000000000000000000 DUP2 MSTORE PUSH1 0x4 ADD PUSH2 0x898 SWAP2 SWAP1 PUSH2 0x1243 JUMP JUMPDEST DUP1 CALLDATALOAD PUSH20 0xFFFFFFFFFFFFFFFFFFFFFFFFFFFFFFFFFFFFFFFF DUP2 AND DUP2 EQ PUSH2 0x10EB JUMPI PUSH1 0x0 DUP1 REVERT JUMPDEST SWAP2 SWAP1 POP JUMP JUMPDEST PUSH1 0x0 DUP1 DUP4 PUSH1 0x1F DUP5 ADD SLT PUSH2 0x1102 JUMPI PUSH1 0x0 DUP1 REVERT JUMPDEST POP DUP2 CALLDATALOAD PUSH8 0xFFFFFFFFFFFFFFFF DUP2 GT ISZERO PUSH2 0x111A JUMPI PUSH1 0x0 DUP1 REVERT JUMPDEST PUSH1 0x20 DUP4 ADD SWAP2 POP DUP4 PUSH1 0x20 DUP3 DUP6 ADD ADD GT ISZERO PUSH2 0x1132 JUMPI PUSH1 0x0 DUP1 REVERT JUMPDEST SWAP3 POP SWAP3 SWAP1 POP JUMP JUMPDEST PUSH1 0x0 DUP1 PUSH1 0x0 DUP1 PUSH1 0x60 DUP6 DUP8 SUB SLT ISZERO PUSH2 0x114F JUMPI PUSH1 0x0 DUP1 REVERT JUMPDEST DUP5 CALLDATALOAD SWAP4 POP PUSH2 0x115F PUSH1 0x20 DUP7 ADD PUSH2 0x10C7 JUMP JUMPDEST SWAP3 POP PUSH1 0x40 DUP6 ADD CALLDATALOAD PUSH8 0xFFFFFFFFFFFFFFFF DUP2 GT ISZERO PUSH2 0x117B JUMPI PUSH1 0x0 DUP1 REVERT JUMPDEST PUSH2 0x1187 DUP8 DUP3 DUP9 ADD PUSH2 0x10F0 JUMP JUMPDEST SWAP6 SWAP9 SWAP5 SWAP8 POP SWAP6 POP POP POP POP JUMP JUMPDEST PUSH1 0x0 DUP1 PUSH1 0x0 DUP1 PUSH1 0x60 DUP6 DUP8 SUB SLT ISZERO PUSH2 0x11A9 JUMPI PUSH1 0x0 DUP1 REVERT JUMPDEST PUSH2 0x11B2 DUP6 PUSH2 0x10C7 JUMP JUMPDEST SWAP4 POP PUSH1 0x20 DUP6 ADD CALLDATALOAD SWAP3 POP PUSH1 0x40 DUP6 ADD CALLDATALOAD PUSH8 0xFFFFFFFFFFFFFFFF DUP2 GT ISZERO PUSH2 0x117B JUMPI PUSH1 0x0 DUP1 REVERT JUMPDEST PUSH1 0x0 JUMPDEST DUP4 DUP2 LT ISZERO PUSH2 0x11F0 JUMPI DUP2 DUP2 ADD MLOAD DUP4 DUP3 ADD MSTORE PUSH1 0x20 ADD PUSH2 0x11D8 JUMP JUMPDEST POP POP PUSH1 0x0 SWAP2 ADD MSTORE JUMP JUMPDEST PUSH1 0x0 DUP2 MLOAD DUP1 DUP5 MSTORE PUSH2 0x1211 DUP2 PUSH1 0x20 DUP7 ADD PUSH1 0x20 DUP7 ADD PUSH2 0x11D5 JUMP JUMPDEST PUSH1 0x1F ADD PUSH32 0xFFFFFFFFFFFFFFFFFFFFFFFFFFFFFFFFFFFFFFFFFFFFFFFFFFFFFFFFFFFFFFE0 AND SWAP3 SWAP1 SWAP3 ADD PUSH1 0x20 ADD SWAP3 SWAP2 POP POP JUMP JUMPDEST PUSH1 0x20 DUP2 MSTORE PUSH1 0x0 PUSH2 0x598 PUSH1 0x20 DUP4 ADD DUP5 PUSH2 0x11F9 JUMP JUMPDEST PUSH1 0x0 PUSH1 0x20 DUP3 DUP5 SUB SLT ISZERO PUSH2 0x1268 JUMPI PUSH1 0x0 DUP1 REVERT JUMPDEST PUSH2 0x598 DUP3 PUSH2 0x10C7 JUMP JUMPDEST PUSH1 0x0 DUP1 PUSH1 0x20 DUP4 DUP6 SUB SLT ISZERO PUSH2 0x1284 JUMPI PUSH1 0x0 DUP1 REVERT JUMPDEST DUP3 CALLDATALOAD PUSH8 0xFFFFFFFFFFFFFFFF DUP1 DUP3 GT ISZERO PUSH2 0x129C JUMPI PUSH1 0x0 DUP1 REVERT JUMPDEST DUP2 DUP6 ADD SWAP2 POP DUP6 PUSH1 0x1F DUP4 ADD SLT PUSH2 0x12B0 JUMPI PUSH1 0x0 DUP1 REVERT JUMPDEST DUP2 CALLDATALOAD DUP2 DUP2 GT ISZERO PUSH2 0x12BF JUMPI PUSH1 0x0 DUP1 REVERT JUMPDEST DUP7 PUSH1 0x20 DUP3 PUSH1 0x5 SHL DUP6 ADD ADD GT ISZERO PUSH2 0x12D4 JUMPI PUSH1 0x0 DUP1 REVERT JUMPDEST PUSH1 0x20 SWAP3 SWAP1 SWAP3 ADD SWAP7 SWAP2 SWAP6 POP SWAP1 SWAP4 POP POP POP POP JUMP JUMPDEST PUSH1 0x0 PUSH1 0x20 DUP1 DUP4 ADD DUP2 DUP5 MSTORE DUP1 DUP6 MLOAD DUP1 DUP4 MSTORE PUSH1 0x40 DUP7 ADD SWAP2 POP PUSH1 0x40 DUP2 PUSH1 0x5 SHL DUP8 ADD ADD SWAP3 POP DUP4 DUP8 ADD PUSH1 0x0 JUMPDEST DUP3 DUP2 LT ISZERO PUSH2 0x1359 JUMPI PUSH32 0xFFFFFFFFFFFFFFFFFFFFFFFFFFFFFFFFFFFFFFFFFFFFFFFFFFFFFFFFFFFFFFC0 DUP9 DUP7 SUB ADD DUP5 MSTORE PUSH2 0x1347 DUP6 DUP4 MLOAD PUSH2 0x11F9 JUMP JUMPDEST SWAP5 POP SWAP3 DUP6 ADD SWAP3 SWAP1 DUP6 ADD SWAP1 PUSH1 0x1 ADD PUSH2 0x130D JUMP JUMPDEST POP SWAP3 SWAP8 SWAP7 POP POP POP POP POP POP POP JUMP JUMPDEST PUSH1 0x0 DUP1 PUSH1 0x20 DUP4 DUP6 SUB SLT ISZERO PUSH2 0x1379 JUMPI PUSH1 0x0 DUP1 REVERT JUMPDEST DUP3 CALLDATALOAD PUSH8 0xFFFFFFFFFFFFFFFF DUP2 GT ISZERO PUSH2 0x1390 JUMPI PUSH1 0x0 DUP1 REVERT JUMPDEST PUSH2 0x139C DUP6 DUP3 DUP7 ADD PUSH2 0x10F0 JUMP JUMPDEST SWAP1 SWAP7 SWAP1 SWAP6 POP SWAP4 POP POP POP POP JUMP JUMPDEST PUSH1 0x0 PUSH1 0x20 DUP3 DUP5 SUB SLT ISZERO PUSH2 0x13BA JUMPI PUSH1 0x0 DUP1 REVERT JUMPDEST POP CALLDATALOAD SWAP2 SWAP1 POP JUMP JUMPDEST PUSH1 0x0 DUP1 PUSH1 0x0 DUP1 PUSH1 0x60 DUP6 DUP8 SUB SLT ISZERO PUSH2 0x13D7 JUMPI PUSH1 0x0 DUP1 REVERT JUMPDEST DUP5 CALLDATALOAD SWAP4 POP PUSH1 0x20 DUP6 ADD CALLDATALOAD SWAP3 POP PUSH1 0x40 DUP6 ADD CALLDATALOAD PUSH8 0xFFFFFFFFFFFFFFFF DUP2 GT ISZERO PUSH2 0x117B JUMPI PUSH1 0x0 DUP1 REVERT JUMPDEST PUSH1 0x20 DUP1 DUP3 MSTORE DUP3 MLOAD DUP3 DUP3 ADD DUP2 SWAP1 MSTORE PUSH1 0x0 SWAP2 SWAP1 DUP5 DUP3 ADD SWAP1 PUSH1 0x40 DUP6 ADD SWAP1 DUP5 JUMPDEST DUP2 DUP2 LT ISZERO PUSH2 0x1434 JUMPI DUP4 MLOAD DUP4 MSTORE SWAP3 DUP5 ADD SWAP3 SWAP2 DUP5 ADD SWAP2 PUSH1 0x1 ADD PUSH2 0x1418 JUMP JUMPDEST POP SWAP1 SWAP7 SWAP6 POP POP POP POP POP POP JUMP JUMPDEST PUSH1 0x0 DUP1 PUSH1 0x40 DUP4 DUP6 SUB SLT ISZERO PUSH2 0x1453 JUMPI PUSH1 0x0 DUP1 REVERT JUMPDEST DUP3 CALLDATALOAD SWAP2 POP PUSH2 0x1463 PUSH1 0x20 DUP5 ADD PUSH2 0x10C7 JUMP JUMPDEST SWAP1 POP SWAP3 POP SWAP3 SWAP1 POP JUMP JUMPDEST PUSH1 0x0 DUP1 PUSH1 0x0 PUSH1 0x40 DUP5 DUP7 SUB SLT ISZERO PUSH2 0x1481 JUMPI PUSH1 0x0 DUP1 REVERT JUMPDEST DUP4 CALLDATALOAD PUSH8 0xFFFFFFFFFFFFFFFF DUP2 GT ISZERO PUSH2 0x1498 JUMPI PUSH1 0x0 DUP1 REVERT JUMPDEST PUSH2 0x14A4 DUP7 DUP3 DUP8 ADD PUSH2 0x10F0 JUMP JUMPDEST SWAP1 SWAP8 SWAP1 SWAP7 POP PUSH1 0x20 SWAP6 SWAP1 SWAP6 ADD CALLDATALOAD SWAP5 SWAP4 POP POP POP POP JUMP JUMPDEST PUSH1 0x0 DUP1 PUSH1 0x0 PUSH1 0x40 DUP5 DUP7 SUB SLT ISZERO PUSH2 0x14CD JUMPI PUSH1 0x0 DUP1 REVERT JUMPDEST PUSH2 0x14D6 DUP5 PUSH2 0x10C7 JUMP JUMPDEST SWAP3 POP PUSH1 0x20 DUP5 ADD CALLDATALOAD PUSH8 0xFFFFFFFFFFFFFFFF DUP2 GT ISZERO PUSH2 0x14F2 JUMPI PUSH1 0x0 DUP1 REVERT JUMPDEST PUSH2 0x14FE DUP7 DUP3 DUP8 ADD PUSH2 0x10F0 JUMP JUMPDEST SWAP5 SWAP8 SWAP1 SWAP7 POP SWAP4 SWAP5 POP POP POP POP JUMP JUMPDEST PUSH32 0x4E487B7100000000000000000000000000000000000000000000000000000000 PUSH1 0x0 MSTORE PUSH1 0x41 PUSH1 0x4 MSTORE PUSH1 0x24 PUSH1 0x0 REVERT JUMPDEST PUSH32 0x4E487B7100000000000000000000000000000000000000000000000000000000 PUSH1 0x0 MSTORE PUSH1 0x32 PUSH1 0x4 MSTORE PUSH1 0x24 PUSH1 0x0 REVERT JUMPDEST PUSH1 0x0 DUP3 CALLDATALOAD PUSH32 0xFFFFFFFFFFFFFFFFFFFFFFFFFFFFFFFFFFFFFFFFFFFFFFFFFFFFFFFFFFFFFFA1 DUP4 CALLDATASIZE SUB ADD DUP2 SLT PUSH2 0x159D JUMPI PUSH1 0x0 DUP1 REVERT JUMPDEST SWAP2 SWAP1 SWAP2 ADD SWAP3 SWAP2 POP POP JUMP JUMPDEST PUSH1 0x0 DUP1 DUP4 CALLDATALOAD PUSH32 0xFFFFFFFFFFFFFFFFFFFFFFFFFFFFFFFFFFFFFFFFFFFFFFFFFFFFFFFFFFFFFFE1 DUP5 CALLDATASIZE SUB ADD DUP2 SLT PUSH2 0x15DC JUMPI PUSH1 0x0 DUP1 REVERT JUMPDEST DUP4 ADD DUP1 CALLDATALOAD SWAP2 POP PUSH8 0xFFFFFFFFFFFFFFFF DUP3 GT ISZERO PUSH2 0x15F7 JUMPI PUSH1 0x0 DUP1 REVERT JUMPDEST PUSH1 0x20 ADD SWAP2 POP CALLDATASIZE DUP2 SWAP1 SUB DUP3 SGT ISZERO PUSH2 0x1132 JUMPI PUSH1 0x0 DUP1 REVERT JUMPDEST PUSH1 0x0 PUSH32 0xFFFFFFFFFFFFFFFFFFFFFFFFFFFFFFFFFFFFFFFFFFFFFFFFFFFFFFFFFFFFFFFF DUP3 SUB PUSH2 0x1664 JUMPI PUSH32 0x4E487B7100000000000000000000000000000000000000000000000000000000 PUSH1 0x0 MSTORE PUSH1 0x11 PUSH1 0x4 MSTORE PUSH1 0x24 PUSH1 0x0 REVERT JUMPDEST POP PUSH1 0x1 ADD SWAP1 JUMP JUMPDEST PUSH1 0x0 DUP3 MLOAD PUSH2 0x159D DUP2 DUP5 PUSH1 0x20 DUP8 ADD PUSH2 0x11D5 JUMP INVALID COINBASE PUSH5 0x6472657373 GASPRICE KECCAK256 PUSH13 0x6F772D6C6576656C2063616C6C KECCAK256 PUSH24 0x6974682076616C7565206661696C6564A264697066735822 SLT KECCAK256 STOP EXTCODECOPY 0x5F 0xE5 EXP PUSH5 0x76C15B6846 PUSH12 0x33E357AEEC3B96721A66A5EF EXTCODEHASH 0x2F 0x26 ADDMOD 0xED 0x4A ADDRESS GASPRICE PUSH5 0x736F6C6343 STOP ADDMOD GT STOP CALLER PUSH1 0xA0 PUSH1 0x40 MSTORE CALLVALUE DUP1 ISZERO PUSH2 0x10 JUMPI PUSH1 0x0 DUP1 REVERT JUMPDEST POP CALLER PUSH1 0x80 MSTORE PUSH1 0x80 MLOAD PUSH2 0x2AC PUSH2 0x2F PUSH1 0x0 CODECOPY PUSH1 0x0 PUSH1 0x1B ADD MSTORE PUSH2 0x2AC PUSH1 0x0 RETURN INVALID PUSH1 0x80 PUSH1 0x40 MSTORE CALLDATASIZE PUSH2 0x13 JUMPI PUSH2 0x11 PUSH2 0x17 JUMP JUMPDEST STOP JUMPDEST PUSH2 0x11 JUMPDEST PUSH1 0x0 PUSH32 0x0 SWAP1 POP PUSH1 0x5 CALLDATASIZE EQ PUSH1 0x25 CALLDATASIZE EQ OR ISZERO PUSH2 0x127 JUMPI PUSH1 0x0 CALLDATALOAD PUSH1 0xD8 SHR DUP1 PUSH5 0xCBCAE703C DUP2 EQ PUSH2 0x99 JUMPI PUSH5 0xCA11C0DE11 DUP2 EQ PUSH2 0xEA JUMPI PUSH2 0x94 PUSH1 0x12 PUSH32 0x66756E6374696F6E206E6F7420666F756E640000000000000000000000000000 PUSH2 0x132 JUMP JUMPDEST PUSH2 0x124 JUMP JUMPDEST PUSH1 0x40 MLOAD PUSH32 0xFFFFFFFFFFFFFFFFFFFFFFFFFFFFFFFFFFFFFFFFFFFFFFFFFFFFFFFFFFFFFFFF SLOAD PUSH1 0x60 SHL PUSH32 0xFFFFFFFFFFFFFFFFFFFFFFFFFFFFFFFFFFFFFFFF000000000000000000000000 AND DUP2 MSTORE PUSH1 0x14 DUP2 RETURN JUMPDEST DUP3 CALLER EQ PUSH2 0x11C JUMPI PUSH2 0x11C PUSH1 0xC PUSH32 0x756E617574686F72697A65640000000000000000000000000000000000000000 PUSH2 0x132 JUMP JUMPDEST PUSH2 0x124 PUSH2 0x177 JUMP JUMPDEST POP POP JUMPDEST PUSH2 0x12F PUSH2 0x1FA JUMP JUMPDEST POP JUMP JUMPDEST PUSH1 0x40 MLOAD PUSH32 0x8C379A000000000000000000000000000000000000000000000000000000000 DUP2 MSTORE PUSH1 0x20 PUSH1 0x4 DUP3 ADD MSTORE PUSH1 0x24 DUP2 ADD DUP4 SWAP1 MSTORE PUSH1 0x44 DUP2 ADD DUP3 SWAP1 MSTORE PUSH1 0x64 DUP1 DUP3 ADD SWAP2 SWAP1 DUP2 REVERT JUMPDEST PUSH12 0xCA11C0DE15DEAD10DEADC0DE PUSH1 0x0 NOT SLOAD PUSH1 0xA0 SHR SUB PUSH2 0x1BB JUMPI PUSH2 0x1BB PUSH1 0xD PUSH32 0x757064617465206C6F636B656400000000000000000000000000000000000000 PUSH2 0x132 JUMP JUMPDEST PUSH20 0xFFFFFFFFFFFFFFFFFFFFFFFFFFFFFFFFFFFFFFFF PUSH1 0x5 CALLDATALOAD AND PUSH32 0xFFFFFFFFFFFFFFFFFFFFFFFFFFFFFFFFFFFFFFFFFFFFFFFFFFFFFFFFFFFFFFFF DUP2 SWAP1 SSTORE STOP JUMPDEST PUSH32 0xFFFFFFFFFFFFFFFFFFFFFFFFFFFFFFFFFFFFFFFFFFFFFFFFFFFFFFFFFFFFFFFF SLOAD DUP1 PUSH2 0x24C JUMPI PUSH2 0x24C PUSH1 0xD PUSH32 0x6C6F676963206E6F742073657400000000000000000000000000000000000000 PUSH2 0x132 JUMP JUMPDEST PUSH1 0x40 MLOAD CALLDATASIZE DUP2 ADD PUSH1 0x40 MSTORE CALLDATASIZE PUSH1 0x0 DUP3 CALLDATACOPY PUSH1 0x0 DUP1 CALLDATASIZE DUP4 DUP6 GAS DELEGATECALL SWAP2 POP RETURNDATASIZE PUSH1 0x0 DUP3 RETURNDATACOPY DUP2 PUSH2 0x272 JUMPI RETURNDATASIZE DUP2 REVERT JUMPDEST RETURNDATASIZE DUP2 RETURN INVALID LOG2 PUSH5 0x6970667358 0x22 SLT KECCAK256 ADDMOD 0xCB LOG2 0xE7 PUSH30 0x14C8CDBF42884951755ADCA3DF49C0B7F5DBF6714F8FF7438492A564736F PUSH13 0x63430008110033000000000000 "},"gasEstimates":{"creation":{"codeDepositCost":"1170400","executionCost":"infinite","totalCost":"infinite"},"external":{"":"infinite","callAny(address,uint256,bytes)":"infinite","contracts()":"infinite","deployCreate(bytes)":"infinite","deployCreate2(uint256,bytes32,bytes)":"infinite","deployCreateAndRegister(bytes,bytes32)":"infinite","deployProxy(bytes32)":"infinite","getImplementation()":"2396","getMetamorphicContractAddress(bytes32,address)":"648","getNumContracts()":"2324","getProxyImplementation(address)":"infinite","initializeContract(address,bytes)":"infinite","lookup(bytes32)":"2572","multiCall((address,uint256,bytes)[])":"infinite","owner()":"2374","setOwner(address)":"26754","upgradeProxy(bytes32,address,bytes)":"infinite"}},"methodIdentifiers":{"callAny(address,uint256,bytes)":"12e6bf6a","contracts()":"6c0f79b6","deployCreate(bytes)":"27fe1822","deployCreate2(uint256,bytes32,bytes)":"56f2a761","deployCreateAndRegister(bytes,bytes32)":"c56ca9ed","deployProxy(bytes32)":"39cab472","getImplementation()":"aaf10f42","getMetamorphicContractAddress(bytes32,address)":"8653a465","getNumContracts()":"cfe10b30","getProxyImplementation(address)":"204e1c7a","initializeContract(address,bytes)":"e1d7a8e4","lookup(bytes32)":"f39ec1f7","multiCall((address,uint256,bytes)[])":"248b1701","owner()":"8da5cb5b","setOwner(address)":"13af4035","upgradeProxy(bytes32,address,bytes)":"043c9414"}},"storageLayout":{"storage":[{"astId":660,"contract":"contracts/ProxyFactory.sol:ProxyFactory","label":"_owner","offset":0,"slot":"0","type":"t_address"},{"astId":664,"contract":"contracts/ProxyFactory.sol:ProxyFactory","label":"_contracts","offset":0,"slot":"1","type":"t_array(t_bytes32)dyn_storage"},{"astId":667,"contract":"contracts/ProxyFactory.sol:ProxyFactory","label":"_implementation","offset":0,"slot":"2","type":"t_address"},{"astId":676,"contract":"contracts/ProxyFactory.sol:ProxyFactory","label":"_contractRegistry","offset":0,"slot":"3","type":"t_mapping(t_bytes32,t_address)"}],"types":{"t_address":{"encoding":"inplace","label":"address","numberOfBytes":"20"},"t_array(t_bytes32)dyn_storage":{"base":"t_bytes32","encoding":"dynamic_array","label":"bytes32[]","numberOfBytes":"32"},"t_bytes32":{"encoding":"inplace","label":"bytes32","numberOfBytes":"32"},"t_mapping(t_bytes32,t_address)":{"encoding":"mapping","key":"t_bytes32","label":"mapping(bytes32 => address)","numberOfBytes":"32","value":"t_address"}}},"userdoc":{"kind":"user","methods":{"callAny(address,uint256,bytes)":{"notice":"callAny allows EOA to call function impersonating the factory address"},"deployCreate(bytes)":{"notice":"deployCreate allows the owner to deploy raw contracts through the factory using non-deterministic address generation (create OpCode)"},"deployCreateAndRegister(bytes,bytes32)":{"notice":"allows the owner to deploy contracts through the factory using non-deterministic address generation and record the address to external contract mapping"},"getProxyImplementation(address)":{"notice":"getter function for retrieving the implementation address of an AliceNet proxy."},"lookup(bytes32)":{"notice":"lookup allows anyone interacting with the contract to get the address of contract specified by its salt_"}},"version":1}}}}