{
  "contracts/ProxyFactory.sol": {
    "ProxyFactory": {
      "abi": [
        {
          "inputs": [],
          "stateMutability": "nonpayable",
          "type": "constructor"
        },
        {
          "anonymous": false,
          "inputs": [
            {
              "indexed": false,
              "internalType": "bytes32",
              "name": "salt",
              "type": "bytes32"
            },
            {
              "indexed": false,
              "internalType": "address",
              "name": "contractAddr",
              "type": "address"
            }
          ],
          "name": "Deployed",
          "type": "event"
        },
        {
          "anonymous": false,
          "inputs": [
            {
              "indexed": false,
              "internalType": "address",
              "name": "contractAddr",
              "type": "address"
            }
          ],
          "name": "DeployedProxy",
          "type": "event"
        },
        {
          "anonymous": false,
          "inputs": [
            {
              "indexed": false,
              "internalType": "address",
              "name": "contractAddr",
              "type": "address"
            }
          ],
          "name": "DeployedRaw",
          "type": "event"
        },
        {
          "anonymous": false,
          "inputs": [
            {
              "indexed": false,
              "internalType": "address",
              "name": "contractAddr",
              "type": "address"
            }
          ],
          "name": "DeployedStatic",
          "type": "event"
        },
        {
          "anonymous": false,
          "inputs": [
            {
              "indexed": false,
              "internalType": "address",
              "name": "contractAddr",
              "type": "address"
            }
          ],
          "name": "DeployedTemplate",
          "type": "event"
        },
        {
          "stateMutability": "nonpayable",
          "type": "fallback"
        },
        {
          "inputs": [
            {
              "internalType": "address",
              "name": "target_",
              "type": "address"
            },
            {
              "internalType": "uint256",
              "name": "value_",
              "type": "uint256"
            },
            {
              "internalType": "bytes",
              "name": "cdata_",
              "type": "bytes"
            }
          ],
          "name": "callAny",
          "outputs": [],
          "stateMutability": "payable",
          "type": "function"
        },
        {
          "inputs": [],
          "name": "contracts",
          "outputs": [
            {
              "internalType": "bytes32[]",
              "name": "contracts_",
              "type": "bytes32[]"
            }
          ],
          "stateMutability": "view",
          "type": "function"
        },
        {
          "inputs": [
            {
              "internalType": "address",
              "name": "target_",
              "type": "address"
            },
            {
              "internalType": "bytes",
              "name": "cdata_",
              "type": "bytes"
            }
          ],
          "name": "delegateCallAny",
          "outputs": [],
          "stateMutability": "payable",
          "type": "function"
        },
        {
          "inputs": [],
          "name": "delegator",
          "outputs": [
            {
              "internalType": "address",
              "name": "delegator_",
              "type": "address"
            }
          ],
          "stateMutability": "view",
          "type": "function"
        },
        {
          "inputs": [
            {
              "internalType": "bytes",
              "name": "deployCode_",
              "type": "bytes"
            }
          ],
          "name": "deployCreate",
          "outputs": [
            {
              "internalType": "address",
              "name": "contractAddr",
              "type": "address"
            }
          ],
          "stateMutability": "nonpayable",
          "type": "function"
        },
        {
          "inputs": [
            {
              "internalType": "uint256",
              "name": "value_",
              "type": "uint256"
            },
            {
              "internalType": "bytes32",
              "name": "salt_",
              "type": "bytes32"
            },
            {
              "internalType": "bytes",
              "name": "deployCode_",
              "type": "bytes"
            }
          ],
          "name": "deployCreate2",
          "outputs": [
            {
              "internalType": "address",
              "name": "contractAddr",
              "type": "address"
            }
          ],
          "stateMutability": "payable",
          "type": "function"
        },
        {
          "inputs": [
            {
              "internalType": "bytes32",
              "name": "salt_",
              "type": "bytes32"
            }
          ],
          "name": "deployProxy",
          "outputs": [
            {
              "internalType": "address",
              "name": "contractAddr",
              "type": "address"
            }
          ],
          "stateMutability": "nonpayable",
          "type": "function"
        },
        {
          "inputs": [
            {
              "internalType": "bytes32",
              "name": "salt_",
              "type": "bytes32"
            },
            {
              "internalType": "bytes",
              "name": "initCallData_",
              "type": "bytes"
            }
          ],
          "name": "deployStatic",
          "outputs": [
            {
              "internalType": "address",
              "name": "contractAddr",
              "type": "address"
            }
          ],
          "stateMutability": "nonpayable",
          "type": "function"
        },
        {
          "inputs": [
            {
              "internalType": "bytes",
              "name": "deployCode_",
              "type": "bytes"
            }
          ],
          "name": "deployTemplate",
          "outputs": [
            {
              "internalType": "address",
              "name": "contractAddr",
              "type": "address"
            }
          ],
          "stateMutability": "nonpayable",
          "type": "function"
        },
        {
          "inputs": [],
          "name": "getImplementation",
          "outputs": [
            {
              "internalType": "address",
              "name": "",
              "type": "address"
            }
          ],
          "stateMutability": "view",
          "type": "function"
        },
        {
          "inputs": [
            {
              "internalType": "bytes32",
              "name": "_salt",
              "type": "bytes32"
            },
            {
              "internalType": "address",
              "name": "_factory",
              "type": "address"
            }
          ],
          "name": "getMetamorphicContractAddress",
          "outputs": [
            {
              "internalType": "address",
              "name": "",
              "type": "address"
            }
          ],
          "stateMutability": "pure",
          "type": "function"
        },
        {
          "inputs": [],
          "name": "getNumContracts",
          "outputs": [
            {
              "internalType": "uint256",
              "name": "",
              "type": "uint256"
            }
          ],
          "stateMutability": "view",
          "type": "function"
        },
        {
          "inputs": [
            {
              "internalType": "address",
              "name": "contract_",
              "type": "address"
            },
            {
              "internalType": "bytes",
              "name": "initCallData_",
              "type": "bytes"
            }
          ],
          "name": "initializeContract",
          "outputs": [],
          "stateMutability": "nonpayable",
          "type": "function"
        },
        {
          "inputs": [
            {
              "internalType": "bytes32",
              "name": "salt_",
              "type": "bytes32"
            }
          ],
          "name": "lookup",
          "outputs": [
            {
              "internalType": "address",
              "name": "addr",
              "type": "address"
            }
          ],
          "stateMutability": "view",
          "type": "function"
        },
        {
          "inputs": [
            {
              "internalType": "bytes[]",
              "name": "cdata_",
              "type": "bytes[]"
            }
          ],
          "name": "multiCall",
          "outputs": [],
          "stateMutability": "nonpayable",
          "type": "function"
        },
        {
          "inputs": [],
          "name": "owner",
          "outputs": [
            {
              "internalType": "address",
              "name": "owner_",
              "type": "address"
            }
          ],
          "stateMutability": "view",
          "type": "function"
        },
        {
          "inputs": [
            {
              "internalType": "address",
              "name": "newDelegator_",
              "type": "address"
            }
          ],
          "name": "setDelegator",
          "outputs": [],
          "stateMutability": "nonpayable",
          "type": "function"
        },
        {
          "inputs": [
            {
              "internalType": "address",
              "name": "newImplementationAddress_",
              "type": "address"
            }
          ],
          "name": "setImplementation",
          "outputs": [],
          "stateMutability": "nonpayable",
          "type": "function"
        },
        {
          "inputs": [
            {
              "internalType": "address",
              "name": "newOwner_",
              "type": "address"
            }
          ],
          "name": "setOwner",
          "outputs": [],
          "stateMutability": "nonpayable",
          "type": "function"
        },
        {
          "inputs": [
            {
              "internalType": "bytes32",
              "name": "salt_",
              "type": "bytes32"
            },
            {
              "internalType": "address",
              "name": "newImpl_",
              "type": "address"
            },
            {
              "internalType": "bytes",
              "name": "initCallData_",
              "type": "bytes"
            }
          ],
          "name": "upgradeProxy",
          "outputs": [],
          "stateMutability": "nonpayable",
          "type": "function"
        }
      ],
      "devdoc": {
        "custom:salt": "ProxyFactory",
        "kind": "dev",
        "methods": {
          "callAny(address,uint256,bytes)": {
            "details": "callAny allows EOA to call function impersonating the factory address",
            "params": {
              "cdata_": ": Hex encoded state with function signature + arguments of the target function to be called",
              "target_": ": the address of the contract to be called",
              "value_": ": value in WEIs to send together the call"
            }
          },
          "constructor": {
            "details": "The constructor encodes the proxy deploy byte code with the _UNIVERSAL_DEPLOY_CODE at the head and the factory address at the tail, and deploys the proxy byte code using create OpCode. The result of this deployment will be a contract with the proxy contract deployment bytecode with its constructor at the head, runtime code in the body and constructor args at the tail. The constructor then sets proxyTemplate_ state var to the deployed proxy template address the deploy account will be set as the first owner of the factory."
          },
          "contracts()": {
            "details": "contracts is public getter that gets the array of salts associated with all the contracts deployed with this factory",
            "returns": {
              "contracts_": "the array of salts associated with all the contracts deployed with this factory"
            }
          },
          "delegateCallAny(address,bytes)": {
            "details": "delegateCallAny allows EOA to call a function in a contract without impersonating the factory",
            "params": {
              "cdata_": ": Hex encoded state with function signature + arguments of the target function to be called",
              "target_": ": the address of the contract to be called"
            }
          },
          "delegator()": {
            "details": "delegator is public getter function for the _delegator account address",
            "returns": {
              "delegator_": "address of the delegator account"
            }
          },
          "deployCreate(bytes)": {
            "details": "deployCreate allows the owner to deploy raw contracts through the factory using non-deterministic address generation (create OpCode)",
            "params": {
              "deployCode_": "Hex encoded state with the deployment code of the contract to be deployed + constructors' args (if any)"
            },
            "returns": {
              "contractAddr": "the deployed contract address"
            }
          },
          "deployCreate2(uint256,bytes32,bytes)": {
            "details": "deployCreate2 allows the owner to deploy contracts with deterministic address through the factory",
            "params": {
              "deployCode_": "Hex encoded state with the deployment code of the contract to be deployed + constructors' args (if any)",
              "salt_": "salt used to determine the final determinist address for the deployed contract",
              "value_": "endowment value in WEIS for the created contract"
            },
            "returns": {
              "contractAddr": "the deployed contract address"
            }
          },
          "deployProxy(bytes32)": {
            "details": "deployProxy deploys a proxy contract with upgradable logic. See Proxy.sol contract.",
            "params": {
              "salt_": "salt used to determine the final determinist address for the deployed contract"
            }
          },
          "deployStatic(bytes32,bytes)": {
            "details": "deployStatic finishes the deployment started with the deployTemplate of a contract with determinist address. This function call any initialize() function in the deployed contract in case the arguments are provided. Should be called after deployTemplate.",
            "params": {
              "initCallData_": "Hex encoded initialization function signature + parameters to initialize the deployed contract",
              "salt_": "salt used to determine the final determinist address for the deployed contract"
            },
            "returns": {
              "contractAddr": "the address of the deployed template contract"
            }
          },
          "deployTemplate(bytes)": {
            "details": "deployTemplate deploys a template contract with the universal code copy constructor that deploys the contract+constructorArgs defined in the deployCode_ as the contracts runtime code.",
            "params": {
              "deployCode_": "Hex encoded state with the deploymentCode + (constructor args appended if any)"
            },
            "returns": {
              "contractAddr": "the address of the deployed template contract"
            }
          },
          "getImplementation()": {
            "details": "getImplementation is public getter function for the _owner account address"
          },
          "getNumContracts()": {
            "details": "getNumContracts getter function for retrieving the total number of contracts deployed with this factory",
            "returns": {
              "_0": "the length of the contract array"
            }
          },
          "initializeContract(address,bytes)": {
            "details": "initializeContract allows the owner/delegator to initialize contracts deployed via factory",
            "params": {
              "contract_": "address of the contract that will be initialized",
              "initCallData_": "Hex encoded initialization function signature + parameters to initialize the deployed contract"
            }
          },
          "lookup(bytes32)": {
            "details": "lookup allows anyone interacting with the contract to get the address of contract specified by its name_",
            "params": {
              "salt_": ": Custom NatSpec tag @custom:salt at the top of the contract solidity file"
            }
          },
          "multiCall(bytes[])": {
            "details": "multiCall allows EOA to make multiple function calls within a single transaction impersonating the factory",
            "params": {
              "cdata_": ": array of hex encoded state with the function calls (function signature + arguments)"
            }
          },
          "owner()": {
            "details": "owner is public getter function for the _owner account address",
            "returns": {
              "owner_": "address of the owner account"
            }
          },
          "setDelegator(address)": {
            "details": "Sets the new delegator",
            "params": {
              "newDelegator_": ": address of the new delegator"
            }
          },
          "setImplementation(address)": {
            "details": "Sets a new implementation address",
            "params": {
              "newImplementationAddress_": ": address of the contract with the new implementation"
            }
          },
          "setOwner(address)": {
            "details": "Sets the new owner",
            "params": {
              "newOwner_": ": address of the new owner"
            }
          },
          "upgradeProxy(bytes32,address,bytes)": {
            "details": "upgradeProxy updates the implementation/logic address of an already deployed proxy contract.",
            "params": {
              "initCallData_": "Hex encoded initialization function signature + parameters to initialize the new implementation contract",
              "newImpl_": "address of the new contract that contains the new implementation logic",
              "salt_": "salt used to determine the final determinist address for the deployed proxy contract"
            }
          }
        },
        "version": 1
      },
      "evm": {
        "bytecode": {
          "linkReferences": {},
          "object": "60a06040523480156200001157600080fd5b506040516000906738585839386009f360c01b906200003360208201620000ad565b601f1982820381018352601f9091011660408190526200005a9291903090602001620000bb565b604051602081830303815290604052905060008151602083016000f090508062000088573d6000803e3d6000fd5b6001600160a01b031660805250600080546001600160a01b0319163317905562000117565b61024680620017b483390190565b6001600160c01b0319841681528251600090815b81811015620000ee5760208187018101516008868401015201620000cf565b8181111562000101576000600883860101525b5060089201918201929092526028019392505050565b608051611681620001336000396000610e2d01526116816000f3fe60806040526004361061015f5760003560e01c806383cd9cc3116100c0578063cfe10b3011610074578063e1d7a8e411610059578063e1d7a8e41461047f578063f39ec1f71461049f578063fa481da5146104bf5761015f565b8063cfe10b3014610441578063d784d4261461045f5761015f565b80638da5cb5b116100a55780638da5cb5b146103c0578063aaf10f42146103eb578063ce9b7930146104165761015f565b806383cd9cc3146102bd5780638653a465146102dd5761015f565b8063348a0cdc116101175780634713ee7a116100fc5780634713ee7a1461027557806356f2a761146102885780636c0f79b61461029b5761015f565b8063348a0cdc1461023557806339cab472146102555761015f565b806313af40351161014857806313af4035146101ab57806317cff2c5146101cb57806327fe1822146102155761015f565b8063043c94141461017657806312e6bf6a14610198575b34801561016b57600080fd5b506003543d5260203df35b34801561018257600080fd5b50610196610191366004611247565b6104df565b005b6101966101a63660046112a3565b61051f565b3480156101b757600080fd5b506101966101c63660046112e7565b6105a5565b3480156101d757600080fd5b506101eb6101e6366004611304565b61061a565b60405173ffffffffffffffffffffffffffffffffffffffff90911681526020015b60405180910390f35b34801561022157600080fd5b506101eb610230366004611304565b61065b565b34801561024157600080fd5b50610196610250366004611346565b610695565b34801561026157600080fd5b506101eb6102703660046113bb565b6106d1565b6101966102833660046113d4565b610710565b6101eb610296366004611429565b6107b0565b3480156102a757600080fd5b506102b06107f5565b60405161020c9190611464565b3480156102c957600080fd5b506101966102d83660046112e7565b61084d565b3480156102e957600080fd5b506101eb6102f83660046114a8565b6040517fff0000000000000000000000000000000000000000000000000000000000000060208201527fffffffffffffffffffffffffffffffffffffffff000000000000000000000000606083901b166021820152603581018390527f1c0bf703a3415cada9785e89e9d70314c3111ae7d8e04f33bb42eb1d264088be60558201819052600091607501604080517fffffffffffffffffffffffffffffffffffffffffffffffffffffffffffffffe08184030181529190528051602090910120949350505050565b3480156103cc57600080fd5b5060005473ffffffffffffffffffffffffffffffffffffffff166101eb565b3480156103f757600080fd5b5060035473ffffffffffffffffffffffffffffffffffffffff166101eb565b34801561042257600080fd5b5060015473ffffffffffffffffffffffffffffffffffffffff166101eb565b34801561044d57600080fd5b5060025460405190815260200161020c565b34801561046b57600080fd5b5061019661047a3660046112e7565b6108c2565b34801561048b57600080fd5b5061019661049a3660046113d4565b610959565b3480156104ab57600080fd5b506101eb6104ba3660046113bb565b6109b9565b3480156104cb57600080fd5b506101eb6104da3660046114d8565b610a62565b33301480610504575060005473ffffffffffffffffffffffffffffffffffffffff1633145b61050d57600080fd5b61051984848484610aa5565b50505050565b33301480610544575060005473ffffffffffffffffffffffffffffffffffffffff1633145b61054d57600080fd5b600082828080601f016020809104026020016040519081016040528093929190818152602001838380828437600092019190915250929350610596925087915086905083610c04565b61059e610c21565b5050505050565b333014806105ca575060005473ffffffffffffffffffffffffffffffffffffffff1633145b6105d357600080fd5b600080547fffffffffffffffffffffffff00000000000000000000000000000000000000001673ffffffffffffffffffffffffffffffffffffffff92909216919091179055565b600033301480610641575060005473ffffffffffffffffffffffffffffffffffffffff1633145b61064a57600080fd5b6106548383610c2b565b9392505050565b600033301480610682575060005473ffffffffffffffffffffffffffffffffffffffff1633145b61068b57600080fd5b6106548383610d20565b333014806106ba575060005473ffffffffffffffffffffffffffffffffffffffff1633145b6106c357600080fd5b6106cd8282610d97565b5050565b6000333014806106f8575060005473ffffffffffffffffffffffffffffffffffffffff1633145b61070157600080fd5b61070a82610e28565b92915050565b33301480610735575060005473ffffffffffffffffffffffffffffffffffffffff1633145b80610757575060015473ffffffffffffffffffffffffffffffffffffffff1633145b61076057600080fd5b600082828080601f0160208091040260200160405190810160405280939291908181526020018383808284376000920191909152509293506107a89250869150839050610f12565b610519610c21565b6000333014806107d7575060005473ffffffffffffffffffffffffffffffffffffffff1633145b6107e057600080fd5b6107ec85858585610f2e565b95945050505050565b6060600280548060200260200160405190810160405280929190818152602001828054801561084357602002820191906000526020600020905b81548152602001906001019080831161082f575b5050505050905090565b33301480610872575060005473ffffffffffffffffffffffffffffffffffffffff1633145b61087b57600080fd5b600180547fffffffffffffffffffffffff00000000000000000000000000000000000000001673ffffffffffffffffffffffffffffffffffffffff92909216919091179055565b333014806108e7575060005473ffffffffffffffffffffffffffffffffffffffff1633145b80610909575060015473ffffffffffffffffffffffffffffffffffffffff1633145b61091257600080fd5b600380547fffffffffffffffffffffffff00000000000000000000000000000000000000001673ffffffffffffffffffffffffffffffffffffffff92909216919091179055565b3330148061097e575060005473ffffffffffffffffffffffffffffffffffffffff1633145b806109a0575060015473ffffffffffffffffffffffffffffffffffffffff1633145b6109a957600080fd5b6109b4838383610feb565b505050565b604080517fff000000000000000000000000000000000000000000000000000000000000006020808301919091523060601b7fffffffffffffffffffffffffffffffffffffffff000000000000000000000000166021830152603582018490527f1c0bf703a3415cada9785e89e9d70314c3111ae7d8e04f33bb42eb1d264088be605580840191909152835180840390910181526075909201909252805191012060009061070a565b600033301480610a89575060005473ffffffffffffffffffffffffffffffffffffffff1633145b610a9257600080fd5b610a9d848484611020565b949350505050565b604080517fff000000000000000000000000000000000000000000000000000000000000006020808301919091523060601b7fffffffffffffffffffffffffffffffffffffffff000000000000000000000000166021830152603582018790527f1c0bf703a3415cada9785e89e9d70314c3111ae7d8e04f33bb42eb1d264088be6055808401919091528351808403909101815260759092019092528051910120610b508185611139565b8373ffffffffffffffffffffffffffffffffffffffff168173ffffffffffffffffffffffffffffffffffffffff16630cbcae706040518163ffffffff1660e01b8152600401602060405180830381865afa158015610bb2573d6000803e3d6000fd5b505050506040513d601f19601f82011682018060405250810190610bd6919061150b565b73ffffffffffffffffffffffffffffffffffffffff1614610bf957610bf9611528565b61059e818484610feb565b805181602001600080838387895af161059e573d6000803e3d6000fd5b3d6000803e3d6000f35b6000604051602883018101604052807f38585839386009f30000000000000000000000000000000000000000000000008152600881019050838582378381019050308152602081019050818103826000f092505050610c88813b90565b610c9157600080fd5b60405173ffffffffffffffffffffffffffffffffffffffff821681527f6cd94ea1c5d9f99038bb4629d8a759399654d3861b73bf3a2b0cf484dae721389060200160405180910390a1600380547fffffffffffffffffffffffff00000000000000000000000000000000000000001673ffffffffffffffffffffffffffffffffffffffff831617905592915050565b600060405180838582378301818103826000f092505050610d3f813b90565b610d4857600080fd5b60405173ffffffffffffffffffffffffffffffffffffffff821681527fd3acf0da590cfcd8f020afd7f40b7e6e4c8bd2fc9eb7aec9836837b667685b3a9060200160405180910390a192915050565b60005b81811015610e1f576000838383818110610db657610db6611557565b9050602002810190610dc89190611586565b8080601f0160208091040260200160405190810160405280939291908181526020018383808284376000920182905250939450610e0c933093509150849050610c04565b5080610e17816115eb565b915050610d9a565b506106cd610c21565b6000807f000000000000000000000000000000000000000000000000000000000000000090508060035560405160208101604052766020363636335afa1536363636515af43d36363e3d36f360481b8152836017826000f5925050813b610e8e57600080fd5b600280546001810182556000919091527f405787fa12a823e0f2b7631cc41b3ba8828b3321ca811111fa75cd3aa3bb5ace0183905560405173ffffffffffffffffffffffffffffffffffffffff831681527f06690e5b52be10a3d5820ec875c3dd3327f3077954a09f104201e40e5f7082c69060200160405180910390a150919050565b8051816020016000808383875af4610519573d6000803e3d6000fd5b600060405180838582378301858282038389f59250505073ffffffffffffffffffffffffffffffffffffffff8116610f6557600080fd5b600280546001810182556000919091527f405787fa12a823e0f2b7631cc41b3ba8828b3321ca811111fa75cd3aa3bb5ace0184905560405173ffffffffffffffffffffffffffffffffffffffff821681527fd3acf0da590cfcd8f020afd7f40b7e6e4c8bd2fc9eb7aec9836837b667685b3a9060200160405180910390a1949350505050565b80156109b4576040518082016040528183823760008083836000885af1610519576040519050803d016040523d6000823e3d81fd5b600060405160208101604052766020363636335afa1536363636515af43d36363e3d36f360481b8152846017826000f59150503d15611063573d6000803e3d6000fd5b803b1581151715611098577f537461746963206465706c6f79206661696c656400000000000000000000000060005260206000fd5b81156110a9576110a9818484610feb565b803b6110b457600080fd5b600280546001810182556000919091527f405787fa12a823e0f2b7631cc41b3ba8828b3321ca811111fa75cd3aa3bb5ace0184905560405173ffffffffffffffffffffffffffffffffffffffff821681527fe8b9cb7d60827a7d55e211f1382dd0f129adb541af9fe45a09ab4a18b76e7c659060200160405180910390a19392505050565b6040805173ffffffffffffffffffffffffffffffffffffffff83166024808301919091528251808303909101815260449091019091526020810180517bffffffffffffffffffffffffffffffffffffffffffffffffffffffff167fca11c0de00000000000000000000000000000000000000000000000000000000178152815160009182919082875af16109b4576040513d81016040523d6000823e3d81fd5b73ffffffffffffffffffffffffffffffffffffffff811681146111fb57600080fd5b50565b60008083601f84011261121057600080fd5b50813567ffffffffffffffff81111561122857600080fd5b60208301915083602082850101111561124057600080fd5b9250929050565b6000806000806060858703121561125d57600080fd5b84359350602085013561126f816111d9565b9250604085013567ffffffffffffffff81111561128b57600080fd5b611297878288016111fe565b95989497509550505050565b600080600080606085870312156112b957600080fd5b84356112c4816111d9565b935060208501359250604085013567ffffffffffffffff81111561128b57600080fd5b6000602082840312156112f957600080fd5b8135610654816111d9565b6000806020838503121561131757600080fd5b823567ffffffffffffffff81111561132e57600080fd5b61133a858286016111fe565b90969095509350505050565b6000806020838503121561135957600080fd5b823567ffffffffffffffff8082111561137157600080fd5b818501915085601f83011261138557600080fd5b81358181111561139457600080fd5b8660208260051b85010111156113a957600080fd5b60209290920196919550909350505050565b6000602082840312156113cd57600080fd5b5035919050565b6000806000604084860312156113e957600080fd5b83356113f4816111d9565b9250602084013567ffffffffffffffff81111561141057600080fd5b61141c868287016111fe565b9497909650939450505050565b6000806000806060858703121561143f57600080fd5b8435935060208501359250604085013567ffffffffffffffff81111561128b57600080fd5b6020808252825182820181905260009190848201906040850190845b8181101561149c57835183529284019291840191600101611480565b50909695505050505050565b600080604083850312156114bb57600080fd5b8235915060208301356114cd816111d9565b809150509250929050565b6000806000604084860312156114ed57600080fd5b83359250602084013567ffffffffffffffff81111561141057600080fd5b60006020828403121561151d57600080fd5b8151610654816111d9565b7f4e487b7100000000000000000000000000000000000000000000000000000000600052600160045260246000fd5b7f4e487b7100000000000000000000000000000000000000000000000000000000600052603260045260246000fd5b60008083357fffffffffffffffffffffffffffffffffffffffffffffffffffffffffffffffe18436030181126115bb57600080fd5b83018035915067ffffffffffffffff8211156115d657600080fd5b60200191503681900382131561124057600080fd5b60007fffffffffffffffffffffffffffffffffffffffffffffffffffffffffffffffff821415611644577f4e487b7100000000000000000000000000000000000000000000000000000000600052601160045260246000fd5b506001019056fea26469706673582212202ae784101319c6158f5ce53d62933e1f9796ffbe0f76c7f3c88007c1e28de5a164736f6c634300080b003360a060405234801561001057600080fd5b503360805260805161021761002f6000396000607901526102176000f3fe6080604052600436106100225760003560e01c80630cbcae701461003957610031565b366100315761002f610077565b005b61002f610077565b34801561004557600080fd5b5061004e61019e565b60405173ffffffffffffffffffffffffffffffffffffffff909116815260200160405180910390f35b7f0000000000000000000000000000000000000000000000000000000000000000610169565b7fffffffffffffffffffffffffffffffffffffffffffffffffffffffffffffffff5473ffffffffffffffffffffffffffffffffffffffff600435169060a01c6bca11c0de15dead10cced00001415610119577f696d706c6f63000000000000000000000000000000000000000000000000000060005260206000fd5b7fffffffffffffffffffffffffffffffffffffffffffffffffffffffffffffffff55005b60405136810160405236600082376000803683600019545af43d6000833e80610164573d82fd5b503d81f35b803314156101935760243614156101935763ca11c0de60003560e01c14156101935761019361009d565b61019b61013d565b50565b600073ffffffffffffffffffffffffffffffffffffffff7fffffffffffffffffffffffffffffffffffffffffffffffffffffffffffffffff541660005260206000f3fea26469706673582212204d2fc8317b6216965fbf33d316516c31e54e3ccc8875a5f50bba448cfefae1db64736f6c634300080b0033",
          "opcodes": "PUSH1 0xA0 PUSH1 0x40 MSTORE CALLVALUE DUP1 ISZERO PUSH3 0x11 JUMPI PUSH1 0x0 DUP1 REVERT JUMPDEST POP PUSH1 0x40 MLOAD PUSH1 0x0 SWAP1 PUSH8 0x38585839386009F3 PUSH1 0xC0 SHL SWAP1 PUSH3 0x33 PUSH1 0x20 DUP3 ADD PUSH3 0xAD JUMP JUMPDEST PUSH1 0x1F NOT DUP3 DUP3 SUB DUP2 ADD DUP4 MSTORE PUSH1 0x1F SWAP1 SWAP2 ADD AND PUSH1 0x40 DUP2 SWAP1 MSTORE PUSH3 0x5A SWAP3 SWAP2 SWAP1 ADDRESS SWAP1 PUSH1 0x20 ADD PUSH3 0xBB JUMP JUMPDEST PUSH1 0x40 MLOAD PUSH1 0x20 DUP2 DUP4 SUB SUB DUP2 MSTORE SWAP1 PUSH1 0x40 MSTORE SWAP1 POP PUSH1 0x0 DUP2 MLOAD PUSH1 0x20 DUP4 ADD PUSH1 0x0 CREATE SWAP1 POP DUP1 PUSH3 0x88 JUMPI RETURNDATASIZE PUSH1 0x0 DUP1 RETURNDATACOPY RETURNDATASIZE PUSH1 0x0 REVERT JUMPDEST PUSH1 0x1 PUSH1 0x1 PUSH1 0xA0 SHL SUB AND PUSH1 0x80 MSTORE POP PUSH1 0x0 DUP1 SLOAD PUSH1 0x1 PUSH1 0x1 PUSH1 0xA0 SHL SUB NOT AND CALLER OR SWAP1 SSTORE PUSH3 0x117 JUMP JUMPDEST PUSH2 0x246 DUP1 PUSH3 0x17B4 DUP4 CODECOPY ADD SWAP1 JUMP JUMPDEST PUSH1 0x1 PUSH1 0x1 PUSH1 0xC0 SHL SUB NOT DUP5 AND DUP2 MSTORE DUP3 MLOAD PUSH1 0x0 SWAP1 DUP2 JUMPDEST DUP2 DUP2 LT ISZERO PUSH3 0xEE JUMPI PUSH1 0x20 DUP2 DUP8 ADD DUP2 ADD MLOAD PUSH1 0x8 DUP7 DUP5 ADD ADD MSTORE ADD PUSH3 0xCF JUMP JUMPDEST DUP2 DUP2 GT ISZERO PUSH3 0x101 JUMPI PUSH1 0x0 PUSH1 0x8 DUP4 DUP7 ADD ADD MSTORE JUMPDEST POP PUSH1 0x8 SWAP3 ADD SWAP2 DUP3 ADD SWAP3 SWAP1 SWAP3 MSTORE PUSH1 0x28 ADD SWAP4 SWAP3 POP POP POP JUMP JUMPDEST PUSH1 0x80 MLOAD PUSH2 0x1681 PUSH3 0x133 PUSH1 0x0 CODECOPY PUSH1 0x0 PUSH2 0xE2D ADD MSTORE PUSH2 0x1681 PUSH1 0x0 RETURN INVALID PUSH1 0x80 PUSH1 0x40 MSTORE PUSH1 0x4 CALLDATASIZE LT PUSH2 0x15F JUMPI PUSH1 0x0 CALLDATALOAD PUSH1 0xE0 SHR DUP1 PUSH4 0x83CD9CC3 GT PUSH2 0xC0 JUMPI DUP1 PUSH4 0xCFE10B30 GT PUSH2 0x74 JUMPI DUP1 PUSH4 0xE1D7A8E4 GT PUSH2 0x59 JUMPI DUP1 PUSH4 0xE1D7A8E4 EQ PUSH2 0x47F JUMPI DUP1 PUSH4 0xF39EC1F7 EQ PUSH2 0x49F JUMPI DUP1 PUSH4 0xFA481DA5 EQ PUSH2 0x4BF JUMPI PUSH2 0x15F JUMP JUMPDEST DUP1 PUSH4 0xCFE10B30 EQ PUSH2 0x441 JUMPI DUP1 PUSH4 0xD784D426 EQ PUSH2 0x45F JUMPI PUSH2 0x15F JUMP JUMPDEST DUP1 PUSH4 0x8DA5CB5B GT PUSH2 0xA5 JUMPI DUP1 PUSH4 0x8DA5CB5B EQ PUSH2 0x3C0 JUMPI DUP1 PUSH4 0xAAF10F42 EQ PUSH2 0x3EB JUMPI DUP1 PUSH4 0xCE9B7930 EQ PUSH2 0x416 JUMPI PUSH2 0x15F JUMP JUMPDEST DUP1 PUSH4 0x83CD9CC3 EQ PUSH2 0x2BD JUMPI DUP1 PUSH4 0x8653A465 EQ PUSH2 0x2DD JUMPI PUSH2 0x15F JUMP JUMPDEST DUP1 PUSH4 0x348A0CDC GT PUSH2 0x117 JUMPI DUP1 PUSH4 0x4713EE7A GT PUSH2 0xFC JUMPI DUP1 PUSH4 0x4713EE7A EQ PUSH2 0x275 JUMPI DUP1 PUSH4 0x56F2A761 EQ PUSH2 0x288 JUMPI DUP1 PUSH4 0x6C0F79B6 EQ PUSH2 0x29B JUMPI PUSH2 0x15F JUMP JUMPDEST DUP1 PUSH4 0x348A0CDC EQ PUSH2 0x235 JUMPI DUP1 PUSH4 0x39CAB472 EQ PUSH2 0x255 JUMPI PUSH2 0x15F JUMP JUMPDEST DUP1 PUSH4 0x13AF4035 GT PUSH2 0x148 JUMPI DUP1 PUSH4 0x13AF4035 EQ PUSH2 0x1AB JUMPI DUP1 PUSH4 0x17CFF2C5 EQ PUSH2 0x1CB JUMPI DUP1 PUSH4 0x27FE1822 EQ PUSH2 0x215 JUMPI PUSH2 0x15F JUMP JUMPDEST DUP1 PUSH4 0x43C9414 EQ PUSH2 0x176 JUMPI DUP1 PUSH4 0x12E6BF6A EQ PUSH2 0x198 JUMPI JUMPDEST CALLVALUE DUP1 ISZERO PUSH2 0x16B JUMPI PUSH1 0x0 DUP1 REVERT JUMPDEST POP PUSH1 0x3 SLOAD RETURNDATASIZE MSTORE PUSH1 0x20 RETURNDATASIZE RETURN JUMPDEST CALLVALUE DUP1 ISZERO PUSH2 0x182 JUMPI PUSH1 0x0 DUP1 REVERT JUMPDEST POP PUSH2 0x196 PUSH2 0x191 CALLDATASIZE PUSH1 0x4 PUSH2 0x1247 JUMP JUMPDEST PUSH2 0x4DF JUMP JUMPDEST STOP JUMPDEST PUSH2 0x196 PUSH2 0x1A6 CALLDATASIZE PUSH1 0x4 PUSH2 0x12A3 JUMP JUMPDEST PUSH2 0x51F JUMP JUMPDEST CALLVALUE DUP1 ISZERO PUSH2 0x1B7 JUMPI PUSH1 0x0 DUP1 REVERT JUMPDEST POP PUSH2 0x196 PUSH2 0x1C6 CALLDATASIZE PUSH1 0x4 PUSH2 0x12E7 JUMP JUMPDEST PUSH2 0x5A5 JUMP JUMPDEST CALLVALUE DUP1 ISZERO PUSH2 0x1D7 JUMPI PUSH1 0x0 DUP1 REVERT JUMPDEST POP PUSH2 0x1EB PUSH2 0x1E6 CALLDATASIZE PUSH1 0x4 PUSH2 0x1304 JUMP JUMPDEST PUSH2 0x61A JUMP JUMPDEST PUSH1 0x40 MLOAD PUSH20 0xFFFFFFFFFFFFFFFFFFFFFFFFFFFFFFFFFFFFFFFF SWAP1 SWAP2 AND DUP2 MSTORE PUSH1 0x20 ADD JUMPDEST PUSH1 0x40 MLOAD DUP1 SWAP2 SUB SWAP1 RETURN JUMPDEST CALLVALUE DUP1 ISZERO PUSH2 0x221 JUMPI PUSH1 0x0 DUP1 REVERT JUMPDEST POP PUSH2 0x1EB PUSH2 0x230 CALLDATASIZE PUSH1 0x4 PUSH2 0x1304 JUMP JUMPDEST PUSH2 0x65B JUMP JUMPDEST CALLVALUE DUP1 ISZERO PUSH2 0x241 JUMPI PUSH1 0x0 DUP1 REVERT JUMPDEST POP PUSH2 0x196 PUSH2 0x250 CALLDATASIZE PUSH1 0x4 PUSH2 0x1346 JUMP JUMPDEST PUSH2 0x695 JUMP JUMPDEST CALLVALUE DUP1 ISZERO PUSH2 0x261 JUMPI PUSH1 0x0 DUP1 REVERT JUMPDEST POP PUSH2 0x1EB PUSH2 0x270 CALLDATASIZE PUSH1 0x4 PUSH2 0x13BB JUMP JUMPDEST PUSH2 0x6D1 JUMP JUMPDEST PUSH2 0x196 PUSH2 0x283 CALLDATASIZE PUSH1 0x4 PUSH2 0x13D4 JUMP JUMPDEST PUSH2 0x710 JUMP JUMPDEST PUSH2 0x1EB PUSH2 0x296 CALLDATASIZE PUSH1 0x4 PUSH2 0x1429 JUMP JUMPDEST PUSH2 0x7B0 JUMP JUMPDEST CALLVALUE DUP1 ISZERO PUSH2 0x2A7 JUMPI PUSH1 0x0 DUP1 REVERT JUMPDEST POP PUSH2 0x2B0 PUSH2 0x7F5 JUMP JUMPDEST PUSH1 0x40 MLOAD PUSH2 0x20C SWAP2 SWAP1 PUSH2 0x1464 JUMP JUMPDEST CALLVALUE DUP1 ISZERO PUSH2 0x2C9 JUMPI PUSH1 0x0 DUP1 REVERT JUMPDEST POP PUSH2 0x196 PUSH2 0x2D8 CALLDATASIZE PUSH1 0x4 PUSH2 0x12E7 JUMP JUMPDEST PUSH2 0x84D JUMP JUMPDEST CALLVALUE DUP1 ISZERO PUSH2 0x2E9 JUMPI PUSH1 0x0 DUP1 REVERT JUMPDEST POP PUSH2 0x1EB PUSH2 0x2F8 CALLDATASIZE PUSH1 0x4 PUSH2 0x14A8 JUMP JUMPDEST PUSH1 0x40 MLOAD PUSH32 0xFF00000000000000000000000000000000000000000000000000000000000000 PUSH1 0x20 DUP3 ADD MSTORE PUSH32 0xFFFFFFFFFFFFFFFFFFFFFFFFFFFFFFFFFFFFFFFF000000000000000000000000 PUSH1 0x60 DUP4 SWAP1 SHL AND PUSH1 0x21 DUP3 ADD MSTORE PUSH1 0x35 DUP2 ADD DUP4 SWAP1 MSTORE PUSH32 0x1C0BF703A3415CADA9785E89E9D70314C3111AE7D8E04F33BB42EB1D264088BE PUSH1 0x55 DUP3 ADD DUP2 SWAP1 MSTORE PUSH1 0x0 SWAP2 PUSH1 0x75 ADD PUSH1 0x40 DUP1 MLOAD PUSH32 0xFFFFFFFFFFFFFFFFFFFFFFFFFFFFFFFFFFFFFFFFFFFFFFFFFFFFFFFFFFFFFFE0 DUP2 DUP5 SUB ADD DUP2 MSTORE SWAP2 SWAP1 MSTORE DUP1 MLOAD PUSH1 0x20 SWAP1 SWAP2 ADD KECCAK256 SWAP5 SWAP4 POP POP POP POP JUMP JUMPDEST CALLVALUE DUP1 ISZERO PUSH2 0x3CC JUMPI PUSH1 0x0 DUP1 REVERT JUMPDEST POP PUSH1 0x0 SLOAD PUSH20 0xFFFFFFFFFFFFFFFFFFFFFFFFFFFFFFFFFFFFFFFF AND PUSH2 0x1EB JUMP JUMPDEST CALLVALUE DUP1 ISZERO PUSH2 0x3F7 JUMPI PUSH1 0x0 DUP1 REVERT JUMPDEST POP PUSH1 0x3 SLOAD PUSH20 0xFFFFFFFFFFFFFFFFFFFFFFFFFFFFFFFFFFFFFFFF AND PUSH2 0x1EB JUMP JUMPDEST CALLVALUE DUP1 ISZERO PUSH2 0x422 JUMPI PUSH1 0x0 DUP1 REVERT JUMPDEST POP PUSH1 0x1 SLOAD PUSH20 0xFFFFFFFFFFFFFFFFFFFFFFFFFFFFFFFFFFFFFFFF AND PUSH2 0x1EB JUMP JUMPDEST CALLVALUE DUP1 ISZERO PUSH2 0x44D JUMPI PUSH1 0x0 DUP1 REVERT JUMPDEST POP PUSH1 0x2 SLOAD PUSH1 0x40 MLOAD SWAP1 DUP2 MSTORE PUSH1 0x20 ADD PUSH2 0x20C JUMP JUMPDEST CALLVALUE DUP1 ISZERO PUSH2 0x46B JUMPI PUSH1 0x0 DUP1 REVERT JUMPDEST POP PUSH2 0x196 PUSH2 0x47A CALLDATASIZE PUSH1 0x4 PUSH2 0x12E7 JUMP JUMPDEST PUSH2 0x8C2 JUMP JUMPDEST CALLVALUE DUP1 ISZERO PUSH2 0x48B JUMPI PUSH1 0x0 DUP1 REVERT JUMPDEST POP PUSH2 0x196 PUSH2 0x49A CALLDATASIZE PUSH1 0x4 PUSH2 0x13D4 JUMP JUMPDEST PUSH2 0x959 JUMP JUMPDEST CALLVALUE DUP1 ISZERO PUSH2 0x4AB JUMPI PUSH1 0x0 DUP1 REVERT JUMPDEST POP PUSH2 0x1EB PUSH2 0x4BA CALLDATASIZE PUSH1 0x4 PUSH2 0x13BB JUMP JUMPDEST PUSH2 0x9B9 JUMP JUMPDEST CALLVALUE DUP1 ISZERO PUSH2 0x4CB JUMPI PUSH1 0x0 DUP1 REVERT JUMPDEST POP PUSH2 0x1EB PUSH2 0x4DA CALLDATASIZE PUSH1 0x4 PUSH2 0x14D8 JUMP JUMPDEST PUSH2 0xA62 JUMP JUMPDEST CALLER ADDRESS EQ DUP1 PUSH2 0x504 JUMPI POP PUSH1 0x0 SLOAD PUSH20 0xFFFFFFFFFFFFFFFFFFFFFFFFFFFFFFFFFFFFFFFF AND CALLER EQ JUMPDEST PUSH2 0x50D JUMPI PUSH1 0x0 DUP1 REVERT JUMPDEST PUSH2 0x519 DUP5 DUP5 DUP5 DUP5 PUSH2 0xAA5 JUMP JUMPDEST POP POP POP POP JUMP JUMPDEST CALLER ADDRESS EQ DUP1 PUSH2 0x544 JUMPI POP PUSH1 0x0 SLOAD PUSH20 0xFFFFFFFFFFFFFFFFFFFFFFFFFFFFFFFFFFFFFFFF AND CALLER EQ JUMPDEST PUSH2 0x54D JUMPI PUSH1 0x0 DUP1 REVERT JUMPDEST PUSH1 0x0 DUP3 DUP3 DUP1 DUP1 PUSH1 0x1F ADD PUSH1 0x20 DUP1 SWAP2 DIV MUL PUSH1 0x20 ADD PUSH1 0x40 MLOAD SWAP1 DUP2 ADD PUSH1 0x40 MSTORE DUP1 SWAP4 SWAP3 SWAP2 SWAP1 DUP2 DUP2 MSTORE PUSH1 0x20 ADD DUP4 DUP4 DUP1 DUP3 DUP5 CALLDATACOPY PUSH1 0x0 SWAP3 ADD SWAP2 SWAP1 SWAP2 MSTORE POP SWAP3 SWAP4 POP PUSH2 0x596 SWAP3 POP DUP8 SWAP2 POP DUP7 SWAP1 POP DUP4 PUSH2 0xC04 JUMP JUMPDEST PUSH2 0x59E PUSH2 0xC21 JUMP JUMPDEST POP POP POP POP POP JUMP JUMPDEST CALLER ADDRESS EQ DUP1 PUSH2 0x5CA JUMPI POP PUSH1 0x0 SLOAD PUSH20 0xFFFFFFFFFFFFFFFFFFFFFFFFFFFFFFFFFFFFFFFF AND CALLER EQ JUMPDEST PUSH2 0x5D3 JUMPI PUSH1 0x0 DUP1 REVERT JUMPDEST PUSH1 0x0 DUP1 SLOAD PUSH32 0xFFFFFFFFFFFFFFFFFFFFFFFF0000000000000000000000000000000000000000 AND PUSH20 0xFFFFFFFFFFFFFFFFFFFFFFFFFFFFFFFFFFFFFFFF SWAP3 SWAP1 SWAP3 AND SWAP2 SWAP1 SWAP2 OR SWAP1 SSTORE JUMP JUMPDEST PUSH1 0x0 CALLER ADDRESS EQ DUP1 PUSH2 0x641 JUMPI POP PUSH1 0x0 SLOAD PUSH20 0xFFFFFFFFFFFFFFFFFFFFFFFFFFFFFFFFFFFFFFFF AND CALLER EQ JUMPDEST PUSH2 0x64A JUMPI PUSH1 0x0 DUP1 REVERT JUMPDEST PUSH2 0x654 DUP4 DUP4 PUSH2 0xC2B JUMP JUMPDEST SWAP4 SWAP3 POP POP POP JUMP JUMPDEST PUSH1 0x0 CALLER ADDRESS EQ DUP1 PUSH2 0x682 JUMPI POP PUSH1 0x0 SLOAD PUSH20 0xFFFFFFFFFFFFFFFFFFFFFFFFFFFFFFFFFFFFFFFF AND CALLER EQ JUMPDEST PUSH2 0x68B JUMPI PUSH1 0x0 DUP1 REVERT JUMPDEST PUSH2 0x654 DUP4 DUP4 PUSH2 0xD20 JUMP JUMPDEST CALLER ADDRESS EQ DUP1 PUSH2 0x6BA JUMPI POP PUSH1 0x0 SLOAD PUSH20 0xFFFFFFFFFFFFFFFFFFFFFFFFFFFFFFFFFFFFFFFF AND CALLER EQ JUMPDEST PUSH2 0x6C3 JUMPI PUSH1 0x0 DUP1 REVERT JUMPDEST PUSH2 0x6CD DUP3 DUP3 PUSH2 0xD97 JUMP JUMPDEST POP POP JUMP JUMPDEST PUSH1 0x0 CALLER ADDRESS EQ DUP1 PUSH2 0x6F8 JUMPI POP PUSH1 0x0 SLOAD PUSH20 0xFFFFFFFFFFFFFFFFFFFFFFFFFFFFFFFFFFFFFFFF AND CALLER EQ JUMPDEST PUSH2 0x701 JUMPI PUSH1 0x0 DUP1 REVERT JUMPDEST PUSH2 0x70A DUP3 PUSH2 0xE28 JUMP JUMPDEST SWAP3 SWAP2 POP POP JUMP JUMPDEST CALLER ADDRESS EQ DUP1 PUSH2 0x735 JUMPI POP PUSH1 0x0 SLOAD PUSH20 0xFFFFFFFFFFFFFFFFFFFFFFFFFFFFFFFFFFFFFFFF AND CALLER EQ JUMPDEST DUP1 PUSH2 0x757 JUMPI POP PUSH1 0x1 SLOAD PUSH20 0xFFFFFFFFFFFFFFFFFFFFFFFFFFFFFFFFFFFFFFFF AND CALLER EQ JUMPDEST PUSH2 0x760 JUMPI PUSH1 0x0 DUP1 REVERT JUMPDEST PUSH1 0x0 DUP3 DUP3 DUP1 DUP1 PUSH1 0x1F ADD PUSH1 0x20 DUP1 SWAP2 DIV MUL PUSH1 0x20 ADD PUSH1 0x40 MLOAD SWAP1 DUP2 ADD PUSH1 0x40 MSTORE DUP1 SWAP4 SWAP3 SWAP2 SWAP1 DUP2 DUP2 MSTORE PUSH1 0x20 ADD DUP4 DUP4 DUP1 DUP3 DUP5 CALLDATACOPY PUSH1 0x0 SWAP3 ADD SWAP2 SWAP1 SWAP2 MSTORE POP SWAP3 SWAP4 POP PUSH2 0x7A8 SWAP3 POP DUP7 SWAP2 POP DUP4 SWAP1 POP PUSH2 0xF12 JUMP JUMPDEST PUSH2 0x519 PUSH2 0xC21 JUMP JUMPDEST PUSH1 0x0 CALLER ADDRESS EQ DUP1 PUSH2 0x7D7 JUMPI POP PUSH1 0x0 SLOAD PUSH20 0xFFFFFFFFFFFFFFFFFFFFFFFFFFFFFFFFFFFFFFFF AND CALLER EQ JUMPDEST PUSH2 0x7E0 JUMPI PUSH1 0x0 DUP1 REVERT JUMPDEST PUSH2 0x7EC DUP6 DUP6 DUP6 DUP6 PUSH2 0xF2E JUMP JUMPDEST SWAP6 SWAP5 POP POP POP POP POP JUMP JUMPDEST PUSH1 0x60 PUSH1 0x2 DUP1 SLOAD DUP1 PUSH1 0x20 MUL PUSH1 0x20 ADD PUSH1 0x40 MLOAD SWAP1 DUP2 ADD PUSH1 0x40 MSTORE DUP1 SWAP3 SWAP2 SWAP1 DUP2 DUP2 MSTORE PUSH1 0x20 ADD DUP3 DUP1 SLOAD DUP1 ISZERO PUSH2 0x843 JUMPI PUSH1 0x20 MUL DUP3 ADD SWAP2 SWAP1 PUSH1 0x0 MSTORE PUSH1 0x20 PUSH1 0x0 KECCAK256 SWAP1 JUMPDEST DUP2 SLOAD DUP2 MSTORE PUSH1 0x20 ADD SWAP1 PUSH1 0x1 ADD SWAP1 DUP1 DUP4 GT PUSH2 0x82F JUMPI JUMPDEST POP POP POP POP POP SWAP1 POP SWAP1 JUMP JUMPDEST CALLER ADDRESS EQ DUP1 PUSH2 0x872 JUMPI POP PUSH1 0x0 SLOAD PUSH20 0xFFFFFFFFFFFFFFFFFFFFFFFFFFFFFFFFFFFFFFFF AND CALLER EQ JUMPDEST PUSH2 0x87B JUMPI PUSH1 0x0 DUP1 REVERT JUMPDEST PUSH1 0x1 DUP1 SLOAD PUSH32 0xFFFFFFFFFFFFFFFFFFFFFFFF0000000000000000000000000000000000000000 AND PUSH20 0xFFFFFFFFFFFFFFFFFFFFFFFFFFFFFFFFFFFFFFFF SWAP3 SWAP1 SWAP3 AND SWAP2 SWAP1 SWAP2 OR SWAP1 SSTORE JUMP JUMPDEST CALLER ADDRESS EQ DUP1 PUSH2 0x8E7 JUMPI POP PUSH1 0x0 SLOAD PUSH20 0xFFFFFFFFFFFFFFFFFFFFFFFFFFFFFFFFFFFFFFFF AND CALLER EQ JUMPDEST DUP1 PUSH2 0x909 JUMPI POP PUSH1 0x1 SLOAD PUSH20 0xFFFFFFFFFFFFFFFFFFFFFFFFFFFFFFFFFFFFFFFF AND CALLER EQ JUMPDEST PUSH2 0x912 JUMPI PUSH1 0x0 DUP1 REVERT JUMPDEST PUSH1 0x3 DUP1 SLOAD PUSH32 0xFFFFFFFFFFFFFFFFFFFFFFFF0000000000000000000000000000000000000000 AND PUSH20 0xFFFFFFFFFFFFFFFFFFFFFFFFFFFFFFFFFFFFFFFF SWAP3 SWAP1 SWAP3 AND SWAP2 SWAP1 SWAP2 OR SWAP1 SSTORE JUMP JUMPDEST CALLER ADDRESS EQ DUP1 PUSH2 0x97E JUMPI POP PUSH1 0x0 SLOAD PUSH20 0xFFFFFFFFFFFFFFFFFFFFFFFFFFFFFFFFFFFFFFFF AND CALLER EQ JUMPDEST DUP1 PUSH2 0x9A0 JUMPI POP PUSH1 0x1 SLOAD PUSH20 0xFFFFFFFFFFFFFFFFFFFFFFFFFFFFFFFFFFFFFFFF AND CALLER EQ JUMPDEST PUSH2 0x9A9 JUMPI PUSH1 0x0 DUP1 REVERT JUMPDEST PUSH2 0x9B4 DUP4 DUP4 DUP4 PUSH2 0xFEB JUMP JUMPDEST POP POP POP JUMP JUMPDEST PUSH1 0x40 DUP1 MLOAD PUSH32 0xFF00000000000000000000000000000000000000000000000000000000000000 PUSH1 0x20 DUP1 DUP4 ADD SWAP2 SWAP1 SWAP2 MSTORE ADDRESS PUSH1 0x60 SHL PUSH32 0xFFFFFFFFFFFFFFFFFFFFFFFFFFFFFFFFFFFFFFFF000000000000000000000000 AND PUSH1 0x21 DUP4 ADD MSTORE PUSH1 0x35 DUP3 ADD DUP5 SWAP1 MSTORE PUSH32 0x1C0BF703A3415CADA9785E89E9D70314C3111AE7D8E04F33BB42EB1D264088BE PUSH1 0x55 DUP1 DUP5 ADD SWAP2 SWAP1 SWAP2 MSTORE DUP4 MLOAD DUP1 DUP5 SUB SWAP1 SWAP2 ADD DUP2 MSTORE PUSH1 0x75 SWAP1 SWAP3 ADD SWAP1 SWAP3 MSTORE DUP1 MLOAD SWAP2 ADD KECCAK256 PUSH1 0x0 SWAP1 PUSH2 0x70A JUMP JUMPDEST PUSH1 0x0 CALLER ADDRESS EQ DUP1 PUSH2 0xA89 JUMPI POP PUSH1 0x0 SLOAD PUSH20 0xFFFFFFFFFFFFFFFFFFFFFFFFFFFFFFFFFFFFFFFF AND CALLER EQ JUMPDEST PUSH2 0xA92 JUMPI PUSH1 0x0 DUP1 REVERT JUMPDEST PUSH2 0xA9D DUP5 DUP5 DUP5 PUSH2 0x1020 JUMP JUMPDEST SWAP5 SWAP4 POP POP POP POP JUMP JUMPDEST PUSH1 0x40 DUP1 MLOAD PUSH32 0xFF00000000000000000000000000000000000000000000000000000000000000 PUSH1 0x20 DUP1 DUP4 ADD SWAP2 SWAP1 SWAP2 MSTORE ADDRESS PUSH1 0x60 SHL PUSH32 0xFFFFFFFFFFFFFFFFFFFFFFFFFFFFFFFFFFFFFFFF000000000000000000000000 AND PUSH1 0x21 DUP4 ADD MSTORE PUSH1 0x35 DUP3 ADD DUP8 SWAP1 MSTORE PUSH32 0x1C0BF703A3415CADA9785E89E9D70314C3111AE7D8E04F33BB42EB1D264088BE PUSH1 0x55 DUP1 DUP5 ADD SWAP2 SWAP1 SWAP2 MSTORE DUP4 MLOAD DUP1 DUP5 SUB SWAP1 SWAP2 ADD DUP2 MSTORE PUSH1 0x75 SWAP1 SWAP3 ADD SWAP1 SWAP3 MSTORE DUP1 MLOAD SWAP2 ADD KECCAK256 PUSH2 0xB50 DUP2 DUP6 PUSH2 0x1139 JUMP JUMPDEST DUP4 PUSH20 0xFFFFFFFFFFFFFFFFFFFFFFFFFFFFFFFFFFFFFFFF AND DUP2 PUSH20 0xFFFFFFFFFFFFFFFFFFFFFFFFFFFFFFFFFFFFFFFF AND PUSH4 0xCBCAE70 PUSH1 0x40 MLOAD DUP2 PUSH4 0xFFFFFFFF AND PUSH1 0xE0 SHL DUP2 MSTORE PUSH1 0x4 ADD PUSH1 0x20 PUSH1 0x40 MLOAD DUP1 DUP4 SUB DUP2 DUP7 GAS STATICCALL ISZERO DUP1 ISZERO PUSH2 0xBB2 JUMPI RETURNDATASIZE PUSH1 0x0 DUP1 RETURNDATACOPY RETURNDATASIZE PUSH1 0x0 REVERT JUMPDEST POP POP POP POP PUSH1 0x40 MLOAD RETURNDATASIZE PUSH1 0x1F NOT PUSH1 0x1F DUP3 ADD AND DUP3 ADD DUP1 PUSH1 0x40 MSTORE POP DUP2 ADD SWAP1 PUSH2 0xBD6 SWAP2 SWAP1 PUSH2 0x150B JUMP JUMPDEST PUSH20 0xFFFFFFFFFFFFFFFFFFFFFFFFFFFFFFFFFFFFFFFF AND EQ PUSH2 0xBF9 JUMPI PUSH2 0xBF9 PUSH2 0x1528 JUMP JUMPDEST PUSH2 0x59E DUP2 DUP5 DUP5 PUSH2 0xFEB JUMP JUMPDEST DUP1 MLOAD DUP2 PUSH1 0x20 ADD PUSH1 0x0 DUP1 DUP4 DUP4 DUP8 DUP10 GAS CALL PUSH2 0x59E JUMPI RETURNDATASIZE PUSH1 0x0 DUP1 RETURNDATACOPY RETURNDATASIZE PUSH1 0x0 REVERT JUMPDEST RETURNDATASIZE PUSH1 0x0 DUP1 RETURNDATACOPY RETURNDATASIZE PUSH1 0x0 RETURN JUMPDEST PUSH1 0x0 PUSH1 0x40 MLOAD PUSH1 0x28 DUP4 ADD DUP2 ADD PUSH1 0x40 MSTORE DUP1 PUSH32 0x38585839386009F3000000000000000000000000000000000000000000000000 DUP2 MSTORE PUSH1 0x8 DUP2 ADD SWAP1 POP DUP4 DUP6 DUP3 CALLDATACOPY DUP4 DUP2 ADD SWAP1 POP ADDRESS DUP2 MSTORE PUSH1 0x20 DUP2 ADD SWAP1 POP DUP2 DUP2 SUB DUP3 PUSH1 0x0 CREATE SWAP3 POP POP POP PUSH2 0xC88 DUP2 EXTCODESIZE SWAP1 JUMP JUMPDEST PUSH2 0xC91 JUMPI PUSH1 0x0 DUP1 REVERT JUMPDEST PUSH1 0x40 MLOAD PUSH20 0xFFFFFFFFFFFFFFFFFFFFFFFFFFFFFFFFFFFFFFFF DUP3 AND DUP2 MSTORE PUSH32 0x6CD94EA1C5D9F99038BB4629D8A759399654D3861B73BF3A2B0CF484DAE72138 SWAP1 PUSH1 0x20 ADD PUSH1 0x40 MLOAD DUP1 SWAP2 SUB SWAP1 LOG1 PUSH1 0x3 DUP1 SLOAD PUSH32 0xFFFFFFFFFFFFFFFFFFFFFFFF0000000000000000000000000000000000000000 AND PUSH20 0xFFFFFFFFFFFFFFFFFFFFFFFFFFFFFFFFFFFFFFFF DUP4 AND OR SWAP1 SSTORE SWAP3 SWAP2 POP POP JUMP JUMPDEST PUSH1 0x0 PUSH1 0x40 MLOAD DUP1 DUP4 DUP6 DUP3 CALLDATACOPY DUP4 ADD DUP2 DUP2 SUB DUP3 PUSH1 0x0 CREATE SWAP3 POP POP POP PUSH2 0xD3F DUP2 EXTCODESIZE SWAP1 JUMP JUMPDEST PUSH2 0xD48 JUMPI PUSH1 0x0 DUP1 REVERT JUMPDEST PUSH1 0x40 MLOAD PUSH20 0xFFFFFFFFFFFFFFFFFFFFFFFFFFFFFFFFFFFFFFFF DUP3 AND DUP2 MSTORE PUSH32 0xD3ACF0DA590CFCD8F020AFD7F40B7E6E4C8BD2FC9EB7AEC9836837B667685B3A SWAP1 PUSH1 0x20 ADD PUSH1 0x40 MLOAD DUP1 SWAP2 SUB SWAP1 LOG1 SWAP3 SWAP2 POP POP JUMP JUMPDEST PUSH1 0x0 JUMPDEST DUP2 DUP2 LT ISZERO PUSH2 0xE1F JUMPI PUSH1 0x0 DUP4 DUP4 DUP4 DUP2 DUP2 LT PUSH2 0xDB6 JUMPI PUSH2 0xDB6 PUSH2 0x1557 JUMP JUMPDEST SWAP1 POP PUSH1 0x20 MUL DUP2 ADD SWAP1 PUSH2 0xDC8 SWAP2 SWAP1 PUSH2 0x1586 JUMP JUMPDEST DUP1 DUP1 PUSH1 0x1F ADD PUSH1 0x20 DUP1 SWAP2 DIV MUL PUSH1 0x20 ADD PUSH1 0x40 MLOAD SWAP1 DUP2 ADD PUSH1 0x40 MSTORE DUP1 SWAP4 SWAP3 SWAP2 SWAP1 DUP2 DUP2 MSTORE PUSH1 0x20 ADD DUP4 DUP4 DUP1 DUP3 DUP5 CALLDATACOPY PUSH1 0x0 SWAP3 ADD DUP3 SWAP1 MSTORE POP SWAP4 SWAP5 POP PUSH2 0xE0C SWAP4 ADDRESS SWAP4 POP SWAP2 POP DUP5 SWAP1 POP PUSH2 0xC04 JUMP JUMPDEST POP DUP1 PUSH2 0xE17 DUP2 PUSH2 0x15EB JUMP JUMPDEST SWAP2 POP POP PUSH2 0xD9A JUMP JUMPDEST POP PUSH2 0x6CD PUSH2 0xC21 JUMP JUMPDEST PUSH1 0x0 DUP1 PUSH32 0x0 SWAP1 POP DUP1 PUSH1 0x3 SSTORE PUSH1 0x40 MLOAD PUSH1 0x20 DUP2 ADD PUSH1 0x40 MSTORE PUSH23 0x6020363636335AFA1536363636515AF43D36363E3D36F3 PUSH1 0x48 SHL DUP2 MSTORE DUP4 PUSH1 0x17 DUP3 PUSH1 0x0 CREATE2 SWAP3 POP POP DUP2 EXTCODESIZE PUSH2 0xE8E JUMPI PUSH1 0x0 DUP1 REVERT JUMPDEST PUSH1 0x2 DUP1 SLOAD PUSH1 0x1 DUP2 ADD DUP3 SSTORE PUSH1 0x0 SWAP2 SWAP1 SWAP2 MSTORE PUSH32 0x405787FA12A823E0F2B7631CC41B3BA8828B3321CA811111FA75CD3AA3BB5ACE ADD DUP4 SWAP1 SSTORE PUSH1 0x40 MLOAD PUSH20 0xFFFFFFFFFFFFFFFFFFFFFFFFFFFFFFFFFFFFFFFF DUP4 AND DUP2 MSTORE PUSH32 0x6690E5B52BE10A3D5820EC875C3DD3327F3077954A09F104201E40E5F7082C6 SWAP1 PUSH1 0x20 ADD PUSH1 0x40 MLOAD DUP1 SWAP2 SUB SWAP1 LOG1 POP SWAP2 SWAP1 POP JUMP JUMPDEST DUP1 MLOAD DUP2 PUSH1 0x20 ADD PUSH1 0x0 DUP1 DUP4 DUP4 DUP8 GAS DELEGATECALL PUSH2 0x519 JUMPI RETURNDATASIZE PUSH1 0x0 DUP1 RETURNDATACOPY RETURNDATASIZE PUSH1 0x0 REVERT JUMPDEST PUSH1 0x0 PUSH1 0x40 MLOAD DUP1 DUP4 DUP6 DUP3 CALLDATACOPY DUP4 ADD DUP6 DUP3 DUP3 SUB DUP4 DUP10 CREATE2 SWAP3 POP POP POP PUSH20 0xFFFFFFFFFFFFFFFFFFFFFFFFFFFFFFFFFFFFFFFF DUP2 AND PUSH2 0xF65 JUMPI PUSH1 0x0 DUP1 REVERT JUMPDEST PUSH1 0x2 DUP1 SLOAD PUSH1 0x1 DUP2 ADD DUP3 SSTORE PUSH1 0x0 SWAP2 SWAP1 SWAP2 MSTORE PUSH32 0x405787FA12A823E0F2B7631CC41B3BA8828B3321CA811111FA75CD3AA3BB5ACE ADD DUP5 SWAP1 SSTORE PUSH1 0x40 MLOAD PUSH20 0xFFFFFFFFFFFFFFFFFFFFFFFFFFFFFFFFFFFFFFFF DUP3 AND DUP2 MSTORE PUSH32 0xD3ACF0DA590CFCD8F020AFD7F40B7E6E4C8BD2FC9EB7AEC9836837B667685B3A SWAP1 PUSH1 0x20 ADD PUSH1 0x40 MLOAD DUP1 SWAP2 SUB SWAP1 LOG1 SWAP5 SWAP4 POP POP POP POP JUMP JUMPDEST DUP1 ISZERO PUSH2 0x9B4 JUMPI PUSH1 0x40 MLOAD DUP1 DUP3 ADD PUSH1 0x40 MSTORE DUP2 DUP4 DUP3 CALLDATACOPY PUSH1 0x0 DUP1 DUP4 DUP4 PUSH1 0x0 DUP9 GAS CALL PUSH2 0x519 JUMPI PUSH1 0x40 MLOAD SWAP1 POP DUP1 RETURNDATASIZE ADD PUSH1 0x40 MSTORE RETURNDATASIZE PUSH1 0x0 DUP3 RETURNDATACOPY RETURNDATASIZE DUP2 REVERT JUMPDEST PUSH1 0x0 PUSH1 0x40 MLOAD PUSH1 0x20 DUP2 ADD PUSH1 0x40 MSTORE PUSH23 0x6020363636335AFA1536363636515AF43D36363E3D36F3 PUSH1 0x48 SHL DUP2 MSTORE DUP5 PUSH1 0x17 DUP3 PUSH1 0x0 CREATE2 SWAP2 POP POP RETURNDATASIZE ISZERO PUSH2 0x1063 JUMPI RETURNDATASIZE PUSH1 0x0 DUP1 RETURNDATACOPY RETURNDATASIZE PUSH1 0x0 REVERT JUMPDEST DUP1 EXTCODESIZE ISZERO DUP2 ISZERO OR ISZERO PUSH2 0x1098 JUMPI PUSH32 0x537461746963206465706C6F79206661696C6564000000000000000000000000 PUSH1 0x0 MSTORE PUSH1 0x20 PUSH1 0x0 REVERT JUMPDEST DUP2 ISZERO PUSH2 0x10A9 JUMPI PUSH2 0x10A9 DUP2 DUP5 DUP5 PUSH2 0xFEB JUMP JUMPDEST DUP1 EXTCODESIZE PUSH2 0x10B4 JUMPI PUSH1 0x0 DUP1 REVERT JUMPDEST PUSH1 0x2 DUP1 SLOAD PUSH1 0x1 DUP2 ADD DUP3 SSTORE PUSH1 0x0 SWAP2 SWAP1 SWAP2 MSTORE PUSH32 0x405787FA12A823E0F2B7631CC41B3BA8828B3321CA811111FA75CD3AA3BB5ACE ADD DUP5 SWAP1 SSTORE PUSH1 0x40 MLOAD PUSH20 0xFFFFFFFFFFFFFFFFFFFFFFFFFFFFFFFFFFFFFFFF DUP3 AND DUP2 MSTORE PUSH32 0xE8B9CB7D60827A7D55E211F1382DD0F129ADB541AF9FE45A09AB4A18B76E7C65 SWAP1 PUSH1 0x20 ADD PUSH1 0x40 MLOAD DUP1 SWAP2 SUB SWAP1 LOG1 SWAP4 SWAP3 POP POP POP JUMP JUMPDEST PUSH1 0x40 DUP1 MLOAD PUSH20 0xFFFFFFFFFFFFFFFFFFFFFFFFFFFFFFFFFFFFFFFF DUP4 AND PUSH1 0x24 DUP1 DUP4 ADD SWAP2 SWAP1 SWAP2 MSTORE DUP3 MLOAD DUP1 DUP4 SUB SWAP1 SWAP2 ADD DUP2 MSTORE PUSH1 0x44 SWAP1 SWAP2 ADD SWAP1 SWAP2 MSTORE PUSH1 0x20 DUP2 ADD DUP1 MLOAD PUSH28 0xFFFFFFFFFFFFFFFFFFFFFFFFFFFFFFFFFFFFFFFFFFFFFFFFFFFFFFFF AND PUSH32 0xCA11C0DE00000000000000000000000000000000000000000000000000000000 OR DUP2 MSTORE DUP2 MLOAD PUSH1 0x0 SWAP2 DUP3 SWAP2 SWAP1 DUP3 DUP8 GAS CALL PUSH2 0x9B4 JUMPI PUSH1 0x40 MLOAD RETURNDATASIZE DUP2 ADD PUSH1 0x40 MSTORE RETURNDATASIZE PUSH1 0x0 DUP3 RETURNDATACOPY RETURNDATASIZE DUP2 REVERT JUMPDEST PUSH20 0xFFFFFFFFFFFFFFFFFFFFFFFFFFFFFFFFFFFFFFFF DUP2 AND DUP2 EQ PUSH2 0x11FB JUMPI PUSH1 0x0 DUP1 REVERT JUMPDEST POP JUMP JUMPDEST PUSH1 0x0 DUP1 DUP4 PUSH1 0x1F DUP5 ADD SLT PUSH2 0x1210 JUMPI PUSH1 0x0 DUP1 REVERT JUMPDEST POP DUP2 CALLDATALOAD PUSH8 0xFFFFFFFFFFFFFFFF DUP2 GT ISZERO PUSH2 0x1228 JUMPI PUSH1 0x0 DUP1 REVERT JUMPDEST PUSH1 0x20 DUP4 ADD SWAP2 POP DUP4 PUSH1 0x20 DUP3 DUP6 ADD ADD GT ISZERO PUSH2 0x1240 JUMPI PUSH1 0x0 DUP1 REVERT JUMPDEST SWAP3 POP SWAP3 SWAP1 POP JUMP JUMPDEST PUSH1 0x0 DUP1 PUSH1 0x0 DUP1 PUSH1 0x60 DUP6 DUP8 SUB SLT ISZERO PUSH2 0x125D JUMPI PUSH1 0x0 DUP1 REVERT JUMPDEST DUP5 CALLDATALOAD SWAP4 POP PUSH1 0x20 DUP6 ADD CALLDATALOAD PUSH2 0x126F DUP2 PUSH2 0x11D9 JUMP JUMPDEST SWAP3 POP PUSH1 0x40 DUP6 ADD CALLDATALOAD PUSH8 0xFFFFFFFFFFFFFFFF DUP2 GT ISZERO PUSH2 0x128B JUMPI PUSH1 0x0 DUP1 REVERT JUMPDEST PUSH2 0x1297 DUP8 DUP3 DUP9 ADD PUSH2 0x11FE JUMP JUMPDEST SWAP6 SWAP9 SWAP5 SWAP8 POP SWAP6 POP POP POP POP JUMP JUMPDEST PUSH1 0x0 DUP1 PUSH1 0x0 DUP1 PUSH1 0x60 DUP6 DUP8 SUB SLT ISZERO PUSH2 0x12B9 JUMPI PUSH1 0x0 DUP1 REVERT JUMPDEST DUP5 CALLDATALOAD PUSH2 0x12C4 DUP2 PUSH2 0x11D9 JUMP JUMPDEST SWAP4 POP PUSH1 0x20 DUP6 ADD CALLDATALOAD SWAP3 POP PUSH1 0x40 DUP6 ADD CALLDATALOAD PUSH8 0xFFFFFFFFFFFFFFFF DUP2 GT ISZERO PUSH2 0x128B JUMPI PUSH1 0x0 DUP1 REVERT JUMPDEST PUSH1 0x0 PUSH1 0x20 DUP3 DUP5 SUB SLT ISZERO PUSH2 0x12F9 JUMPI PUSH1 0x0 DUP1 REVERT JUMPDEST DUP2 CALLDATALOAD PUSH2 0x654 DUP2 PUSH2 0x11D9 JUMP JUMPDEST PUSH1 0x0 DUP1 PUSH1 0x20 DUP4 DUP6 SUB SLT ISZERO PUSH2 0x1317 JUMPI PUSH1 0x0 DUP1 REVERT JUMPDEST DUP3 CALLDATALOAD PUSH8 0xFFFFFFFFFFFFFFFF DUP2 GT ISZERO PUSH2 0x132E JUMPI PUSH1 0x0 DUP1 REVERT JUMPDEST PUSH2 0x133A DUP6 DUP3 DUP7 ADD PUSH2 0x11FE JUMP JUMPDEST SWAP1 SWAP7 SWAP1 SWAP6 POP SWAP4 POP POP POP POP JUMP JUMPDEST PUSH1 0x0 DUP1 PUSH1 0x20 DUP4 DUP6 SUB SLT ISZERO PUSH2 0x1359 JUMPI PUSH1 0x0 DUP1 REVERT JUMPDEST DUP3 CALLDATALOAD PUSH8 0xFFFFFFFFFFFFFFFF DUP1 DUP3 GT ISZERO PUSH2 0x1371 JUMPI PUSH1 0x0 DUP1 REVERT JUMPDEST DUP2 DUP6 ADD SWAP2 POP DUP6 PUSH1 0x1F DUP4 ADD SLT PUSH2 0x1385 JUMPI PUSH1 0x0 DUP1 REVERT JUMPDEST DUP2 CALLDATALOAD DUP2 DUP2 GT ISZERO PUSH2 0x1394 JUMPI PUSH1 0x0 DUP1 REVERT JUMPDEST DUP7 PUSH1 0x20 DUP3 PUSH1 0x5 SHL DUP6 ADD ADD GT ISZERO PUSH2 0x13A9 JUMPI PUSH1 0x0 DUP1 REVERT JUMPDEST PUSH1 0x20 SWAP3 SWAP1 SWAP3 ADD SWAP7 SWAP2 SWAP6 POP SWAP1 SWAP4 POP POP POP POP JUMP JUMPDEST PUSH1 0x0 PUSH1 0x20 DUP3 DUP5 SUB SLT ISZERO PUSH2 0x13CD JUMPI PUSH1 0x0 DUP1 REVERT JUMPDEST POP CALLDATALOAD SWAP2 SWAP1 POP JUMP JUMPDEST PUSH1 0x0 DUP1 PUSH1 0x0 PUSH1 0x40 DUP5 DUP7 SUB SLT ISZERO PUSH2 0x13E9 JUMPI PUSH1 0x0 DUP1 REVERT JUMPDEST DUP4 CALLDATALOAD PUSH2 0x13F4 DUP2 PUSH2 0x11D9 JUMP JUMPDEST SWAP3 POP PUSH1 0x20 DUP5 ADD CALLDATALOAD PUSH8 0xFFFFFFFFFFFFFFFF DUP2 GT ISZERO PUSH2 0x1410 JUMPI PUSH1 0x0 DUP1 REVERT JUMPDEST PUSH2 0x141C DUP7 DUP3 DUP8 ADD PUSH2 0x11FE JUMP JUMPDEST SWAP5 SWAP8 SWAP1 SWAP7 POP SWAP4 SWAP5 POP POP POP POP JUMP JUMPDEST PUSH1 0x0 DUP1 PUSH1 0x0 DUP1 PUSH1 0x60 DUP6 DUP8 SUB SLT ISZERO PUSH2 0x143F JUMPI PUSH1 0x0 DUP1 REVERT JUMPDEST DUP5 CALLDATALOAD SWAP4 POP PUSH1 0x20 DUP6 ADD CALLDATALOAD SWAP3 POP PUSH1 0x40 DUP6 ADD CALLDATALOAD PUSH8 0xFFFFFFFFFFFFFFFF DUP2 GT ISZERO PUSH2 0x128B JUMPI PUSH1 0x0 DUP1 REVERT JUMPDEST PUSH1 0x20 DUP1 DUP3 MSTORE DUP3 MLOAD DUP3 DUP3 ADD DUP2 SWAP1 MSTORE PUSH1 0x0 SWAP2 SWAP1 DUP5 DUP3 ADD SWAP1 PUSH1 0x40 DUP6 ADD SWAP1 DUP5 JUMPDEST DUP2 DUP2 LT ISZERO PUSH2 0x149C JUMPI DUP4 MLOAD DUP4 MSTORE SWAP3 DUP5 ADD SWAP3 SWAP2 DUP5 ADD SWAP2 PUSH1 0x1 ADD PUSH2 0x1480 JUMP JUMPDEST POP SWAP1 SWAP7 SWAP6 POP POP POP POP POP POP JUMP JUMPDEST PUSH1 0x0 DUP1 PUSH1 0x40 DUP4 DUP6 SUB SLT ISZERO PUSH2 0x14BB JUMPI PUSH1 0x0 DUP1 REVERT JUMPDEST DUP3 CALLDATALOAD SWAP2 POP PUSH1 0x20 DUP4 ADD CALLDATALOAD PUSH2 0x14CD DUP2 PUSH2 0x11D9 JUMP JUMPDEST DUP1 SWAP2 POP POP SWAP3 POP SWAP3 SWAP1 POP JUMP JUMPDEST PUSH1 0x0 DUP1 PUSH1 0x0 PUSH1 0x40 DUP5 DUP7 SUB SLT ISZERO PUSH2 0x14ED JUMPI PUSH1 0x0 DUP1 REVERT JUMPDEST DUP4 CALLDATALOAD SWAP3 POP PUSH1 0x20 DUP5 ADD CALLDATALOAD PUSH8 0xFFFFFFFFFFFFFFFF DUP2 GT ISZERO PUSH2 0x1410 JUMPI PUSH1 0x0 DUP1 REVERT JUMPDEST PUSH1 0x0 PUSH1 0x20 DUP3 DUP5 SUB SLT ISZERO PUSH2 0x151D JUMPI PUSH1 0x0 DUP1 REVERT JUMPDEST DUP2 MLOAD PUSH2 0x654 DUP2 PUSH2 0x11D9 JUMP JUMPDEST PUSH32 0x4E487B7100000000000000000000000000000000000000000000000000000000 PUSH1 0x0 MSTORE PUSH1 0x1 PUSH1 0x4 MSTORE PUSH1 0x24 PUSH1 0x0 REVERT JUMPDEST PUSH32 0x4E487B7100000000000000000000000000000000000000000000000000000000 PUSH1 0x0 MSTORE PUSH1 0x32 PUSH1 0x4 MSTORE PUSH1 0x24 PUSH1 0x0 REVERT JUMPDEST PUSH1 0x0 DUP1 DUP4 CALLDATALOAD PUSH32 0xFFFFFFFFFFFFFFFFFFFFFFFFFFFFFFFFFFFFFFFFFFFFFFFFFFFFFFFFFFFFFFE1 DUP5 CALLDATASIZE SUB ADD DUP2 SLT PUSH2 0x15BB JUMPI PUSH1 0x0 DUP1 REVERT JUMPDEST DUP4 ADD DUP1 CALLDATALOAD SWAP2 POP PUSH8 0xFFFFFFFFFFFFFFFF DUP3 GT ISZERO PUSH2 0x15D6 JUMPI PUSH1 0x0 DUP1 REVERT JUMPDEST PUSH1 0x20 ADD SWAP2 POP CALLDATASIZE DUP2 SWAP1 SUB DUP3 SGT ISZERO PUSH2 0x1240 JUMPI PUSH1 0x0 DUP1 REVERT JUMPDEST PUSH1 0x0 PUSH32 0xFFFFFFFFFFFFFFFFFFFFFFFFFFFFFFFFFFFFFFFFFFFFFFFFFFFFFFFFFFFFFFFF DUP3 EQ ISZERO PUSH2 0x1644 JUMPI PUSH32 0x4E487B7100000000000000000000000000000000000000000000000000000000 PUSH1 0x0 MSTORE PUSH1 0x11 PUSH1 0x4 MSTORE PUSH1 0x24 PUSH1 0x0 REVERT JUMPDEST POP PUSH1 0x1 ADD SWAP1 JUMP INVALID LOG2 PUSH5 0x6970667358 0x22 SLT KECCAK256 0x2A 0xE7 DUP5 LT SGT NOT 0xC6 ISZERO DUP16 0x5C 0xE5 RETURNDATASIZE PUSH3 0x933E1F SWAP8 SWAP7 SELFDESTRUCT 0xBE 0xF PUSH23 0xC7F3C88007C1E28DE5A164736F6C634300080B003360A0 PUSH1 0x40 MSTORE CALLVALUE DUP1 ISZERO PUSH2 0x10 JUMPI PUSH1 0x0 DUP1 REVERT JUMPDEST POP CALLER PUSH1 0x80 MSTORE PUSH1 0x80 MLOAD PUSH2 0x217 PUSH2 0x2F PUSH1 0x0 CODECOPY PUSH1 0x0 PUSH1 0x79 ADD MSTORE PUSH2 0x217 PUSH1 0x0 RETURN INVALID PUSH1 0x80 PUSH1 0x40 MSTORE PUSH1 0x4 CALLDATASIZE LT PUSH2 0x22 JUMPI PUSH1 0x0 CALLDATALOAD PUSH1 0xE0 SHR DUP1 PUSH4 0xCBCAE70 EQ PUSH2 0x39 JUMPI PUSH2 0x31 JUMP JUMPDEST CALLDATASIZE PUSH2 0x31 JUMPI PUSH2 0x2F PUSH2 0x77 JUMP JUMPDEST STOP JUMPDEST PUSH2 0x2F PUSH2 0x77 JUMP JUMPDEST CALLVALUE DUP1 ISZERO PUSH2 0x45 JUMPI PUSH1 0x0 DUP1 REVERT JUMPDEST POP PUSH2 0x4E PUSH2 0x19E JUMP JUMPDEST PUSH1 0x40 MLOAD PUSH20 0xFFFFFFFFFFFFFFFFFFFFFFFFFFFFFFFFFFFFFFFF SWAP1 SWAP2 AND DUP2 MSTORE PUSH1 0x20 ADD PUSH1 0x40 MLOAD DUP1 SWAP2 SUB SWAP1 RETURN JUMPDEST PUSH32 0x0 PUSH2 0x169 JUMP JUMPDEST PUSH32 0xFFFFFFFFFFFFFFFFFFFFFFFFFFFFFFFFFFFFFFFFFFFFFFFFFFFFFFFFFFFFFFFF SLOAD PUSH20 0xFFFFFFFFFFFFFFFFFFFFFFFFFFFFFFFFFFFFFFFF PUSH1 0x4 CALLDATALOAD AND SWAP1 PUSH1 0xA0 SHR PUSH12 0xCA11C0DE15DEAD10CCED0000 EQ ISZERO PUSH2 0x119 JUMPI PUSH32 0x696D706C6F630000000000000000000000000000000000000000000000000000 PUSH1 0x0 MSTORE PUSH1 0x20 PUSH1 0x0 REVERT JUMPDEST PUSH32 0xFFFFFFFFFFFFFFFFFFFFFFFFFFFFFFFFFFFFFFFFFFFFFFFFFFFFFFFFFFFFFFFF SSTORE STOP JUMPDEST PUSH1 0x40 MLOAD CALLDATASIZE DUP2 ADD PUSH1 0x40 MSTORE CALLDATASIZE PUSH1 0x0 DUP3 CALLDATACOPY PUSH1 0x0 DUP1 CALLDATASIZE DUP4 PUSH1 0x0 NOT SLOAD GAS DELEGATECALL RETURNDATASIZE PUSH1 0x0 DUP4 RETURNDATACOPY DUP1 PUSH2 0x164 JUMPI RETURNDATASIZE DUP3 REVERT JUMPDEST POP RETURNDATASIZE DUP2 RETURN JUMPDEST DUP1 CALLER EQ ISZERO PUSH2 0x193 JUMPI PUSH1 0x24 CALLDATASIZE EQ ISZERO PUSH2 0x193 JUMPI PUSH4 0xCA11C0DE PUSH1 0x0 CALLDATALOAD PUSH1 0xE0 SHR EQ ISZERO PUSH2 0x193 JUMPI PUSH2 0x193 PUSH2 0x9D JUMP JUMPDEST PUSH2 0x19B PUSH2 0x13D JUMP JUMPDEST POP JUMP JUMPDEST PUSH1 0x0 PUSH20 0xFFFFFFFFFFFFFFFFFFFFFFFFFFFFFFFFFFFFFFFF PUSH32 0xFFFFFFFFFFFFFFFFFFFFFFFFFFFFFFFFFFFFFFFFFFFFFFFFFFFFFFFFFFFFFFFF SLOAD AND PUSH1 0x0 MSTORE PUSH1 0x20 PUSH1 0x0 RETURN INVALID LOG2 PUSH5 0x6970667358 0x22 SLT KECCAK256 0x4D 0x2F 0xC8 BALANCE PUSH28 0x6216965FBF33D316516C31E54E3CCC8875A5F50BBA448CFEFAE1DB64 PUSH20 0x6F6C634300080B00330000000000000000000000 "
        },
        "gasEstimates": {
          "creation": {
            "codeDepositCost": "1152200",
            "executionCost": "infinite",
            "totalCost": "infinite"
          },
          "external": {
            "": "infinite",
            "callAny(address,uint256,bytes)": "infinite",
            "contracts()": "infinite",
            "delegateCallAny(address,bytes)": "infinite",
            "delegator()": "2385",
            "deployCreate(bytes)": "infinite",
            "deployCreate2(uint256,bytes32,bytes)": "infinite",
            "deployProxy(bytes32)": "infinite",
            "deployStatic(bytes32,bytes)": "infinite",
            "deployTemplate(bytes)": "infinite",
            "getImplementation()": "2363",
            "getMetamorphicContractAddress(bytes32,address)": "659",
            "getNumContracts()": "2325",
            "initializeContract(address,bytes)": "infinite",
            "lookup(bytes32)": "600",
            "multiCall(bytes[])": "infinite",
            "owner()": "2341",
            "setDelegator(address)": "26726",
            "setImplementation(address)": "28880",
            "setOwner(address)": "26726",
            "upgradeProxy(bytes32,address,bytes)": "infinite"
          }
        },
        "methodIdentifiers": {
          "callAny(address,uint256,bytes)": "12e6bf6a",
          "contracts()": "6c0f79b6",
          "delegateCallAny(address,bytes)": "4713ee7a",
          "delegator()": "ce9b7930",
          "deployCreate(bytes)": "27fe1822",
          "deployCreate2(uint256,bytes32,bytes)": "56f2a761",
          "deployProxy(bytes32)": "39cab472",
          "deployStatic(bytes32,bytes)": "fa481da5",
          "deployTemplate(bytes)": "17cff2c5",
          "getImplementation()": "aaf10f42",
          "getMetamorphicContractAddress(bytes32,address)": "8653a465",
          "getNumContracts()": "cfe10b30",
          "initializeContract(address,bytes)": "e1d7a8e4",
          "lookup(bytes32)": "f39ec1f7",
          "multiCall(bytes[])": "348a0cdc",
          "owner()": "8da5cb5b",
          "setDelegator(address)": "83cd9cc3",
          "setImplementation(address)": "d784d426",
          "setOwner(address)": "13af4035",
          "upgradeProxy(bytes32,address,bytes)": "043c9414"
        }
      },
      "storageLayout": {
        "storage": [
          {
            "astId": 256,
            "contract": "contracts/ProxyFactory.sol:ProxyFactory",
            "label": "_owner",
            "offset": 0,
            "slot": "0",
            "type": "t_address"
          },
          {
            "astId": 259,
            "contract": "contracts/ProxyFactory.sol:ProxyFactory",
            "label": "_delegator",
            "offset": 0,
            "slot": "1",
            "type": "t_address"
          },
          {
            "astId": 263,
            "contract": "contracts/ProxyFactory.sol:ProxyFactory",
            "label": "_contracts",
            "offset": 0,
            "slot": "2",
            "type": "t_array(t_bytes32)dyn_storage"
          },
          {
            "astId": 266,
            "contract": "contracts/ProxyFactory.sol:ProxyFactory",
            "label": "_implementation",
            "offset": 0,
            "slot": "3",
            "type": "t_address"
          }
        ],
        "types": {
          "t_address": {
            "encoding": "inplace",
            "label": "address",
            "numberOfBytes": "20"
          },
          "t_array(t_bytes32)dyn_storage": {
            "base": "t_bytes32",
            "encoding": "dynamic_array",
            "label": "bytes32[]",
            "numberOfBytes": "32"
          },
          "t_bytes32": {
            "encoding": "inplace",
            "label": "bytes32",
            "numberOfBytes": "32"
          }
        }
      },
      "userdoc": {
        "kind": "user",
        "methods": {},
        "version": 1
      }
    }
  }
}