{
  "contracts/proxy/Proxy.sol": {
    "Proxy": {
      "abi": [
        {
          "inputs": [],
          "stateMutability": "nonpayable",
          "type": "constructor"
        },
        {
          "stateMutability": "payable",
          "type": "fallback"
        },
        {
          "inputs": [],
          "name": "getImplementationAddress",
          "outputs": [
            {
              "internalType": "address",
              "name": "",
              "type": "address"
            }
          ],
          "stateMutability": "view",
          "type": "function"
        },
        {
          "stateMutability": "payable",
          "type": "receive"
        }
      ],
      "devdoc": {
        "kind": "dev",
        "methods": {},
        "version": 1
      },
      "evm": {
        "bytecode": {
          "linkReferences": {},
          "object": "60a060405234801561001057600080fd5b503360805260805161021761002f6000396000607901526102176000f3fe6080604052600436106100225760003560e01c80630cbcae701461003957610031565b366100315761002f610077565b005b61002f610077565b34801561004557600080fd5b5061004e61019e565b60405173ffffffffffffffffffffffffffffffffffffffff909116815260200160405180910390f35b7f0000000000000000000000000000000000000000000000000000000000000000610169565b7fffffffffffffffffffffffffffffffffffffffffffffffffffffffffffffffff5473ffffffffffffffffffffffffffffffffffffffff600435169060a01c6bca11c0de15dead10cced00001415610119577f696d706c6f63000000000000000000000000000000000000000000000000000060005260206000fd5b7fffffffffffffffffffffffffffffffffffffffffffffffffffffffffffffffff55005b60405136810160405236600082376000803683600019545af43d6000833e80610164573d82fd5b503d81f35b803314156101935760243614156101935763ca11c0de60003560e01c14156101935761019361009d565b61019b61013d565b50565b600073ffffffffffffffffffffffffffffffffffffffff7fffffffffffffffffffffffffffffffffffffffffffffffffffffffffffffffff541660005260206000f3fea26469706673582212204d2fc8317b6216965fbf33d316516c31e54e3ccc8875a5f50bba448cfefae1db64736f6c634300080b0033",
          "opcodes": "PUSH1 0xA0 PUSH1 0x40 MSTORE CALLVALUE DUP1 ISZERO PUSH2 0x10 JUMPI PUSH1 0x0 DUP1 REVERT JUMPDEST POP CALLER PUSH1 0x80 MSTORE PUSH1 0x80 MLOAD PUSH2 0x217 PUSH2 0x2F PUSH1 0x0 CODECOPY PUSH1 0x0 PUSH1 0x79 ADD MSTORE PUSH2 0x217 PUSH1 0x0 RETURN INVALID PUSH1 0x80 PUSH1 0x40 MSTORE PUSH1 0x4 CALLDATASIZE LT PUSH2 0x22 JUMPI PUSH1 0x0 CALLDATALOAD PUSH1 0xE0 SHR DUP1 PUSH4 0xCBCAE70 EQ PUSH2 0x39 JUMPI PUSH2 0x31 JUMP JUMPDEST CALLDATASIZE PUSH2 0x31 JUMPI PUSH2 0x2F PUSH2 0x77 JUMP JUMPDEST STOP JUMPDEST PUSH2 0x2F PUSH2 0x77 JUMP JUMPDEST CALLVALUE DUP1 ISZERO PUSH2 0x45 JUMPI PUSH1 0x0 DUP1 REVERT JUMPDEST POP PUSH2 0x4E PUSH2 0x19E JUMP JUMPDEST PUSH1 0x40 MLOAD PUSH20 0xFFFFFFFFFFFFFFFFFFFFFFFFFFFFFFFFFFFFFFFF SWAP1 SWAP2 AND DUP2 MSTORE PUSH1 0x20 ADD PUSH1 0x40 MLOAD DUP1 SWAP2 SUB SWAP1 RETURN JUMPDEST PUSH32 0x0 PUSH2 0x169 JUMP JUMPDEST PUSH32 0xFFFFFFFFFFFFFFFFFFFFFFFFFFFFFFFFFFFFFFFFFFFFFFFFFFFFFFFFFFFFFFFF SLOAD PUSH20 0xFFFFFFFFFFFFFFFFFFFFFFFFFFFFFFFFFFFFFFFF PUSH1 0x4 CALLDATALOAD AND SWAP1 PUSH1 0xA0 SHR PUSH12 0xCA11C0DE15DEAD10CCED0000 EQ ISZERO PUSH2 0x119 JUMPI PUSH32 0x696D706C6F630000000000000000000000000000000000000000000000000000 PUSH1 0x0 MSTORE PUSH1 0x20 PUSH1 0x0 REVERT JUMPDEST PUSH32 0xFFFFFFFFFFFFFFFFFFFFFFFFFFFFFFFFFFFFFFFFFFFFFFFFFFFFFFFFFFFFFFFF SSTORE STOP JUMPDEST PUSH1 0x40 MLOAD CALLDATASIZE DUP2 ADD PUSH1 0x40 MSTORE CALLDATASIZE PUSH1 0x0 DUP3 CALLDATACOPY PUSH1 0x0 DUP1 CALLDATASIZE DUP4 PUSH1 0x0 NOT SLOAD GAS DELEGATECALL RETURNDATASIZE PUSH1 0x0 DUP4 RETURNDATACOPY DUP1 PUSH2 0x164 JUMPI RETURNDATASIZE DUP3 REVERT JUMPDEST POP RETURNDATASIZE DUP2 RETURN JUMPDEST DUP1 CALLER EQ ISZERO PUSH2 0x193 JUMPI PUSH1 0x24 CALLDATASIZE EQ ISZERO PUSH2 0x193 JUMPI PUSH4 0xCA11C0DE PUSH1 0x0 CALLDATALOAD PUSH1 0xE0 SHR EQ ISZERO PUSH2 0x193 JUMPI PUSH2 0x193 PUSH2 0x9D JUMP JUMPDEST PUSH2 0x19B PUSH2 0x13D JUMP JUMPDEST POP JUMP JUMPDEST PUSH1 0x0 PUSH20 0xFFFFFFFFFFFFFFFFFFFFFFFFFFFFFFFFFFFFFFFF PUSH32 0xFFFFFFFFFFFFFFFFFFFFFFFFFFFFFFFFFFFFFFFFFFFFFFFFFFFFFFFFFFFFFFFF SLOAD AND PUSH1 0x0 MSTORE PUSH1 0x20 PUSH1 0x0 RETURN INVALID LOG2 PUSH5 0x6970667358 0x22 SLT KECCAK256 0x4D 0x2F 0xC8 BALANCE PUSH28 0x6216965FBF33D316516C31E54E3CCC8875A5F50BBA448CFEFAE1DB64 PUSH20 0x6F6C634300080B00330000000000000000000000 "
        },
        "gasEstimates": {
          "creation": {
            "codeDepositCost": "107000",
            "executionCost": "infinite",
            "totalCost": "infinite"
          },
          "external": {
            "": "infinite",
            "getImplementationAddress()": "2237"
          },
          "internal": {
            "_fallback()": "infinite"
          }
        },
        "methodIdentifiers": {
          "getImplementationAddress()": "0cbcae70"
        }
      },
      "storageLayout": {
        "storage": [],
        "types": null
      },
      "userdoc": {
        "kind": "user",
        "methods": {},
        "notice": "Proxy is a delegatecall reverse proxy implementation the forwarding address is stored at the slot location of not(0) if not(0) has a value stored in it that is of the form 0Xca11c0de15dead10cced0000< address > the proxy may no longer be upgraded using the internal mechanism. This does not prevent the implementation from upgrading the proxy by changing this slot. The proxy may be directly upgraded ( if the lock is not set ) by calling the proxy from the factory address using the format abi.encodeWithSelector(0xca11c0de, <address>); All other calls will be proxied through to the implementation. The implementation can not be locked using the internal upgrade mechanism due to the fact that the internal mechanism zeros out the higher order bits. Therefore, the implementation itself must carry the locking mechanism that sets the higher order bits to lock the upgrade capability of the proxy.",
        "version": 1
      }
    }
  }
}