{
  "_format": "hh-sol-artifact-1",
  "contractName": "Mock3",
  "sourceName": "contracts/mocks/MockContract3.sol",
  "abi": [
    {
      "inputs": [
        {
          "internalType": "address",
          "name": "factory_",
          "type": "address"
        },
        {
          "internalType": "uint256",
          "name": "version_",
          "type": "uint256"
        },
        {
          "internalType": "address",
          "name": "anotherMock_",
          "type": "address"
        }
      ],
      "stateMutability": "nonpayable",
      "type": "constructor"
    },
    {
      "inputs": [],
      "name": "_a",
      "outputs": [
        {
          "internalType": "uint256",
          "name": "",
          "type": "uint256"
        }
      ],
      "stateMutability": "view",
      "type": "function"
    },
    {
      "inputs": [],
      "name": "_name",
      "outputs": [
        {
          "internalType": "string",
          "name": "",
          "type": "string"
        }
      ],
      "stateMutability": "view",
      "type": "function"
    },
    {
      "inputs": [
        {
          "internalType": "uint256",
          "name": "a_",
          "type": "uint256"
        }
      ],
      "name": "setA",
      "outputs": [],
      "stateMutability": "nonpayable",
      "type": "function"
    },
    {
      "inputs": [
        {
          "internalType": "string",
          "name": "name_",
          "type": "string"
        }
      ],
      "name": "setMsg",
      "outputs": [],
      "stateMutability": "nonpayable",
      "type": "function"
    }
  ],
  "bytecode": "0x60e060405234801561001057600080fd5b5060405161045238038061045283398101604081905261002f91610068565b6001600160a01b0392831660c0526080919091521660a0526100a4565b80516001600160a01b038116811461006357600080fd5b919050565b60008060006060848603121561007d57600080fd5b6100868461004c565b92506020840151915061009b6040850161004c565b90509250925092565b60805160a05160c0516103886100ca6000396000505060005050600050506103886000f3fe608060405234801561001057600080fd5b506004361061004c5760003560e01c8063c4784fd414610051578063ced7b2e314610066578063d28d885214610082578063ee919d5014610097575b600080fd5b61006461005f366004610200565b6100aa565b005b61006f60015481565b6040519081526020015b60405180910390f35b61008a6100bb565b6040516100799190610272565b6100646100a53660046102e5565b600155565b6100b660008383610149565b505050565b600080546100c8906102fe565b80601f01602080910402602001604051908101604052809291908181526020018280546100f4906102fe565b80156101415780601f1061011657610100808354040283529160200191610141565b820191906000526020600020905b81548152906001019060200180831161012457829003601f168201915b505050505081565b828054610155906102fe565b90600052602060002090601f01602090048101928261017757600085556101db565b82601f106101ae578280017fffffffffffffffffffffffffffffffffffffffffffffffffffffffffffffff008235161785556101db565b828001600101855582156101db579182015b828111156101db5782358255916020019190600101906101c0565b506101e79291506101eb565b5090565b5b808211156101e757600081556001016101ec565b6000806020838503121561021357600080fd5b823567ffffffffffffffff8082111561022b57600080fd5b818501915085601f83011261023f57600080fd5b81358181111561024e57600080fd5b86602082850101111561026057600080fd5b60209290920196919550909350505050565b600060208083528351808285015260005b8181101561029f57858101830151858201604001528201610283565b818111156102b1576000604083870101525b50601f017fffffffffffffffffffffffffffffffffffffffffffffffffffffffffffffffe016929092016040019392505050565b6000602082840312156102f757600080fd5b5035919050565b600181811c9082168061031257607f821691505b6020821081141561034c577f4e487b7100000000000000000000000000000000000000000000000000000000600052602260045260246000fd5b5091905056fea2646970667358221220fd48285b74185c9cdd3913373b26d4ec687837e861074dce289bd26439af9cdc64736f6c634300080b0033",
  "linkReferences": {},
  "deployedLinkReferences": {}
}