{
  "_format": "hh-sol-artifact-1",
  "contractName": "Proxy",
  "sourceName": "contracts/proxy/Proxy.sol",
  "abi": [
    {
      "inputs": [],
      "stateMutability": "nonpayable",
      "type": "constructor"
    },
    {
      "stateMutability": "payable",
      "type": "fallback"
    },
    {
      "inputs": [],
      "name": "getImplementationAddress",
      "outputs": [
        {
          "internalType": "address",
          "name": "",
          "type": "address"
        }
      ],
      "stateMutability": "view",
      "type": "function"
    },
    {
      "stateMutability": "payable",
      "type": "receive"
    }
  ],
  "bytecode": "0x60a060405234801561001057600080fd5b503360805260805161021761002f6000396000607901526102176000f3fe6080604052600436106100225760003560e01c80630cbcae701461003957610031565b366100315761002f610077565b005b61002f610077565b34801561004557600080fd5b5061004e61019e565b60405173ffffffffffffffffffffffffffffffffffffffff909116815260200160405180910390f35b7f0000000000000000000000000000000000000000000000000000000000000000610169565b7fffffffffffffffffffffffffffffffffffffffffffffffffffffffffffffffff5473ffffffffffffffffffffffffffffffffffffffff600435169060a01c6bca11c0de15dead10cced00001415610119577f696d706c6f63000000000000000000000000000000000000000000000000000060005260206000fd5b7fffffffffffffffffffffffffffffffffffffffffffffffffffffffffffffffff55005b60405136810160405236600082376000803683600019545af43d6000833e80610164573d82fd5b503d81f35b803314156101935760243614156101935763ca11c0de60003560e01c14156101935761019361009d565b61019b61013d565b50565b600073ffffffffffffffffffffffffffffffffffffffff7fffffffffffffffffffffffffffffffffffffffffffffffffffffffffffffffff541660005260206000f3fea26469706673582212204d2fc8317b6216965fbf33d316516c31e54e3ccc8875a5f50bba448cfefae1db64736f6c634300080b0033",
  "linkReferences": {},
  "deployedLinkReferences": {}
}